{
  "_format": "hh-sol-artifact-1",
  "contractName": "Alexandria",
  "sourceName": "contracts/Alexandria.sol",
  "abi": [
    {
      "inputs": [
        {
          "internalType": "address",
          "name": "_tagLogicAddr",
          "type": "address"
        }
      ],
      "stateMutability": "nonpayable",
      "type": "constructor"
    },
    {
      "anonymous": false,
      "inputs": [
        {
          "indexed": true,
          "internalType": "address",
          "name": "previousOwner",
          "type": "address"
        },
        {
          "indexed": true,
          "internalType": "address",
          "name": "newOwner",
          "type": "address"
        }
      ],
      "name": "OwnershipTransferred",
      "type": "event"
    },
    {
      "inputs": [],
      "name": "countTags",
      "outputs": [
        {
          "internalType": "uint256",
          "name": "",
          "type": "uint256"
        }
      ],
      "stateMutability": "view",
      "type": "function"
    },
    {
      "inputs": [
        {
          "internalType": "string",
          "name": "name",
          "type": "string"
        },
        {
          "internalType": "string",
          "name": "description",
          "type": "string"
        }
      ],
      "name": "createTag",
      "outputs": [],
      "stateMutability": "nonpayable",
      "type": "function"
    },
    {
      "inputs": [
        {
          "internalType": "bytes32",
          "name": "id",
          "type": "bytes32"
        }
      ],
      "name": "deleteTagById",
      "outputs": [],
      "stateMutability": "nonpayable",
      "type": "function"
    },
    {
      "inputs": [
        {
          "internalType": "bytes32",
          "name": "id",
          "type": "bytes32"
        }
      ],
      "name": "getTagById",
      "outputs": [
        {
          "components": [
            {
              "internalType": "bytes32",
              "name": "id",
              "type": "bytes32"
            },
            {
              "internalType": "string",
              "name": "name",
              "type": "string"
            },
            {
              "internalType": "string",
              "name": "description",
              "type": "string"
            },
            {
              "internalType": "bool",
              "name": "deleted",
              "type": "bool"
            },
            {
              "internalType": "address",
              "name": "creator",
              "type": "address"
            },
            {
              "internalType": "uint256",
              "name": "createdAt",
              "type": "uint256"
            },
            {
              "internalType": "uint256",
              "name": "updatedAt",
              "type": "uint256"
            }
          ],
          "internalType": "struct TagTypes.Tag",
          "name": "",
          "type": "tuple"
        }
      ],
      "stateMutability": "view",
      "type": "function"
    },
    {
      "inputs": [
        {
          "internalType": "uint256",
          "name": "index",
          "type": "uint256"
        }
      ],
      "name": "getTagByIndex",
      "outputs": [
        {
          "components": [
            {
              "internalType": "bytes32",
              "name": "id",
              "type": "bytes32"
            },
            {
              "internalType": "string",
              "name": "name",
              "type": "string"
            },
            {
              "internalType": "string",
              "name": "description",
              "type": "string"
            },
            {
              "internalType": "bool",
              "name": "deleted",
              "type": "bool"
            },
            {
              "internalType": "address",
              "name": "creator",
              "type": "address"
            },
            {
              "internalType": "uint256",
              "name": "createdAt",
              "type": "uint256"
            },
            {
              "internalType": "uint256",
              "name": "updatedAt",
              "type": "uint256"
            }
          ],
          "internalType": "struct TagTypes.Tag",
          "name": "",
          "type": "tuple"
        }
      ],
      "stateMutability": "view",
      "type": "function"
    },
    {
      "inputs": [],
      "name": "owner",
      "outputs": [
        {
          "internalType": "address",
          "name": "",
          "type": "address"
        }
      ],
      "stateMutability": "view",
      "type": "function"
    },
    {
      "inputs": [],
      "name": "renounceOwnership",
      "outputs": [],
      "stateMutability": "nonpayable",
      "type": "function"
    },
    {
      "inputs": [
        {
          "internalType": "address",
          "name": "newOwner",
          "type": "address"
        }
      ],
      "name": "transferOwnership",
      "outputs": [],
      "stateMutability": "nonpayable",
      "type": "function"
    },
    {
      "inputs": [
        {
          "internalType": "bytes32",
          "name": "id",
          "type": "bytes32"
        },
        {
          "internalType": "string",
          "name": "description",
          "type": "string"
        }
      ],
      "name": "updateTagDescription",
      "outputs": [],
      "stateMutability": "nonpayable",
      "type": "function"
    },
    {
      "inputs": [
        {
          "internalType": "address",
          "name": "_tagLogicAddr",
          "type": "address"
        }
      ],
      "name": "upgradeTagLogic",
      "outputs": [],
      "stateMutability": "nonpayable",
      "type": "function"
    }
  ],
  "bytecode": "0x60806040523480156200001157600080fd5b506040516200151c3803806200151c833981810160405281019062000037919062000182565b620000576200004b6200009f60201b60201c565b620000a760201b60201c565b80600160006101000a81548173ffffffffffffffffffffffffffffffffffffffff021916908373ffffffffffffffffffffffffffffffffffffffff16021790555050620001fc565b600033905090565b60008060009054906101000a900473ffffffffffffffffffffffffffffffffffffffff169050816000806101000a81548173ffffffffffffffffffffffffffffffffffffffff021916908373ffffffffffffffffffffffffffffffffffffffff1602179055508173ffffffffffffffffffffffffffffffffffffffff168173ffffffffffffffffffffffffffffffffffffffff167f8be0079c531659141344cd1fd0a4f28419497f9722a3daafe3b4186f6b6457e060405160405180910390a35050565b6000815190506200017c81620001e2565b92915050565b6000602082840312156200019557600080fd5b6000620001a5848285016200016b565b91505092915050565b6000620001bb82620001c2565b9050919050565b600073ffffffffffffffffffffffffffffffffffffffff82169050919050565b620001ed81620001ae565b8114620001f957600080fd5b50565b611310806200020c6000396000f3fe608060405234801561001057600080fd5b506004361061009e5760003560e01c80638da5cb5b116100665780638da5cb5b1461011d578063c1823dbb1461013b578063cd93cec514610159578063f2fde38b14610189578063fd69b8e4146101a55761009e565b8063223c3ee7146100a3578063250cae2d146100bf578063372d4768146100db5780636dd764cd146100f7578063715018a614610113575b600080fd5b6100bd60048036038101906100b89190610bc4565b6101d5565b005b6100d960048036038101906100d49190610c3f565b610295565b005b6100f560048036038101906100f09190610c93565b610349565b005b610111600480360381019061010c9190610c16565b6103ff565b005b61011b61048f565b005b610125610517565b6040516101329190610f56565b60405180910390f35b610143610540565b6040516101509190611063565b60405180910390f35b610173600480360381019061016e9190610c16565b6105e7565b6040516101809190611041565b60405180910390f35b6101a3600480360381019061019e9190610bc4565b6106a6565b005b6101bf60048036038101906101ba9190610d40565b61079e565b6040516101cc9190611041565b60405180910390f35b6101dd61085d565b73ffffffffffffffffffffffffffffffffffffffff166101fb610517565b73ffffffffffffffffffffffffffffffffffffffff1614610251576040517f08c379a000000000000000000000000000000000000000000000000000000000815260040161024890611021565b60405180910390fd5b80600160006101000a81548173ffffffffffffffffffffffffffffffffffffffff021916908373ffffffffffffffffffffffffffffffffffffffff16021790555050565b600160009054906101000a900473ffffffffffffffffffffffffffffffffffffffff1673ffffffffffffffffffffffffffffffffffffffff16631568bb4a83836040518363ffffffff1660e01b81526004016102f2929190610fd1565b602060405180830381600087803b15801561030c57600080fd5b505af1158015610320573d6000803e3d6000fd5b505050506040513d601f19601f820116820180604052508101906103449190610bed565b505050565b600160009054906101000a900473ffffffffffffffffffffffffffffffffffffffff1673ffffffffffffffffffffffffffffffffffffffff1663796d58363384846040518463ffffffff1660e01b81526004016103a893929190610f71565b602060405180830381600087803b1580156103c257600080fd5b505af11580156103d6573d6000803e3d6000fd5b505050506040513d601f19601f820116820180604052508101906103fa9190610bed565b505050565b600160009054906101000a900473ffffffffffffffffffffffffffffffffffffffff1673ffffffffffffffffffffffffffffffffffffffff16630735211f826040518263ffffffff1660e01b815260040161045a9190610fb6565b600060405180830381600087803b15801561047457600080fd5b505af1158015610488573d6000803e3d6000fd5b5050505050565b61049761085d565b73ffffffffffffffffffffffffffffffffffffffff166104b5610517565b73ffffffffffffffffffffffffffffffffffffffff161461050b576040517f08c379a000000000000000000000000000000000000000000000000000000000815260040161050290611021565b60405180910390fd5b6105156000610865565b565b60008060009054906101000a900473ffffffffffffffffffffffffffffffffffffffff16905090565b6000600160009054906101000a900473ffffffffffffffffffffffffffffffffffffffff1673ffffffffffffffffffffffffffffffffffffffff166306661abd6040518163ffffffff1660e01b815260040160206040518083038186803b1580156105aa57600080fd5b505afa1580156105be573d6000803e3d6000fd5b505050506040513d601f19601f820116820180604052508101906105e29190610d69565b905090565b6105ef610929565b600160009054906101000a900473ffffffffffffffffffffffffffffffffffffffff1673ffffffffffffffffffffffffffffffffffffffff16632dff0d0d836040518263ffffffff1660e01b815260040161064a9190610fb6565b60006040518083038186803b15801561066257600080fd5b505afa158015610676573d6000803e3d6000fd5b505050506040513d6000823e3d601f19601f8201168201806040525081019061069f9190610cff565b9050919050565b6106ae61085d565b73ffffffffffffffffffffffffffffffffffffffff166106cc610517565b73ffffffffffffffffffffffffffffffffffffffff1614610722576040517f08c379a000000000000000000000000000000000000000000000000000000000815260040161071990611021565b60405180910390fd5b600073ffffffffffffffffffffffffffffffffffffffff168173ffffffffffffffffffffffffffffffffffffffff161415610792576040517f08c379a000000000000000000000000000000000000000000000000000000000815260040161078990611001565b60405180910390fd5b61079b81610865565b50565b6107a6610929565b600160009054906101000a900473ffffffffffffffffffffffffffffffffffffffff1673ffffffffffffffffffffffffffffffffffffffff16632d883a73836040518263ffffffff1660e01b81526004016108019190611063565b60006040518083038186803b15801561081957600080fd5b505afa15801561082d573d6000803e3d6000fd5b505050506040513d6000823e3d601f19601f820116820180604052508101906108569190610cff565b9050919050565b600033905090565b60008060009054906101000a900473ffffffffffffffffffffffffffffffffffffffff169050816000806101000a81548173ffffffffffffffffffffffffffffffffffffffff021916908373ffffffffffffffffffffffffffffffffffffffff1602179055508173ffffffffffffffffffffffffffffffffffffffff168173ffffffffffffffffffffffffffffffffffffffff167f8be0079c531659141344cd1fd0a4f28419497f9722a3daafe3b4186f6b6457e060405160405180910390a35050565b6040518060e00160405280600080191681526020016060815260200160608152602001600015158152602001600073ffffffffffffffffffffffffffffffffffffffff16815260200160008152602001600081525090565b600061099461098f846110a3565b61107e565b9050828152602081018484840111156109ac57600080fd5b6109b7848285611153565b509392505050565b60006109d26109cd846110a3565b61107e565b9050828152602081018484840111156109ea57600080fd5b6109f5848285611162565b509392505050565b600081359050610a0c8161127e565b92915050565b600081519050610a218161127e565b92915050565b600081519050610a3681611295565b92915050565b600081359050610a4b816112ac565b92915050565b600081519050610a60816112ac565b92915050565b600082601f830112610a7757600080fd5b8135610a87848260208601610981565b91505092915050565b600082601f830112610aa157600080fd5b8151610ab18482602086016109bf565b91505092915050565b600060e08284031215610acc57600080fd5b610ad660e061107e565b90506000610ae684828501610a51565b600083015250602082015167ffffffffffffffff811115610b0657600080fd5b610b1284828501610a90565b602083015250604082015167ffffffffffffffff811115610b3257600080fd5b610b3e84828501610a90565b6040830152506060610b5284828501610a27565b6060830152506080610b6684828501610a12565b60808301525060a0610b7a84828501610baf565b60a08301525060c0610b8e84828501610baf565b60c08301525092915050565b600081359050610ba9816112c3565b92915050565b600081519050610bbe816112c3565b92915050565b600060208284031215610bd657600080fd5b6000610be4848285016109fd565b91505092915050565b600060208284031215610bff57600080fd5b6000610c0d84828501610a27565b91505092915050565b600060208284031215610c2857600080fd5b6000610c3684828501610a3c565b91505092915050565b60008060408385031215610c5257600080fd5b6000610c6085828601610a3c565b925050602083013567ffffffffffffffff811115610c7d57600080fd5b610c8985828601610a66565b9150509250929050565b60008060408385031215610ca657600080fd5b600083013567ffffffffffffffff811115610cc057600080fd5b610ccc85828601610a66565b925050602083013567ffffffffffffffff811115610ce957600080fd5b610cf585828601610a66565b9150509250929050565b600060208284031215610d1157600080fd5b600082015167ffffffffffffffff811115610d2b57600080fd5b610d3784828501610aba565b91505092915050565b600060208284031215610d5257600080fd5b6000610d6084828501610b9a565b91505092915050565b600060208284031215610d7b57600080fd5b6000610d8984828501610baf565b91505092915050565b610d9b81611101565b82525050565b610daa81611101565b82525050565b610db981611113565b82525050565b610dc88161111f565b82525050565b610dd78161111f565b82525050565b6000610de8826110d4565b610df281856110df565b9350610e02818560208601611162565b610e0b816111f5565b840191505092915050565b6000610e21826110d4565b610e2b81856110f0565b9350610e3b818560208601611162565b610e44816111f5565b840191505092915050565b6000610e5c6026836110f0565b9150610e6782611206565b604082019050919050565b6000610e7f6020836110f0565b9150610e8a82611255565b602082019050919050565b600060e083016000830151610ead6000860182610dbf565b5060208301518482036020860152610ec58282610ddd565b91505060408301518482036040860152610edf8282610ddd565b9150506060830151610ef46060860182610db0565b506080830151610f076080860182610d92565b5060a0830151610f1a60a0860182610f38565b5060c0830151610f2d60c0860182610f38565b508091505092915050565b610f4181611149565b82525050565b610f5081611149565b82525050565b6000602082019050610f6b6000830184610da1565b92915050565b6000606082019050610f866000830186610da1565b8181036020830152610f988185610e16565b90508181036040830152610fac8184610e16565b9050949350505050565b6000602082019050610fcb6000830184610dce565b92915050565b6000604082019050610fe66000830185610dce565b8181036020830152610ff88184610e16565b90509392505050565b6000602082019050818103600083015261101a81610e4f565b9050919050565b6000602082019050818103600083015261103a81610e72565b9050919050565b6000602082019050818103600083015261105b8184610e95565b905092915050565b60006020820190506110786000830184610f47565b92915050565b6000611088611099565b90506110948282611195565b919050565b6000604051905090565b600067ffffffffffffffff8211156110be576110bd6111c6565b5b6110c7826111f5565b9050602081019050919050565b600081519050919050565b600082825260208201905092915050565b600082825260208201905092915050565b600061110c82611129565b9050919050565b60008115159050919050565b6000819050919050565b600073ffffffffffffffffffffffffffffffffffffffff82169050919050565b6000819050919050565b82818337600083830152505050565b60005b83811015611180578082015181840152602081019050611165565b8381111561118f576000848401525b50505050565b61119e826111f5565b810181811067ffffffffffffffff821117156111bd576111bc6111c6565b5b80604052505050565b7f4e487b7100000000000000000000000000000000000000000000000000000000600052604160045260246000fd5b6000601f19601f8301169050919050565b7f4f776e61626c653a206e6577206f776e657220697320746865207a65726f206160008201527f6464726573730000000000000000000000000000000000000000000000000000602082015250565b7f4f776e61626c653a2063616c6c6572206973206e6f7420746865206f776e6572600082015250565b61128781611101565b811461129257600080fd5b50565b61129e81611113565b81146112a957600080fd5b50565b6112b58161111f565b81146112c057600080fd5b50565b6112cc81611149565b81146112d757600080fd5b5056fea2646970667358221220a9387461c1042cd88f586cbc9f4e999dd85188cb12eaccf624255c4829451be164736f6c63430008040033",
  "linkReferences": {},
  "deployedLinkReferences": {}
}