{
  "_format": "hh-sol-artifact-1",
  "contractName": "Alexandria",
  "sourceName": "contracts/Alexandria.sol",
  "abi": [
    {
      "inputs": [
        {
          "internalType": "address",
          "name": "_tagLogicAddr",
          "type": "address"
        }
      ],
      "stateMutability": "nonpayable",
      "type": "constructor"
    },
    {
      "anonymous": false,
      "inputs": [
        {
          "indexed": true,
          "internalType": "address",
          "name": "previousOwner",
          "type": "address"
        },
        {
          "indexed": true,
          "internalType": "address",
          "name": "newOwner",
          "type": "address"
        }
      ],
      "name": "OwnershipTransferred",
      "type": "event"
    },
    {
      "inputs": [],
      "name": "countTags",
      "outputs": [
        {
          "internalType": "uint256",
          "name": "",
          "type": "uint256"
        }
      ],
      "stateMutability": "view",
      "type": "function"
    },
    {
      "inputs": [
        {
          "internalType": "string",
          "name": "name",
          "type": "string"
        },
        {
          "internalType": "string",
          "name": "description",
          "type": "string"
        }
      ],
      "name": "createTag",
      "outputs": [],
      "stateMutability": "nonpayable",
      "type": "function"
    },
    {
      "inputs": [
        {
          "internalType": "bytes32",
          "name": "id",
          "type": "bytes32"
        }
      ],
      "name": "deleteTagById",
      "outputs": [],
      "stateMutability": "nonpayable",
      "type": "function"
    },
    {
      "inputs": [
        {
          "internalType": "bytes32",
          "name": "id",
          "type": "bytes32"
        }
      ],
      "name": "getTagById",
      "outputs": [
        {
          "components": [
            {
              "internalType": "bytes32",
              "name": "id",
              "type": "bytes32"
            },
            {
              "internalType": "string",
              "name": "name",
              "type": "string"
            },
            {
              "internalType": "string",
              "name": "description",
              "type": "string"
            },
            {
              "internalType": "bool",
              "name": "deleted",
              "type": "bool"
            },
            {
              "internalType": "address",
              "name": "creator",
              "type": "address"
            }
          ],
          "internalType": "struct TagTypes.Tag",
          "name": "",
          "type": "tuple"
        }
      ],
      "stateMutability": "view",
      "type": "function"
    },
    {
      "inputs": [
        {
          "internalType": "uint256",
          "name": "index",
          "type": "uint256"
        }
      ],
      "name": "getTagByIndex",
      "outputs": [
        {
          "components": [
            {
              "internalType": "bytes32",
              "name": "id",
              "type": "bytes32"
            },
            {
              "internalType": "string",
              "name": "name",
              "type": "string"
            },
            {
              "internalType": "string",
              "name": "description",
              "type": "string"
            },
            {
              "internalType": "bool",
              "name": "deleted",
              "type": "bool"
            },
            {
              "internalType": "address",
              "name": "creator",
              "type": "address"
            }
          ],
          "internalType": "struct TagTypes.Tag",
          "name": "",
          "type": "tuple"
        }
      ],
      "stateMutability": "view",
      "type": "function"
    },
    {
      "inputs": [],
      "name": "owner",
      "outputs": [
        {
          "internalType": "address",
          "name": "",
          "type": "address"
        }
      ],
      "stateMutability": "view",
      "type": "function"
    },
    {
      "inputs": [],
      "name": "renounceOwnership",
      "outputs": [],
      "stateMutability": "nonpayable",
      "type": "function"
    },
    {
      "inputs": [
        {
          "internalType": "address",
          "name": "newOwner",
          "type": "address"
        }
      ],
      "name": "transferOwnership",
      "outputs": [],
      "stateMutability": "nonpayable",
      "type": "function"
    },
    {
      "inputs": [
        {
          "internalType": "bytes32",
          "name": "id",
          "type": "bytes32"
        },
        {
          "internalType": "string",
          "name": "description",
          "type": "string"
        }
      ],
      "name": "updateTagDescription",
      "outputs": [],
      "stateMutability": "nonpayable",
      "type": "function"
    },
    {
      "inputs": [
        {
          "internalType": "address",
          "name": "_tagLogicAddr",
          "type": "address"
        }
      ],
      "name": "upgradeTagLogic",
      "outputs": [],
      "stateMutability": "nonpayable",
      "type": "function"
    }
  ],
  "bytecode": "0x60806040523480156200001157600080fd5b50604051620014b1380380620014b1833981810160405281019062000037919062000182565b620000576200004b6200009f60201b60201c565b620000a760201b60201c565b80600160006101000a81548173ffffffffffffffffffffffffffffffffffffffff021916908373ffffffffffffffffffffffffffffffffffffffff16021790555050620001fc565b600033905090565b60008060009054906101000a900473ffffffffffffffffffffffffffffffffffffffff169050816000806101000a81548173ffffffffffffffffffffffffffffffffffffffff021916908373ffffffffffffffffffffffffffffffffffffffff1602179055508173ffffffffffffffffffffffffffffffffffffffff168173ffffffffffffffffffffffffffffffffffffffff167f8be0079c531659141344cd1fd0a4f28419497f9722a3daafe3b4186f6b6457e060405160405180910390a35050565b6000815190506200017c81620001e2565b92915050565b6000602082840312156200019557600080fd5b6000620001a5848285016200016b565b91505092915050565b6000620001bb82620001c2565b9050919050565b600073ffffffffffffffffffffffffffffffffffffffff82169050919050565b620001ed81620001ae565b8114620001f957600080fd5b50565b6112a5806200020c6000396000f3fe608060405234801561001057600080fd5b506004361061009e5760003560e01c80638da5cb5b116100665780638da5cb5b1461011d578063c1823dbb1461013b578063cd93cec514610159578063f2fde38b14610189578063fd69b8e4146101a55761009e565b8063223c3ee7146100a3578063250cae2d146100bf578063372d4768146100db5780636dd764cd146100f7578063715018a614610113575b600080fd5b6100bd60048036038101906100b89190610b8e565b6101d5565b005b6100d960048036038101906100d49190610c09565b610295565b005b6100f560048036038101906100f09190610c5d565b610349565b005b610111600480360381019061010c9190610be0565b6103ff565b005b61011b61048f565b005b610125610517565b6040516101329190610eeb565b60405180910390f35b610143610540565b6040516101509190610ff8565b60405180910390f35b610173600480360381019061016e9190610be0565b6105e7565b6040516101809190610fd6565b60405180910390f35b6101a3600480360381019061019e9190610b8e565b6106a6565b005b6101bf60048036038101906101ba9190610d0a565b61079e565b6040516101cc9190610fd6565b60405180910390f35b6101dd61085d565b73ffffffffffffffffffffffffffffffffffffffff166101fb610517565b73ffffffffffffffffffffffffffffffffffffffff1614610251576040517f08c379a000000000000000000000000000000000000000000000000000000000815260040161024890610fb6565b60405180910390fd5b80600160006101000a81548173ffffffffffffffffffffffffffffffffffffffff021916908373ffffffffffffffffffffffffffffffffffffffff16021790555050565b600160009054906101000a900473ffffffffffffffffffffffffffffffffffffffff1673ffffffffffffffffffffffffffffffffffffffff16631568bb4a83836040518363ffffffff1660e01b81526004016102f2929190610f66565b602060405180830381600087803b15801561030c57600080fd5b505af1158015610320573d6000803e3d6000fd5b505050506040513d601f19601f820116820180604052508101906103449190610bb7565b505050565b600160009054906101000a900473ffffffffffffffffffffffffffffffffffffffff1673ffffffffffffffffffffffffffffffffffffffff1663796d58363384846040518463ffffffff1660e01b81526004016103a893929190610f06565b602060405180830381600087803b1580156103c257600080fd5b505af11580156103d6573d6000803e3d6000fd5b505050506040513d601f19601f820116820180604052508101906103fa9190610bb7565b505050565b600160009054906101000a900473ffffffffffffffffffffffffffffffffffffffff1673ffffffffffffffffffffffffffffffffffffffff16630735211f826040518263ffffffff1660e01b815260040161045a9190610f4b565b600060405180830381600087803b15801561047457600080fd5b505af1158015610488573d6000803e3d6000fd5b5050505050565b61049761085d565b73ffffffffffffffffffffffffffffffffffffffff166104b5610517565b73ffffffffffffffffffffffffffffffffffffffff161461050b576040517f08c379a000000000000000000000000000000000000000000000000000000000815260040161050290610fb6565b60405180910390fd5b6105156000610865565b565b60008060009054906101000a900473ffffffffffffffffffffffffffffffffffffffff16905090565b6000600160009054906101000a900473ffffffffffffffffffffffffffffffffffffffff1673ffffffffffffffffffffffffffffffffffffffff166306661abd6040518163ffffffff1660e01b815260040160206040518083038186803b1580156105aa57600080fd5b505afa1580156105be573d6000803e3d6000fd5b505050506040513d601f19601f820116820180604052508101906105e29190610d33565b905090565b6105ef610929565b600160009054906101000a900473ffffffffffffffffffffffffffffffffffffffff1673ffffffffffffffffffffffffffffffffffffffff16632dff0d0d836040518263ffffffff1660e01b815260040161064a9190610f4b565b60006040518083038186803b15801561066257600080fd5b505afa158015610676573d6000803e3d6000fd5b505050506040513d6000823e3d601f19601f8201168201806040525081019061069f9190610cc9565b9050919050565b6106ae61085d565b73ffffffffffffffffffffffffffffffffffffffff166106cc610517565b73ffffffffffffffffffffffffffffffffffffffff1614610722576040517f08c379a000000000000000000000000000000000000000000000000000000000815260040161071990610fb6565b60405180910390fd5b600073ffffffffffffffffffffffffffffffffffffffff168173ffffffffffffffffffffffffffffffffffffffff161415610792576040517f08c379a000000000000000000000000000000000000000000000000000000000815260040161078990610f96565b60405180910390fd5b61079b81610865565b50565b6107a6610929565b600160009054906101000a900473ffffffffffffffffffffffffffffffffffffffff1673ffffffffffffffffffffffffffffffffffffffff16632d883a73836040518263ffffffff1660e01b81526004016108019190610ff8565b60006040518083038186803b15801561081957600080fd5b505afa15801561082d573d6000803e3d6000fd5b505050506040513d6000823e3d601f19601f820116820180604052508101906108569190610cc9565b9050919050565b600033905090565b60008060009054906101000a900473ffffffffffffffffffffffffffffffffffffffff169050816000806101000a81548173ffffffffffffffffffffffffffffffffffffffff021916908373ffffffffffffffffffffffffffffffffffffffff1602179055508173ffffffffffffffffffffffffffffffffffffffff168173ffffffffffffffffffffffffffffffffffffffff167f8be0079c531659141344cd1fd0a4f28419497f9722a3daafe3b4186f6b6457e060405160405180910390a35050565b6040518060a00160405280600080191681526020016060815260200160608152602001600015158152602001600073ffffffffffffffffffffffffffffffffffffffff1681525090565b600061098661098184611038565b611013565b90508281526020810184848401111561099e57600080fd5b6109a98482856110e8565b509392505050565b60006109c46109bf84611038565b611013565b9050828152602081018484840111156109dc57600080fd5b6109e78482856110f7565b509392505050565b6000813590506109fe81611213565b92915050565b600081519050610a1381611213565b92915050565b600081519050610a288161122a565b92915050565b600081359050610a3d81611241565b92915050565b600081519050610a5281611241565b92915050565b600082601f830112610a6957600080fd5b8135610a79848260208601610973565b91505092915050565b600082601f830112610a9357600080fd5b8151610aa38482602086016109b1565b91505092915050565b600060a08284031215610abe57600080fd5b610ac860a0611013565b90506000610ad884828501610a43565b600083015250602082015167ffffffffffffffff811115610af857600080fd5b610b0484828501610a82565b602083015250604082015167ffffffffffffffff811115610b2457600080fd5b610b3084828501610a82565b6040830152506060610b4484828501610a19565b6060830152506080610b5884828501610a04565b60808301525092915050565b600081359050610b7381611258565b92915050565b600081519050610b8881611258565b92915050565b600060208284031215610ba057600080fd5b6000610bae848285016109ef565b91505092915050565b600060208284031215610bc957600080fd5b6000610bd784828501610a19565b91505092915050565b600060208284031215610bf257600080fd5b6000610c0084828501610a2e565b91505092915050565b60008060408385031215610c1c57600080fd5b6000610c2a85828601610a2e565b925050602083013567ffffffffffffffff811115610c4757600080fd5b610c5385828601610a58565b9150509250929050565b60008060408385031215610c7057600080fd5b600083013567ffffffffffffffff811115610c8a57600080fd5b610c9685828601610a58565b925050602083013567ffffffffffffffff811115610cb357600080fd5b610cbf85828601610a58565b9150509250929050565b600060208284031215610cdb57600080fd5b600082015167ffffffffffffffff811115610cf557600080fd5b610d0184828501610aac565b91505092915050565b600060208284031215610d1c57600080fd5b6000610d2a84828501610b64565b91505092915050565b600060208284031215610d4557600080fd5b6000610d5384828501610b79565b91505092915050565b610d6581611096565b82525050565b610d7481611096565b82525050565b610d83816110a8565b82525050565b610d92816110b4565b82525050565b610da1816110b4565b82525050565b6000610db282611069565b610dbc8185611074565b9350610dcc8185602086016110f7565b610dd58161118a565b840191505092915050565b6000610deb82611069565b610df58185611085565b9350610e058185602086016110f7565b610e0e8161118a565b840191505092915050565b6000610e26602683611085565b9150610e318261119b565b604082019050919050565b6000610e49602083611085565b9150610e54826111ea565b602082019050919050565b600060a083016000830151610e776000860182610d89565b5060208301518482036020860152610e8f8282610da7565b91505060408301518482036040860152610ea98282610da7565b9150506060830151610ebe6060860182610d7a565b506080830151610ed16080860182610d5c565b508091505092915050565b610ee5816110de565b82525050565b6000602082019050610f006000830184610d6b565b92915050565b6000606082019050610f1b6000830186610d6b565b8181036020830152610f2d8185610de0565b90508181036040830152610f418184610de0565b9050949350505050565b6000602082019050610f606000830184610d98565b92915050565b6000604082019050610f7b6000830185610d98565b8181036020830152610f8d8184610de0565b90509392505050565b60006020820190508181036000830152610faf81610e19565b9050919050565b60006020820190508181036000830152610fcf81610e3c565b9050919050565b60006020820190508181036000830152610ff08184610e5f565b905092915050565b600060208201905061100d6000830184610edc565b92915050565b600061101d61102e565b9050611029828261112a565b919050565b6000604051905090565b600067ffffffffffffffff8211156110535761105261115b565b5b61105c8261118a565b9050602081019050919050565b600081519050919050565b600082825260208201905092915050565b600082825260208201905092915050565b60006110a1826110be565b9050919050565b60008115159050919050565b6000819050919050565b600073ffffffffffffffffffffffffffffffffffffffff82169050919050565b6000819050919050565b82818337600083830152505050565b60005b838110156111155780820151818401526020810190506110fa565b83811115611124576000848401525b50505050565b6111338261118a565b810181811067ffffffffffffffff821117156111525761115161115b565b5b80604052505050565b7f4e487b7100000000000000000000000000000000000000000000000000000000600052604160045260246000fd5b6000601f19601f8301169050919050565b7f4f776e61626c653a206e6577206f776e657220697320746865207a65726f206160008201527f6464726573730000000000000000000000000000000000000000000000000000602082015250565b7f4f776e61626c653a2063616c6c6572206973206e6f7420746865206f776e6572600082015250565b61121c81611096565b811461122757600080fd5b50565b611233816110a8565b811461123e57600080fd5b50565b61124a816110b4565b811461125557600080fd5b50565b611261816110de565b811461126c57600080fd5b5056fea26469706673582212201fc22053df083a5446535a3ee86afe3b03996753470f55b4ccde3831528cb5be64736f6c63430008040033",
  "linkReferences": {},
  "deployedLinkReferences": {}
}