{
  "_format": "hh-sol-artifact-1",
  "contractName": "QuestionStore",
  "sourceName": "contracts/question/QuestionStore.sol",
  "abi": [
    {
      "anonymous": false,
      "inputs": [
        {
          "indexed": true,
          "internalType": "address",
          "name": "previousOwner",
          "type": "address"
        },
        {
          "indexed": true,
          "internalType": "address",
          "name": "newOwner",
          "type": "address"
        }
      ],
      "name": "OwnershipTransferred",
      "type": "event"
    },
    {
      "anonymous": false,
      "inputs": [
        {
          "components": [
            {
              "internalType": "bytes32",
              "name": "id",
              "type": "bytes32"
            },
            {
              "internalType": "string",
              "name": "title",
              "type": "string"
            },
            {
              "internalType": "string",
              "name": "body",
              "type": "string"
            },
            {
              "internalType": "address",
              "name": "creator",
              "type": "address"
            },
            {
              "internalType": "bool",
              "name": "deleted",
              "type": "bool"
            },
            {
              "internalType": "string[]",
              "name": "tags",
              "type": "string[]"
            }
          ],
          "indexed": false,
          "internalType": "struct QuestionTypes.Question",
          "name": "question",
          "type": "tuple"
        }
      ],
      "name": "QuestionCreated",
      "type": "event"
    },
    {
      "anonymous": false,
      "inputs": [
        {
          "components": [
            {
              "internalType": "bytes32",
              "name": "id",
              "type": "bytes32"
            },
            {
              "internalType": "string",
              "name": "title",
              "type": "string"
            },
            {
              "internalType": "string",
              "name": "body",
              "type": "string"
            },
            {
              "internalType": "address",
              "name": "creator",
              "type": "address"
            },
            {
              "internalType": "bool",
              "name": "deleted",
              "type": "bool"
            },
            {
              "internalType": "string[]",
              "name": "tags",
              "type": "string[]"
            }
          ],
          "indexed": false,
          "internalType": "struct QuestionTypes.Question",
          "name": "question",
          "type": "tuple"
        }
      ],
      "name": "QuestionDeleted",
      "type": "event"
    },
    {
      "anonymous": false,
      "inputs": [
        {
          "components": [
            {
              "internalType": "bytes32",
              "name": "id",
              "type": "bytes32"
            },
            {
              "internalType": "string",
              "name": "title",
              "type": "string"
            },
            {
              "internalType": "string",
              "name": "body",
              "type": "string"
            },
            {
              "internalType": "address",
              "name": "creator",
              "type": "address"
            },
            {
              "internalType": "bool",
              "name": "deleted",
              "type": "bool"
            },
            {
              "internalType": "string[]",
              "name": "tags",
              "type": "string[]"
            }
          ],
          "indexed": false,
          "internalType": "struct QuestionTypes.Question",
          "name": "question",
          "type": "tuple"
        }
      ],
      "name": "QuestionUpdated",
      "type": "event"
    },
    {
      "inputs": [],
      "name": "count",
      "outputs": [
        {
          "internalType": "uint256",
          "name": "",
          "type": "uint256"
        }
      ],
      "stateMutability": "view",
      "type": "function"
    },
    {
      "inputs": [
        {
          "components": [
            {
              "internalType": "bytes32",
              "name": "id",
              "type": "bytes32"
            },
            {
              "internalType": "string",
              "name": "title",
              "type": "string"
            },
            {
              "internalType": "string",
              "name": "body",
              "type": "string"
            },
            {
              "internalType": "address",
              "name": "creator",
              "type": "address"
            },
            {
              "internalType": "bool",
              "name": "deleted",
              "type": "bool"
            },
            {
              "internalType": "string[]",
              "name": "tags",
              "type": "string[]"
            }
          ],
          "internalType": "struct QuestionTypes.Question",
          "name": "question",
          "type": "tuple"
        }
      ],
      "name": "create",
      "outputs": [
        {
          "internalType": "bool",
          "name": "success",
          "type": "bool"
        }
      ],
      "stateMutability": "nonpayable",
      "type": "function"
    },
    {
      "inputs": [
        {
          "internalType": "address",
          "name": "caller",
          "type": "address"
        },
        {
          "internalType": "bytes32",
          "name": "id",
          "type": "bytes32"
        }
      ],
      "name": "deleteById",
      "outputs": [
        {
          "internalType": "bool",
          "name": "success",
          "type": "bool"
        }
      ],
      "stateMutability": "nonpayable",
      "type": "function"
    },
    {
      "inputs": [
        {
          "internalType": "bytes32",
          "name": "id",
          "type": "bytes32"
        }
      ],
      "name": "getById",
      "outputs": [
        {
          "components": [
            {
              "internalType": "bytes32",
              "name": "id",
              "type": "bytes32"
            },
            {
              "internalType": "string",
              "name": "title",
              "type": "string"
            },
            {
              "internalType": "string",
              "name": "body",
              "type": "string"
            },
            {
              "internalType": "address",
              "name": "creator",
              "type": "address"
            },
            {
              "internalType": "bool",
              "name": "deleted",
              "type": "bool"
            },
            {
              "internalType": "string[]",
              "name": "tags",
              "type": "string[]"
            }
          ],
          "internalType": "struct QuestionTypes.Question",
          "name": "",
          "type": "tuple"
        }
      ],
      "stateMutability": "view",
      "type": "function"
    },
    {
      "inputs": [
        {
          "internalType": "uint256",
          "name": "index",
          "type": "uint256"
        }
      ],
      "name": "getByIndex",
      "outputs": [
        {
          "components": [
            {
              "internalType": "bytes32",
              "name": "id",
              "type": "bytes32"
            },
            {
              "internalType": "string",
              "name": "title",
              "type": "string"
            },
            {
              "internalType": "string",
              "name": "body",
              "type": "string"
            },
            {
              "internalType": "address",
              "name": "creator",
              "type": "address"
            },
            {
              "internalType": "bool",
              "name": "deleted",
              "type": "bool"
            },
            {
              "internalType": "string[]",
              "name": "tags",
              "type": "string[]"
            }
          ],
          "internalType": "struct QuestionTypes.Question",
          "name": "",
          "type": "tuple"
        }
      ],
      "stateMutability": "view",
      "type": "function"
    },
    {
      "inputs": [],
      "name": "owner",
      "outputs": [
        {
          "internalType": "address",
          "name": "",
          "type": "address"
        }
      ],
      "stateMutability": "view",
      "type": "function"
    },
    {
      "inputs": [],
      "name": "renounceOwnership",
      "outputs": [],
      "stateMutability": "nonpayable",
      "type": "function"
    },
    {
      "inputs": [
        {
          "internalType": "address",
          "name": "newOwner",
          "type": "address"
        }
      ],
      "name": "transferOwnership",
      "outputs": [],
      "stateMutability": "nonpayable",
      "type": "function"
    },
    {
      "inputs": [
        {
          "internalType": "address",
          "name": "caller",
          "type": "address"
        },
        {
          "internalType": "bytes32",
          "name": "id",
          "type": "bytes32"
        },
        {
          "internalType": "string",
          "name": "title",
          "type": "string"
        },
        {
          "internalType": "string",
          "name": "body",
          "type": "string"
        },
        {
          "internalType": "string[]",
          "name": "tags",
          "type": "string[]"
        }
      ],
      "name": "update",
      "outputs": [
        {
          "internalType": "bool",
          "name": "success",
          "type": "bool"
        }
      ],
      "stateMutability": "nonpayable",
      "type": "function"
    },
    {
      "inputs": [
        {
          "internalType": "address",
          "name": "_logicAddress",
          "type": "address"
        }
      ],
      "name": "upgradeLogic",
      "outputs": [],
      "stateMutability": "nonpayable",
      "type": "function"
    }
  ],
  "bytecode": "0x60806040523480156200001157600080fd5b5062000032620000266200003860201b60201c565b6200004060201b60201c565b62000104565b600033905090565b60008060009054906101000a900473ffffffffffffffffffffffffffffffffffffffff169050816000806101000a81548173ffffffffffffffffffffffffffffffffffffffff021916908373ffffffffffffffffffffffffffffffffffffffff1602179055508173ffffffffffffffffffffffffffffffffffffffff168173ffffffffffffffffffffffffffffffffffffffff167f8be0079c531659141344cd1fd0a4f28419497f9722a3daafe3b4186f6b6457e060405160405180910390a35050565b61285c80620001146000396000f3fe608060405234801561001057600080fd5b506004361061009e5760003560e01c80638da5cb5b116100665780638da5cb5b1461015b57806391a7600d146101795780639de5ec4c146101a9578063f2fde38b146101d9578063f63d13b5146101f55761009e565b806306661abd146100a35780632d883a73146100c15780632dff0d0d146100f1578063715018a6146101215780637d0f5ce31461012b575b600080fd5b6100ab610211565b6040516100b8919061232a565b60405180910390f35b6100db60048036038101906100d69190611dcd565b6102ae565b6040516100e891906122e6565b60405180910390f35b61010b60048036038101906101069190611d63565b610671565b60405161011891906122e6565b60405180910390f35b6101296109f1565b005b61014560048036038101906101409190611c68565b610a79565b604051610152919061222b565b60405180910390f35b610163611040565b6040516101709190612210565b60405180910390f35b610193600480360381019061018e9190611d8c565b611069565b6040516101a0919061222b565b60405180910390f35b6101c360048036038101906101be9190611ca4565b6112d2565b6040516101d0919061222b565b60405180910390f35b6101f360048036038101906101ee9190611c3f565b611536565b005b61020f600480360381019061020a9190611c3f565b61162e565b005b6000600360009054906101000a900473ffffffffffffffffffffffffffffffffffffffff1673ffffffffffffffffffffffffffffffffffffffff163373ffffffffffffffffffffffffffffffffffffffff16146102a3576040517f08c379a000000000000000000000000000000000000000000000000000000000815260040161029a90612246565b60405180910390fd5b600280549050905090565b6102b6611837565b600360009054906101000a900473ffffffffffffffffffffffffffffffffffffffff1673ffffffffffffffffffffffffffffffffffffffff163373ffffffffffffffffffffffffffffffffffffffff1614610346576040517f08c379a000000000000000000000000000000000000000000000000000000000815260040161033d90612246565b60405180910390fd5b600280549050821061038d576040517f08c379a0000000000000000000000000000000000000000000000000000000008152600401610384906122c6565b60405180910390fd5b60016000600284815481106103cb577f4e487b7100000000000000000000000000000000000000000000000000000000600052603260045260246000fd5b906000526020600020015481526020019081526020016000206000016040518060c00160405290816000820154815260200160018201805461040c9061256e565b80601f01602080910402602001604051908101604052809291908181526020018280546104389061256e565b80156104855780601f1061045a57610100808354040283529160200191610485565b820191906000526020600020905b81548152906001019060200180831161046857829003601f168201915b5050505050815260200160028201805461049e9061256e565b80601f01602080910402602001604051908101604052809291908181526020018280546104ca9061256e565b80156105175780601f106104ec57610100808354040283529160200191610517565b820191906000526020600020905b8154815290600101906020018083116104fa57829003601f168201915b505050505081526020016003820160009054906101000a900473ffffffffffffffffffffffffffffffffffffffff1673ffffffffffffffffffffffffffffffffffffffff1673ffffffffffffffffffffffffffffffffffffffff1681526020016003820160149054906101000a900460ff1615151515815260200160048201805480602002602001604051908101604052809291908181526020016000905b828210156106625783829060005260206000200180546105d59061256e565b80601f01602080910402602001604051908101604052809291908181526020018280546106019061256e565b801561064e5780601f106106235761010080835404028352916020019161064e565b820191906000526020600020905b81548152906001019060200180831161063157829003601f168201915b5050505050815260200190600101906105b6565b50505050815250509050919050565b610679611837565b600360009054906101000a900473ffffffffffffffffffffffffffffffffffffffff1673ffffffffffffffffffffffffffffffffffffffff163373ffffffffffffffffffffffffffffffffffffffff1614610709576040517f08c379a000000000000000000000000000000000000000000000000000000000815260040161070090612246565b60405180910390fd5b610712826116ee565b610751576040517f08c379a0000000000000000000000000000000000000000000000000000000008152600401610748906122c6565b60405180910390fd5b600160008381526020019081526020016000206000016040518060c00160405290816000820154815260200160018201805461078c9061256e565b80601f01602080910402602001604051908101604052809291908181526020018280546107b89061256e565b80156108055780601f106107da57610100808354040283529160200191610805565b820191906000526020600020905b8154815290600101906020018083116107e857829003601f168201915b5050505050815260200160028201805461081e9061256e565b80601f016020809104026020016040519081016040528092919081815260200182805461084a9061256e565b80156108975780601f1061086c57610100808354040283529160200191610897565b820191906000526020600020905b81548152906001019060200180831161087a57829003601f168201915b505050505081526020016003820160009054906101000a900473ffffffffffffffffffffffffffffffffffffffff1673ffffffffffffffffffffffffffffffffffffffff1673ffffffffffffffffffffffffffffffffffffffff1681526020016003820160149054906101000a900460ff1615151515815260200160048201805480602002602001604051908101604052809291908181526020016000905b828210156109e25783829060005260206000200180546109559061256e565b80601f01602080910402602001604051908101604052809291908181526020018280546109819061256e565b80156109ce5780601f106109a3576101008083540402835291602001916109ce565b820191906000526020600020905b8154815290600101906020018083116109b157829003601f168201915b505050505081526020019060010190610936565b50505050815250509050919050565b6109f961176b565b73ffffffffffffffffffffffffffffffffffffffff16610a17611040565b73ffffffffffffffffffffffffffffffffffffffff1614610a6d576040517f08c379a0000000000000000000000000000000000000000000000000000000008152600401610a64906122a6565b60405180910390fd5b610a776000611773565b565b6000600360009054906101000a900473ffffffffffffffffffffffffffffffffffffffff1673ffffffffffffffffffffffffffffffffffffffff163373ffffffffffffffffffffffffffffffffffffffff1614610b0b576040517f08c379a0000000000000000000000000000000000000000000000000000000008152600401610b0290612246565b60405180910390fd5b610b14826116ee565b610b53576040517f08c379a0000000000000000000000000000000000000000000000000000000008152600401610b4a906122c6565b60405180910390fd5b8273ffffffffffffffffffffffffffffffffffffffff166001600084815260200190815260200160002060000160030160009054906101000a900473ffffffffffffffffffffffffffffffffffffffff1673ffffffffffffffffffffffffffffffffffffffff1614610bfa576040517f08c379a0000000000000000000000000000000000000000000000000000000008152600401610bf190612246565b60405180910390fd5b600060016000848152602001908152602001600020604051806040016040529081600082016040518060c001604052908160008201548152602001600182018054610c449061256e565b80601f0160208091040260200160405190810160405280929190818152602001828054610c709061256e565b8015610cbd5780601f10610c9257610100808354040283529160200191610cbd565b820191906000526020600020905b815481529060010190602001808311610ca057829003601f168201915b50505050508152602001600282018054610cd69061256e565b80601f0160208091040260200160405190810160405280929190818152602001828054610d029061256e565b8015610d4f5780601f10610d2457610100808354040283529160200191610d4f565b820191906000526020600020905b815481529060010190602001808311610d3257829003601f168201915b505050505081526020016003820160009054906101000a900473ffffffffffffffffffffffffffffffffffffffff1673ffffffffffffffffffffffffffffffffffffffff1673ffffffffffffffffffffffffffffffffffffffff1681526020016003820160149054906101000a900460ff1615151515815260200160048201805480602002602001604051908101604052809291908181526020016000905b82821015610e9a578382906000526020600020018054610e0d9061256e565b80601f0160208091040260200160405190810160405280929190818152602001828054610e399061256e565b8015610e865780601f10610e5b57610100808354040283529160200191610e86565b820191906000526020600020905b815481529060010190602001808311610e6957829003601f168201915b505050505081526020019060010190610dee565b505050508152505081526020016005820154815250509050600081602001519050600060026001600280549050610ed1919061246f565b81548110610f08577f4e487b7100000000000000000000000000000000000000000000000000000000600052603260045260246000fd5b906000526020600020015490508060028381548110610f50577f4e487b7100000000000000000000000000000000000000000000000000000000600052603260045260246000fd5b9060005260206000200181905550816001600083815260200190815260200160002060050181905550600180600083815260200190815260200160002060000160030160146101000a81548160ff0219169083151502179055506002805480610fe2577f4e487b7100000000000000000000000000000000000000000000000000000000600052603160045260246000fd5b600190038181906000526020600020016000905590557fb94ba8d8c21a94451317325388f1835948a3672707759ff2c5c989259183d64a836000015160405161102b91906122e6565b60405180910390a16001935050505092915050565b60008060009054906101000a900473ffffffffffffffffffffffffffffffffffffffff16905090565b6000600360009054906101000a900473ffffffffffffffffffffffffffffffffffffffff1673ffffffffffffffffffffffffffffffffffffffff163373ffffffffffffffffffffffffffffffffffffffff16146110fb576040517f08c379a00000000000000000000000000000000000000000000000000000000081526004016110f290612246565b60405180910390fd5b61110882600001516116ee565b15611148576040517f08c379a000000000000000000000000000000000000000000000000000000000815260040161113f90612286565b60405180910390fd5b60028260000151908060018154018082558091505060019003906000526020600020016000909190919091505560405180604001604052808381526020016001600280549050611198919061246f565b81525060016000846000015181526020019081526020016000206000820151816000016000820151816000015560208201518160010190805190602001906111e1929190611888565b5060408201518160020190805190602001906111fe929190611888565b5060608201518160030160006101000a81548173ffffffffffffffffffffffffffffffffffffffff021916908373ffffffffffffffffffffffffffffffffffffffff16021790555060808201518160030160146101000a81548160ff02191690831515021790555060a082015181600401908051906020019061128292919061190e565b505050602082015181600501559050507f23a5ae9ab81a8c966e7266a323a602d0909b5aad4ee4bacc4da663ce1a2c7af0826040516112c191906122e6565b60405180910390a160019050919050565b6000600360009054906101000a900473ffffffffffffffffffffffffffffffffffffffff1673ffffffffffffffffffffffffffffffffffffffff163373ffffffffffffffffffffffffffffffffffffffff1614611364576040517f08c379a000000000000000000000000000000000000000000000000000000000815260040161135b90612246565b60405180910390fd5b61136d856116ee565b6113ac576040517f08c379a00000000000000000000000000000000000000000000000000000000081526004016113a3906122c6565b60405180910390fd5b8573ffffffffffffffffffffffffffffffffffffffff166001600087815260200190815260200160002060000160030160009054906101000a900473ffffffffffffffffffffffffffffffffffffffff1673ffffffffffffffffffffffffffffffffffffffff1614611453576040517f08c379a000000000000000000000000000000000000000000000000000000000815260040161144a90612246565b60405180910390fd5b83600160008781526020019081526020016000206000016001019080519060200190611480929190611888565b50826001600087815260200190815260200160002060000160020190805190602001906114ae929190611888565b50816001600087815260200190815260200160002060000160040190805190602001906114dc92919061190e565b507fe5e2bb8f8a31d1b04d5d3e54ee38e3c9034740bdd9600b1e34939ac35d2674e9600160008781526020019081526020016000206000016040516115219190612308565b60405180910390a16001905095945050505050565b61153e61176b565b73ffffffffffffffffffffffffffffffffffffffff1661155c611040565b73ffffffffffffffffffffffffffffffffffffffff16146115b2576040517f08c379a00000000000000000000000000000000000000000000000000000000081526004016115a9906122a6565b60405180910390fd5b600073ffffffffffffffffffffffffffffffffffffffff168173ffffffffffffffffffffffffffffffffffffffff161415611622576040517f08c379a000000000000000000000000000000000000000000000000000000000815260040161161990612266565b60405180910390fd5b61162b81611773565b50565b61163661176b565b73ffffffffffffffffffffffffffffffffffffffff16611654611040565b73ffffffffffffffffffffffffffffffffffffffff16146116aa576040517f08c379a00000000000000000000000000000000000000000000000000000000081526004016116a1906122a6565b60405180910390fd5b80600360006101000a81548173ffffffffffffffffffffffffffffffffffffffff021916908373ffffffffffffffffffffffffffffffffffffffff16021790555050565b60008060028054905014156117065760009050611766565b816002600160008581526020019081526020016000206005015481548110611757577f4e487b7100000000000000000000000000000000000000000000000000000000600052603260045260246000fd5b90600052602060002001541490505b919050565b600033905090565b60008060009054906101000a900473ffffffffffffffffffffffffffffffffffffffff169050816000806101000a81548173ffffffffffffffffffffffffffffffffffffffff021916908373ffffffffffffffffffffffffffffffffffffffff1602179055508173ffffffffffffffffffffffffffffffffffffffff168173ffffffffffffffffffffffffffffffffffffffff167f8be0079c531659141344cd1fd0a4f28419497f9722a3daafe3b4186f6b6457e060405160405180910390a35050565b6040518060c00160405280600080191681526020016060815260200160608152602001600073ffffffffffffffffffffffffffffffffffffffff168152602001600015158152602001606081525090565b8280546118949061256e565b90600052602060002090601f0160209004810192826118b657600085556118fd565b82601f106118cf57805160ff19168380011785556118fd565b828001600101855582156118fd579182015b828111156118fc5782518255916020019190600101906118e1565b5b50905061190a919061196e565b5090565b82805482825590600052602060002090810192821561195d579160200282015b8281111561195c57825182908051906020019061194c929190611888565b509160200191906001019061192e565b5b50905061196a919061198b565b5090565b5b8082111561198757600081600090555060010161196f565b5090565b5b808211156119ab57600081816119a291906119af565b5060010161198c565b5090565b5080546119bb9061256e565b6000825580601f106119cd57506119ec565b601f0160209004906000526020600020908101906119eb919061196e565b5b50565b6000611a026119fd8461236a565b612345565b90508083825260208201905082856020860282011115611a2157600080fd5b60005b85811015611a6b57813567ffffffffffffffff811115611a4357600080fd5b808601611a508982611b1c565b85526020850194506020840193505050600181019050611a24565b5050509392505050565b6000611a88611a8384612396565b612345565b905082815260208101848484011115611aa057600080fd5b611aab84828561252c565b509392505050565b600081359050611ac2816127ca565b92915050565b600082601f830112611ad957600080fd5b8135611ae98482602086016119ef565b91505092915050565b600081359050611b01816127e1565b92915050565b600081359050611b16816127f8565b92915050565b600082601f830112611b2d57600080fd5b8135611b3d848260208601611a75565b91505092915050565b600060c08284031215611b5857600080fd5b611b6260c0612345565b90506000611b7284828501611b07565b600083015250602082013567ffffffffffffffff811115611b9257600080fd5b611b9e84828501611b1c565b602083015250604082013567ffffffffffffffff811115611bbe57600080fd5b611bca84828501611b1c565b6040830152506060611bde84828501611ab3565b6060830152506080611bf284828501611af2565b60808301525060a082013567ffffffffffffffff811115611c1257600080fd5b611c1e84828501611ac8565b60a08301525092915050565b600081359050611c398161280f565b92915050565b600060208284031215611c5157600080fd5b6000611c5f84828501611ab3565b91505092915050565b60008060408385031215611c7b57600080fd5b6000611c8985828601611ab3565b9250506020611c9a85828601611b07565b9150509250929050565b600080600080600060a08688031215611cbc57600080fd5b6000611cca88828901611ab3565b9550506020611cdb88828901611b07565b945050604086013567ffffffffffffffff811115611cf857600080fd5b611d0488828901611b1c565b935050606086013567ffffffffffffffff811115611d2157600080fd5b611d2d88828901611b1c565b925050608086013567ffffffffffffffff811115611d4a57600080fd5b611d5688828901611ac8565b9150509295509295909350565b600060208284031215611d7557600080fd5b6000611d8384828501611b07565b91505092915050565b600060208284031215611d9e57600080fd5b600082013567ffffffffffffffff811115611db857600080fd5b611dc484828501611b46565b91505092915050565b600060208284031215611ddf57600080fd5b6000611ded84828501611c2a565b91505092915050565b6000611e028383611f52565b905092915050565b6000611e168383611f8b565b905092915050565b611e27816124da565b82525050565b611e36816124da565b82525050565b6000611e4782612401565b611e51818561243c565b935083602082028501611e63856123c7565b8060005b85811015611e9f5784840389528151611e808582611df6565b9450611e8b83612422565b925060208a01995050600181019050611e67565b50829750879550505050505092915050565b6000611ebc8261240c565b611ec6818561243c565b935083602082028501611ed8856123d7565b8060005b85811015611f1357848403895281611ef48582611e0a565b9450611eff8361242f565b925060208a01995050600181019050611edc565b50829750879550505050505092915050565b611f2e816124ec565b82525050565b611f3d816124ec565b82525050565b611f4c816124f8565b82525050565b6000611f5d82612417565b611f67818561244d565b9350611f7781856020860161253b565b611f80816126ac565b840191505092915050565b60008154611f988161256e565b611fa2818661244d565b94506001821660008114611fbd5760018114611fcf57612002565b60ff1983168652602086019350612002565b611fd8856123ec565b60005b83811015611ffa57815481890152600182019150602081019050611fdb565b808801955050505b50505092915050565b600061201860038361245e565b9150612023826126d7565b602082019050919050565b600061203b60268361245e565b915061204682612700565b604082019050919050565b600061205e60038361245e565b91506120698261274f565b602082019050919050565b600061208160208361245e565b915061208c82612778565b602082019050919050565b60006120a460038361245e565b91506120af826127a1565b602082019050919050565b600060c0830160008301516120d26000860182611f43565b50602083015184820360208601526120ea8282611f52565b915050604083015184820360408601526121048282611f52565b91505060608301516121196060860182611e1e565b50608083015161212c6080860182611f25565b5060a083015184820360a08601526121448282611e3c565b9150508091505092915050565b600060c083016000808401549050612168816125ba565b6121756000870182611f43565b5060018401858303602087015261218c8382611f8b565b9250506002840185830360408701526121a58382611f8b565b925050600384015490506121b8816125a0565b6121c56060870182611e1e565b506121cf816125d4565b6121dc6080870182611f25565b506004840185830360a08701526121f38382611eb1565b925050819250505092915050565b61220a81612522565b82525050565b60006020820190506122256000830184611e2d565b92915050565b60006020820190506122406000830184611f34565b92915050565b6000602082019050818103600083015261225f8161200b565b9050919050565b6000602082019050818103600083015261227f8161202e565b9050919050565b6000602082019050818103600083015261229f81612051565b9050919050565b600060208201905081810360008301526122bf81612074565b9050919050565b600060208201905081810360008301526122df81612097565b9050919050565b6000602082019050818103600083015261230081846120ba565b905092915050565b600060208201905081810360008301526123228184612151565b905092915050565b600060208201905061233f6000830184612201565b92915050565b600061234f612360565b905061235b82826125ee565b919050565b6000604051905090565b600067ffffffffffffffff8211156123855761238461267d565b5b602082029050602081019050919050565b600067ffffffffffffffff8211156123b1576123b061267d565b5b6123ba826126ac565b9050602081019050919050565b6000819050602082019050919050565b60008190508160005260206000209050919050565b60008190508160005260206000209050919050565b600081519050919050565b600081549050919050565b600081519050919050565b6000602082019050919050565b6000600182019050919050565b600082825260208201905092915050565b600082825260208201905092915050565b600082825260208201905092915050565b600061247a82612522565b915061248583612522565b9250828210156124985761249761261f565b5b828203905092915050565b600073ffffffffffffffffffffffffffffffffffffffff82169050919050565b600060ff82169050919050565b6000819050919050565b60006124e582612502565b9050919050565b60008115159050919050565b6000819050919050565b600073ffffffffffffffffffffffffffffffffffffffff82169050919050565b6000819050919050565b82818337600083830152505050565b60005b8381101561255957808201518184015260208101905061253e565b83811115612568576000848401525b50505050565b6000600282049050600182168061258657607f821691505b6020821081141561259a5761259961264e565b5b50919050565b60006125b36125ae836126bd565b6124a3565b9050919050565b60006125cd6125c8836126bd565b6124d0565b9050919050565b60006125e76125e2836126ca565b6124c3565b9050919050565b6125f7826126ac565b810181811067ffffffffffffffff821117156126165761261561267d565b5b80604052505050565b7f4e487b7100000000000000000000000000000000000000000000000000000000600052601160045260246000fd5b7f4e487b7100000000000000000000000000000000000000000000000000000000600052602260045260246000fd5b7f4e487b7100000000000000000000000000000000000000000000000000000000600052604160045260246000fd5b6000601f19601f8301169050919050565b60008160001c9050919050565b60008160a01c9050919050565b7f3430330000000000000000000000000000000000000000000000000000000000600082015250565b7f4f776e61626c653a206e6577206f776e657220697320746865207a65726f206160008201527f6464726573730000000000000000000000000000000000000000000000000000602082015250565b7f3430300000000000000000000000000000000000000000000000000000000000600082015250565b7f4f776e61626c653a2063616c6c6572206973206e6f7420746865206f776e6572600082015250565b7f3430340000000000000000000000000000000000000000000000000000000000600082015250565b6127d3816124da565b81146127de57600080fd5b50565b6127ea816124ec565b81146127f557600080fd5b50565b612801816124f8565b811461280c57600080fd5b50565b61281881612522565b811461282357600080fd5b5056fea26469706673582212204f4d37bb5d717b7e70e6e52d14d90f73ebd1ee0f2005f5050897df7166b461ad64736f6c63430008040033",
  "linkReferences": {},
  "deployedLinkReferences": {}
}