{
  "_format": "hh-sol-artifact-1",
  "contractName": "QuestionStore",
  "sourceName": "contracts/question/QuestionStore.sol",
  "abi": [
    {
      "anonymous": false,
      "inputs": [
        {
          "indexed": true,
          "internalType": "address",
          "name": "previousOwner",
          "type": "address"
        },
        {
          "indexed": true,
          "internalType": "address",
          "name": "newOwner",
          "type": "address"
        }
      ],
      "name": "OwnershipTransferred",
      "type": "event"
    },
    {
      "anonymous": false,
      "inputs": [
        {
          "components": [
            {
              "internalType": "bytes32",
              "name": "id",
              "type": "bytes32"
            },
            {
              "internalType": "string",
              "name": "title",
              "type": "string"
            },
            {
              "internalType": "string",
              "name": "body",
              "type": "string"
            },
            {
              "internalType": "address",
              "name": "creator",
              "type": "address"
            },
            {
              "internalType": "bool",
              "name": "deleted",
              "type": "bool"
            },
            {
              "internalType": "bytes32[]",
              "name": "tags",
              "type": "bytes32[]"
            }
          ],
          "indexed": false,
          "internalType": "struct QuestionTypes.Question",
          "name": "question",
          "type": "tuple"
        }
      ],
      "name": "QuestionCreated",
      "type": "event"
    },
    {
      "anonymous": false,
      "inputs": [
        {
          "components": [
            {
              "internalType": "bytes32",
              "name": "id",
              "type": "bytes32"
            },
            {
              "internalType": "string",
              "name": "title",
              "type": "string"
            },
            {
              "internalType": "string",
              "name": "body",
              "type": "string"
            },
            {
              "internalType": "address",
              "name": "creator",
              "type": "address"
            },
            {
              "internalType": "bool",
              "name": "deleted",
              "type": "bool"
            },
            {
              "internalType": "bytes32[]",
              "name": "tags",
              "type": "bytes32[]"
            }
          ],
          "indexed": false,
          "internalType": "struct QuestionTypes.Question",
          "name": "question",
          "type": "tuple"
        }
      ],
      "name": "QuestionDeleted",
      "type": "event"
    },
    {
      "anonymous": false,
      "inputs": [
        {
          "components": [
            {
              "internalType": "bytes32",
              "name": "id",
              "type": "bytes32"
            },
            {
              "internalType": "string",
              "name": "title",
              "type": "string"
            },
            {
              "internalType": "string",
              "name": "body",
              "type": "string"
            },
            {
              "internalType": "address",
              "name": "creator",
              "type": "address"
            },
            {
              "internalType": "bool",
              "name": "deleted",
              "type": "bool"
            },
            {
              "internalType": "bytes32[]",
              "name": "tags",
              "type": "bytes32[]"
            }
          ],
          "indexed": false,
          "internalType": "struct QuestionTypes.Question",
          "name": "question",
          "type": "tuple"
        }
      ],
      "name": "QuestionUpdated",
      "type": "event"
    },
    {
      "inputs": [],
      "name": "count",
      "outputs": [
        {
          "internalType": "uint256",
          "name": "",
          "type": "uint256"
        }
      ],
      "stateMutability": "view",
      "type": "function"
    },
    {
      "inputs": [
        {
          "components": [
            {
              "internalType": "bytes32",
              "name": "id",
              "type": "bytes32"
            },
            {
              "internalType": "string",
              "name": "title",
              "type": "string"
            },
            {
              "internalType": "string",
              "name": "body",
              "type": "string"
            },
            {
              "internalType": "address",
              "name": "creator",
              "type": "address"
            },
            {
              "internalType": "bool",
              "name": "deleted",
              "type": "bool"
            },
            {
              "internalType": "bytes32[]",
              "name": "tags",
              "type": "bytes32[]"
            }
          ],
          "internalType": "struct QuestionTypes.Question",
          "name": "question",
          "type": "tuple"
        }
      ],
      "name": "create",
      "outputs": [
        {
          "internalType": "bool",
          "name": "success",
          "type": "bool"
        }
      ],
      "stateMutability": "nonpayable",
      "type": "function"
    },
    {
      "inputs": [
        {
          "internalType": "address",
          "name": "caller",
          "type": "address"
        },
        {
          "internalType": "bytes32",
          "name": "id",
          "type": "bytes32"
        }
      ],
      "name": "deleteById",
      "outputs": [
        {
          "internalType": "bool",
          "name": "success",
          "type": "bool"
        }
      ],
      "stateMutability": "nonpayable",
      "type": "function"
    },
    {
      "inputs": [
        {
          "internalType": "bytes32",
          "name": "id",
          "type": "bytes32"
        }
      ],
      "name": "getById",
      "outputs": [
        {
          "components": [
            {
              "internalType": "bytes32",
              "name": "id",
              "type": "bytes32"
            },
            {
              "internalType": "string",
              "name": "title",
              "type": "string"
            },
            {
              "internalType": "string",
              "name": "body",
              "type": "string"
            },
            {
              "internalType": "address",
              "name": "creator",
              "type": "address"
            },
            {
              "internalType": "bool",
              "name": "deleted",
              "type": "bool"
            },
            {
              "internalType": "bytes32[]",
              "name": "tags",
              "type": "bytes32[]"
            }
          ],
          "internalType": "struct QuestionTypes.Question",
          "name": "",
          "type": "tuple"
        }
      ],
      "stateMutability": "view",
      "type": "function"
    },
    {
      "inputs": [
        {
          "internalType": "uint256",
          "name": "index",
          "type": "uint256"
        }
      ],
      "name": "getByIndex",
      "outputs": [
        {
          "components": [
            {
              "internalType": "bytes32",
              "name": "id",
              "type": "bytes32"
            },
            {
              "internalType": "string",
              "name": "title",
              "type": "string"
            },
            {
              "internalType": "string",
              "name": "body",
              "type": "string"
            },
            {
              "internalType": "address",
              "name": "creator",
              "type": "address"
            },
            {
              "internalType": "bool",
              "name": "deleted",
              "type": "bool"
            },
            {
              "internalType": "bytes32[]",
              "name": "tags",
              "type": "bytes32[]"
            }
          ],
          "internalType": "struct QuestionTypes.Question",
          "name": "",
          "type": "tuple"
        }
      ],
      "stateMutability": "view",
      "type": "function"
    },
    {
      "inputs": [],
      "name": "owner",
      "outputs": [
        {
          "internalType": "address",
          "name": "",
          "type": "address"
        }
      ],
      "stateMutability": "view",
      "type": "function"
    },
    {
      "inputs": [],
      "name": "renounceOwnership",
      "outputs": [],
      "stateMutability": "nonpayable",
      "type": "function"
    },
    {
      "inputs": [
        {
          "internalType": "address",
          "name": "newOwner",
          "type": "address"
        }
      ],
      "name": "transferOwnership",
      "outputs": [],
      "stateMutability": "nonpayable",
      "type": "function"
    },
    {
      "inputs": [
        {
          "internalType": "address",
          "name": "caller",
          "type": "address"
        },
        {
          "internalType": "bytes32",
          "name": "id",
          "type": "bytes32"
        },
        {
          "internalType": "string",
          "name": "title",
          "type": "string"
        },
        {
          "internalType": "string",
          "name": "body",
          "type": "string"
        },
        {
          "internalType": "bytes32[]",
          "name": "tags",
          "type": "bytes32[]"
        }
      ],
      "name": "update",
      "outputs": [
        {
          "internalType": "bool",
          "name": "success",
          "type": "bool"
        }
      ],
      "stateMutability": "nonpayable",
      "type": "function"
    },
    {
      "inputs": [
        {
          "internalType": "address",
          "name": "_logicAddress",
          "type": "address"
        }
      ],
      "name": "upgradeLogic",
      "outputs": [],
      "stateMutability": "nonpayable",
      "type": "function"
    }
  ],
  "bytecode": "0x60806040523480156200001157600080fd5b5062000032620000266200003860201b60201c565b6200004060201b60201c565b62000104565b600033905090565b60008060009054906101000a900473ffffffffffffffffffffffffffffffffffffffff169050816000806101000a81548173ffffffffffffffffffffffffffffffffffffffff021916908373ffffffffffffffffffffffffffffffffffffffff1602179055508173ffffffffffffffffffffffffffffffffffffffff168173ffffffffffffffffffffffffffffffffffffffff167f8be0079c531659141344cd1fd0a4f28419497f9722a3daafe3b4186f6b6457e060405160405180910390a35050565b61264280620001146000396000f3fe608060405234801561001057600080fd5b506004361061009e5760003560e01c8063715018a611610066578063715018a6146101815780637d0f5ce31461018b5780638da5cb5b146101bb578063f2fde38b146101d9578063f63d13b5146101f55761009e565b8063065116c7146100a357806306661abd146100d35780632d883a73146100f15780632dff0d0d146101215780634de44e1414610151575b600080fd5b6100bd60048036038101906100b89190611b95565b610211565b6040516100ca9190611ffe565b60405180910390f35b6100db61047a565b6040516100e891906120fd565b60405180910390f35b61010b60048036038101906101069190611bd6565b610517565b60405161011891906120b9565b60405180910390f35b61013b60048036038101906101369190611b6c565b610859565b60405161014891906120b9565b60405180910390f35b61016b60048036038101906101669190611aad565b610b58565b6040516101789190611ffe565b60405180910390f35b610189610dbc565b005b6101a560048036038101906101a09190611a71565b610e44565b6040516101b29190611ffe565b60405180910390f35b6101c361138a565b6040516101d09190611fe3565b60405180910390f35b6101f360048036038101906101ee9190611a48565b6113b3565b005b61020f600480360381019061020a9190611a48565b6114ab565b005b6000600360009054906101000a900473ffffffffffffffffffffffffffffffffffffffff1673ffffffffffffffffffffffffffffffffffffffff163373ffffffffffffffffffffffffffffffffffffffff16146102a3576040517f08c379a000000000000000000000000000000000000000000000000000000000815260040161029a90612019565b60405180910390fd5b6102b0826000015161156b565b156102f0576040517f08c379a00000000000000000000000000000000000000000000000000000000081526004016102e790612059565b60405180910390fd5b600282600001519080600181540180825580915050600190039060005260206000200160009091909190915055604051806040016040528083815260200160016002805490506103409190612242565b81525060016000846000015181526020019081526020016000206000820151816000016000820151816000015560208201518160010190805190602001906103899291906116b4565b5060408201518160020190805190602001906103a69291906116b4565b5060608201518160030160006101000a81548173ffffffffffffffffffffffffffffffffffffffff021916908373ffffffffffffffffffffffffffffffffffffffff16021790555060808201518160030160146101000a81548160ff02191690831515021790555060a082015181600401908051906020019061042a92919061173a565b505050602082015181600501559050507f309df87ebe82c271ff6f7b0047cfe77813473f46b75f8f0a72be554ef6f7cbb98260405161046991906120b9565b60405180910390a160019050919050565b6000600360009054906101000a900473ffffffffffffffffffffffffffffffffffffffff1673ffffffffffffffffffffffffffffffffffffffff163373ffffffffffffffffffffffffffffffffffffffff161461050c576040517f08c379a000000000000000000000000000000000000000000000000000000000815260040161050390612019565b60405180910390fd5b600280549050905090565b61051f611787565b600360009054906101000a900473ffffffffffffffffffffffffffffffffffffffff1673ffffffffffffffffffffffffffffffffffffffff163373ffffffffffffffffffffffffffffffffffffffff16146105af576040517f08c379a00000000000000000000000000000000000000000000000000000000081526004016105a690612019565b60405180910390fd5b60028054905082106105f6576040517f08c379a00000000000000000000000000000000000000000000000000000000081526004016105ed90612099565b60405180910390fd5b6001600060028481548110610634577f4e487b7100000000000000000000000000000000000000000000000000000000600052603260045260246000fd5b906000526020600020015481526020019081526020016000206000016040518060c00160405290816000820154815260200160018201805461067590612341565b80601f01602080910402602001604051908101604052809291908181526020018280546106a190612341565b80156106ee5780601f106106c3576101008083540402835291602001916106ee565b820191906000526020600020905b8154815290600101906020018083116106d157829003601f168201915b5050505050815260200160028201805461070790612341565b80601f016020809104026020016040519081016040528092919081815260200182805461073390612341565b80156107805780601f1061075557610100808354040283529160200191610780565b820191906000526020600020905b81548152906001019060200180831161076357829003601f168201915b505050505081526020016003820160009054906101000a900473ffffffffffffffffffffffffffffffffffffffff1673ffffffffffffffffffffffffffffffffffffffff1673ffffffffffffffffffffffffffffffffffffffff1681526020016003820160149054906101000a900460ff161515151581526020016004820180548060200260200160405190810160405280929190818152602001828054801561084957602002820191906000526020600020905b815481526020019060010190808311610835575b5050505050815250509050919050565b610861611787565b600360009054906101000a900473ffffffffffffffffffffffffffffffffffffffff1673ffffffffffffffffffffffffffffffffffffffff163373ffffffffffffffffffffffffffffffffffffffff16146108f1576040517f08c379a00000000000000000000000000000000000000000000000000000000081526004016108e890612019565b60405180910390fd5b6108fa8261156b565b610939576040517f08c379a000000000000000000000000000000000000000000000000000000000815260040161093090612099565b60405180910390fd5b600160008381526020019081526020016000206000016040518060c00160405290816000820154815260200160018201805461097490612341565b80601f01602080910402602001604051908101604052809291908181526020018280546109a090612341565b80156109ed5780601f106109c2576101008083540402835291602001916109ed565b820191906000526020600020905b8154815290600101906020018083116109d057829003601f168201915b50505050508152602001600282018054610a0690612341565b80601f0160208091040260200160405190810160405280929190818152602001828054610a3290612341565b8015610a7f5780601f10610a5457610100808354040283529160200191610a7f565b820191906000526020600020905b815481529060010190602001808311610a6257829003601f168201915b505050505081526020016003820160009054906101000a900473ffffffffffffffffffffffffffffffffffffffff1673ffffffffffffffffffffffffffffffffffffffff1673ffffffffffffffffffffffffffffffffffffffff1681526020016003820160149054906101000a900460ff1615151515815260200160048201805480602002602001604051908101604052809291908181526020018280548015610b4857602002820191906000526020600020905b815481526020019060010190808311610b34575b5050505050815250509050919050565b6000600360009054906101000a900473ffffffffffffffffffffffffffffffffffffffff1673ffffffffffffffffffffffffffffffffffffffff163373ffffffffffffffffffffffffffffffffffffffff1614610bea576040517f08c379a0000000000000000000000000000000000000000000000000000000008152600401610be190612019565b60405180910390fd5b610bf38561156b565b610c32576040517f08c379a0000000000000000000000000000000000000000000000000000000008152600401610c2990612099565b60405180910390fd5b8573ffffffffffffffffffffffffffffffffffffffff166001600087815260200190815260200160002060000160030160009054906101000a900473ffffffffffffffffffffffffffffffffffffffff1673ffffffffffffffffffffffffffffffffffffffff1614610cd9576040517f08c379a0000000000000000000000000000000000000000000000000000000008152600401610cd090612019565b60405180910390fd5b83600160008781526020019081526020016000206000016001019080519060200190610d069291906116b4565b5082600160008781526020019081526020016000206000016002019080519060200190610d349291906116b4565b5081600160008781526020019081526020016000206000016004019080519060200190610d6292919061173a565b507f78c4917f5f81cf0ddc5e1539b9521fefda034c258b72aa533d13d10ff62a572960016000878152602001908152602001600020600001604051610da791906120db565b60405180910390a16001905095945050505050565b610dc46115e8565b73ffffffffffffffffffffffffffffffffffffffff16610de261138a565b73ffffffffffffffffffffffffffffffffffffffff1614610e38576040517f08c379a0000000000000000000000000000000000000000000000000000000008152600401610e2f90612079565b60405180910390fd5b610e4260006115f0565b565b6000600360009054906101000a900473ffffffffffffffffffffffffffffffffffffffff1673ffffffffffffffffffffffffffffffffffffffff163373ffffffffffffffffffffffffffffffffffffffff1614610ed6576040517f08c379a0000000000000000000000000000000000000000000000000000000008152600401610ecd90612019565b60405180910390fd5b610edf8261156b565b610f1e576040517f08c379a0000000000000000000000000000000000000000000000000000000008152600401610f1590612099565b60405180910390fd5b8273ffffffffffffffffffffffffffffffffffffffff166001600084815260200190815260200160002060000160030160009054906101000a900473ffffffffffffffffffffffffffffffffffffffff1673ffffffffffffffffffffffffffffffffffffffff1614610fc5576040517f08c379a0000000000000000000000000000000000000000000000000000000008152600401610fbc90612019565b60405180910390fd5b600060016000848152602001908152602001600020604051806040016040529081600082016040518060c00160405290816000820154815260200160018201805461100f90612341565b80601f016020809104026020016040519081016040528092919081815260200182805461103b90612341565b80156110885780601f1061105d57610100808354040283529160200191611088565b820191906000526020600020905b81548152906001019060200180831161106b57829003601f168201915b505050505081526020016002820180546110a190612341565b80601f01602080910402602001604051908101604052809291908181526020018280546110cd90612341565b801561111a5780601f106110ef5761010080835404028352916020019161111a565b820191906000526020600020905b8154815290600101906020018083116110fd57829003601f168201915b505050505081526020016003820160009054906101000a900473ffffffffffffffffffffffffffffffffffffffff1673ffffffffffffffffffffffffffffffffffffffff1673ffffffffffffffffffffffffffffffffffffffff1681526020016003820160149054906101000a900460ff16151515158152602001600482018054806020026020016040519081016040528092919081815260200182805480156111e357602002820191906000526020600020905b8154815260200190600101908083116111cf575b5050505050815250508152602001600582015481525050905060008160200151905060006002600160028054905061121b9190612242565b81548110611252577f4e487b7100000000000000000000000000000000000000000000000000000000600052603260045260246000fd5b90600052602060002001549050806002838154811061129a577f4e487b7100000000000000000000000000000000000000000000000000000000600052603260045260246000fd5b9060005260206000200181905550816001600083815260200190815260200160002060050181905550600180600083815260200190815260200160002060000160030160146101000a81548160ff021916908315150217905550600280548061132c577f4e487b7100000000000000000000000000000000000000000000000000000000600052603160045260246000fd5b600190038181906000526020600020016000905590557fd5ba0fed1b0acb1c4deb2bb0bdb8b2033005e466cd8cd35e5160dd5eeb1dfec2836000015160405161137591906120b9565b60405180910390a16001935050505092915050565b60008060009054906101000a900473ffffffffffffffffffffffffffffffffffffffff16905090565b6113bb6115e8565b73ffffffffffffffffffffffffffffffffffffffff166113d961138a565b73ffffffffffffffffffffffffffffffffffffffff161461142f576040517f08c379a000000000000000000000000000000000000000000000000000000000815260040161142690612079565b60405180910390fd5b600073ffffffffffffffffffffffffffffffffffffffff168173ffffffffffffffffffffffffffffffffffffffff16141561149f576040517f08c379a000000000000000000000000000000000000000000000000000000000815260040161149690612039565b60405180910390fd5b6114a8816115f0565b50565b6114b36115e8565b73ffffffffffffffffffffffffffffffffffffffff166114d161138a565b73ffffffffffffffffffffffffffffffffffffffff1614611527576040517f08c379a000000000000000000000000000000000000000000000000000000000815260040161151e90612079565b60405180910390fd5b80600360006101000a81548173ffffffffffffffffffffffffffffffffffffffff021916908373ffffffffffffffffffffffffffffffffffffffff16021790555050565b600080600280549050141561158357600090506115e3565b8160026001600085815260200190815260200160002060050154815481106115d4577f4e487b7100000000000000000000000000000000000000000000000000000000600052603260045260246000fd5b90600052602060002001541490505b919050565b600033905090565b60008060009054906101000a900473ffffffffffffffffffffffffffffffffffffffff169050816000806101000a81548173ffffffffffffffffffffffffffffffffffffffff021916908373ffffffffffffffffffffffffffffffffffffffff1602179055508173ffffffffffffffffffffffffffffffffffffffff168173ffffffffffffffffffffffffffffffffffffffff167f8be0079c531659141344cd1fd0a4f28419497f9722a3daafe3b4186f6b6457e060405160405180910390a35050565b8280546116c090612341565b90600052602060002090601f0160209004810192826116e25760008555611729565b82601f106116fb57805160ff1916838001178555611729565b82800160010185558215611729579182015b8281111561172857825182559160200191906001019061170d565b5b50905061173691906117d8565b5090565b828054828255906000526020600020908101928215611776579160200282015b8281111561177557825182559160200191906001019061175a565b5b50905061178391906117f5565b5090565b6040518060c00160405280600080191681526020016060815260200160608152602001600073ffffffffffffffffffffffffffffffffffffffff168152602001600015158152602001606081525090565b5b808211156117f15760008160009055506001016117d9565b5090565b5b8082111561180e5760008160009055506001016117f6565b5090565b60006118256118208461213d565b612118565b9050808382526020820190508285602086028201111561184457600080fd5b60005b85811015611874578161185a8882611910565b845260208401935060208301925050600181019050611847565b5050509392505050565b600061189161188c84612169565b612118565b9050828152602081018484840111156118a957600080fd5b6118b48482856122ff565b509392505050565b6000813590506118cb816125b0565b92915050565b600082601f8301126118e257600080fd5b81356118f2848260208601611812565b91505092915050565b60008135905061190a816125c7565b92915050565b60008135905061191f816125de565b92915050565b600082601f83011261193657600080fd5b813561194684826020860161187e565b91505092915050565b600060c0828403121561196157600080fd5b61196b60c0612118565b9050600061197b84828501611910565b600083015250602082013567ffffffffffffffff81111561199b57600080fd5b6119a784828501611925565b602083015250604082013567ffffffffffffffff8111156119c757600080fd5b6119d384828501611925565b60408301525060606119e7848285016118bc565b60608301525060806119fb848285016118fb565b60808301525060a082013567ffffffffffffffff811115611a1b57600080fd5b611a27848285016118d1565b60a08301525092915050565b600081359050611a42816125f5565b92915050565b600060208284031215611a5a57600080fd5b6000611a68848285016118bc565b91505092915050565b60008060408385031215611a8457600080fd5b6000611a92858286016118bc565b9250506020611aa385828601611910565b9150509250929050565b600080600080600060a08688031215611ac557600080fd5b6000611ad3888289016118bc565b9550506020611ae488828901611910565b945050604086013567ffffffffffffffff811115611b0157600080fd5b611b0d88828901611925565b935050606086013567ffffffffffffffff811115611b2a57600080fd5b611b3688828901611925565b925050608086013567ffffffffffffffff811115611b5357600080fd5b611b5f888289016118d1565b9150509295509295909350565b600060208284031215611b7e57600080fd5b6000611b8c84828501611910565b91505092915050565b600060208284031215611ba757600080fd5b600082013567ffffffffffffffff811115611bc157600080fd5b611bcd8482850161194f565b91505092915050565b600060208284031215611be857600080fd5b6000611bf684828501611a33565b91505092915050565b6000611c0b8383611d16565b60208301905092915050565b611c20816122ad565b82525050565b611c2f816122ad565b82525050565b6000611c40826121d4565b611c4a818561220f565b9350611c558361219a565b8060005b83811015611c86578151611c6d8882611bff565b9750611c78836121f5565b925050600181019050611c59565b5085935050505092915050565b6000611c9e826121df565b611ca8818561220f565b9350611cb3836121aa565b8060005b83811015611ceb57611cc88261247f565b611cd28882611bff565b9750611cdd83612202565b925050600181019050611cb7565b5085935050505092915050565b611d01816122bf565b82525050565b611d10816122bf565b82525050565b611d1f816122cb565b82525050565b6000611d30826121ea565b611d3a8185612220565b9350611d4a81856020860161230e565b611d5381612492565b840191505092915050565b60008154611d6b81612341565b611d758186612220565b94506001821660008114611d905760018114611da257611dd5565b60ff1983168652602086019350611dd5565b611dab856121bf565b60005b83811015611dcd57815481890152600182019150602081019050611dae565b808801955050505b50505092915050565b6000611deb600383612231565b9150611df6826124bd565b602082019050919050565b6000611e0e602683612231565b9150611e19826124e6565b604082019050919050565b6000611e31600383612231565b9150611e3c82612535565b602082019050919050565b6000611e54602083612231565b9150611e5f8261255e565b602082019050919050565b6000611e77600383612231565b9150611e8282612587565b602082019050919050565b600060c083016000830151611ea56000860182611d16565b5060208301518482036020860152611ebd8282611d25565b91505060408301518482036040860152611ed78282611d25565b9150506060830151611eec6060860182611c17565b506080830151611eff6080860182611cf8565b5060a083015184820360a0860152611f178282611c35565b9150508091505092915050565b600060c083016000808401549050611f3b8161238d565b611f486000870182611d16565b50600184018583036020870152611f5f8382611d5e565b925050600284018583036040870152611f788382611d5e565b92505060038401549050611f8b81612373565b611f986060870182611c17565b50611fa2816123a7565b611faf6080870182611cf8565b506004840185830360a0870152611fc68382611c93565b925050819250505092915050565b611fdd816122f5565b82525050565b6000602082019050611ff86000830184611c26565b92915050565b60006020820190506120136000830184611d07565b92915050565b6000602082019050818103600083015261203281611dde565b9050919050565b6000602082019050818103600083015261205281611e01565b9050919050565b6000602082019050818103600083015261207281611e24565b9050919050565b6000602082019050818103600083015261209281611e47565b9050919050565b600060208201905081810360008301526120b281611e6a565b9050919050565b600060208201905081810360008301526120d38184611e8d565b905092915050565b600060208201905081810360008301526120f58184611f24565b905092915050565b60006020820190506121126000830184611fd4565b92915050565b6000612122612133565b905061212e82826123c1565b919050565b6000604051905090565b600067ffffffffffffffff82111561215857612157612450565b5b602082029050602081019050919050565b600067ffffffffffffffff82111561218457612183612450565b5b61218d82612492565b9050602081019050919050565b6000819050602082019050919050565b60008190508160005260206000209050919050565b60008190508160005260206000209050919050565b600081519050919050565b600081549050919050565b600081519050919050565b6000602082019050919050565b6000600182019050919050565b600082825260208201905092915050565b600082825260208201905092915050565b600082825260208201905092915050565b600061224d826122f5565b9150612258836122f5565b92508282101561226b5761226a6123f2565b5b828203905092915050565b600073ffffffffffffffffffffffffffffffffffffffff82169050919050565b600060ff82169050919050565b6000819050919050565b60006122b8826122d5565b9050919050565b60008115159050919050565b6000819050919050565b600073ffffffffffffffffffffffffffffffffffffffff82169050919050565b6000819050919050565b82818337600083830152505050565b60005b8381101561232c578082015181840152602081019050612311565b8381111561233b576000848401525b50505050565b6000600282049050600182168061235957607f821691505b6020821081141561236d5761236c612421565b5b50919050565b6000612386612381836124a3565b612276565b9050919050565b60006123a061239b836124a3565b6122a3565b9050919050565b60006123ba6123b5836124b0565b612296565b9050919050565b6123ca82612492565b810181811067ffffffffffffffff821117156123e9576123e8612450565b5b80604052505050565b7f4e487b7100000000000000000000000000000000000000000000000000000000600052601160045260246000fd5b7f4e487b7100000000000000000000000000000000000000000000000000000000600052602260045260246000fd5b7f4e487b7100000000000000000000000000000000000000000000000000000000600052604160045260246000fd5b600061248b825461238d565b9050919050565b6000601f19601f8301169050919050565b60008160001c9050919050565b60008160a01c9050919050565b7f3430330000000000000000000000000000000000000000000000000000000000600082015250565b7f4f776e61626c653a206e6577206f776e657220697320746865207a65726f206160008201527f6464726573730000000000000000000000000000000000000000000000000000602082015250565b7f3430300000000000000000000000000000000000000000000000000000000000600082015250565b7f4f776e61626c653a2063616c6c6572206973206e6f7420746865206f776e6572600082015250565b7f3430340000000000000000000000000000000000000000000000000000000000600082015250565b6125b9816122ad565b81146125c457600080fd5b50565b6125d0816122bf565b81146125db57600080fd5b50565b6125e7816122cb565b81146125f257600080fd5b50565b6125fe816122f5565b811461260957600080fd5b5056fea264697066735822122054fcc18f5184158b8e786a345a6edf01ec9089f92ac972d82325ef21d7783eab64736f6c63430008040033",
  "linkReferences": {},
  "deployedLinkReferences": {}
}