{
  "_format": "hh-sol-artifact-1",
  "contractName": "Alexandria",
  "sourceName": "contracts/Alexandria.sol",
  "abi": [
    {
      "inputs": [
        {
          "internalType": "address",
          "name": "_tagLogicAddr",
          "type": "address"
        },
        {
          "internalType": "address",
          "name": "_questionLogicAddr",
          "type": "address"
        }
      ],
      "stateMutability": "nonpayable",
      "type": "constructor"
    },
    {
      "anonymous": false,
      "inputs": [
        {
          "indexed": true,
          "internalType": "address",
          "name": "previousOwner",
          "type": "address"
        },
        {
          "indexed": true,
          "internalType": "address",
          "name": "newOwner",
          "type": "address"
        }
      ],
      "name": "OwnershipTransferred",
      "type": "event"
    },
    {
      "inputs": [],
      "name": "countQuestions",
      "outputs": [
        {
          "internalType": "uint256",
          "name": "",
          "type": "uint256"
        }
      ],
      "stateMutability": "view",
      "type": "function"
    },
    {
      "inputs": [],
      "name": "countTags",
      "outputs": [
        {
          "internalType": "uint256",
          "name": "",
          "type": "uint256"
        }
      ],
      "stateMutability": "view",
      "type": "function"
    },
    {
      "inputs": [
        {
          "internalType": "string",
          "name": "title",
          "type": "string"
        },
        {
          "internalType": "string",
          "name": "body",
          "type": "string"
        },
        {
          "internalType": "string[]",
          "name": "tags",
          "type": "string[]"
        }
      ],
      "name": "createQuestion",
      "outputs": [],
      "stateMutability": "nonpayable",
      "type": "function"
    },
    {
      "inputs": [
        {
          "internalType": "string",
          "name": "name",
          "type": "string"
        },
        {
          "internalType": "string",
          "name": "description",
          "type": "string"
        }
      ],
      "name": "createTag",
      "outputs": [],
      "stateMutability": "nonpayable",
      "type": "function"
    },
    {
      "inputs": [
        {
          "internalType": "bytes32",
          "name": "id",
          "type": "bytes32"
        }
      ],
      "name": "deleteQuestionById",
      "outputs": [],
      "stateMutability": "nonpayable",
      "type": "function"
    },
    {
      "inputs": [
        {
          "internalType": "bytes32",
          "name": "id",
          "type": "bytes32"
        }
      ],
      "name": "deleteTagById",
      "outputs": [],
      "stateMutability": "nonpayable",
      "type": "function"
    },
    {
      "inputs": [
        {
          "internalType": "bytes32",
          "name": "id",
          "type": "bytes32"
        }
      ],
      "name": "getQuestionById",
      "outputs": [
        {
          "components": [
            {
              "internalType": "bytes32",
              "name": "id",
              "type": "bytes32"
            },
            {
              "internalType": "string",
              "name": "title",
              "type": "string"
            },
            {
              "internalType": "string",
              "name": "body",
              "type": "string"
            },
            {
              "internalType": "address",
              "name": "creator",
              "type": "address"
            },
            {
              "internalType": "bool",
              "name": "deleted",
              "type": "bool"
            },
            {
              "internalType": "string[]",
              "name": "tags",
              "type": "string[]"
            }
          ],
          "internalType": "struct QuestionTypes.Question",
          "name": "",
          "type": "tuple"
        }
      ],
      "stateMutability": "view",
      "type": "function"
    },
    {
      "inputs": [
        {
          "internalType": "uint256",
          "name": "index",
          "type": "uint256"
        }
      ],
      "name": "getQuestionByIndex",
      "outputs": [
        {
          "components": [
            {
              "internalType": "bytes32",
              "name": "id",
              "type": "bytes32"
            },
            {
              "internalType": "string",
              "name": "title",
              "type": "string"
            },
            {
              "internalType": "string",
              "name": "body",
              "type": "string"
            },
            {
              "internalType": "address",
              "name": "creator",
              "type": "address"
            },
            {
              "internalType": "bool",
              "name": "deleted",
              "type": "bool"
            },
            {
              "internalType": "string[]",
              "name": "tags",
              "type": "string[]"
            }
          ],
          "internalType": "struct QuestionTypes.Question",
          "name": "",
          "type": "tuple"
        }
      ],
      "stateMutability": "view",
      "type": "function"
    },
    {
      "inputs": [
        {
          "internalType": "bytes32",
          "name": "id",
          "type": "bytes32"
        }
      ],
      "name": "getTagById",
      "outputs": [
        {
          "components": [
            {
              "internalType": "bytes32",
              "name": "id",
              "type": "bytes32"
            },
            {
              "internalType": "string",
              "name": "name",
              "type": "string"
            },
            {
              "internalType": "string",
              "name": "description",
              "type": "string"
            },
            {
              "internalType": "bool",
              "name": "deleted",
              "type": "bool"
            },
            {
              "internalType": "address",
              "name": "creator",
              "type": "address"
            }
          ],
          "internalType": "struct TagTypes.Tag",
          "name": "",
          "type": "tuple"
        }
      ],
      "stateMutability": "view",
      "type": "function"
    },
    {
      "inputs": [
        {
          "internalType": "uint256",
          "name": "index",
          "type": "uint256"
        }
      ],
      "name": "getTagByIndex",
      "outputs": [
        {
          "components": [
            {
              "internalType": "bytes32",
              "name": "id",
              "type": "bytes32"
            },
            {
              "internalType": "string",
              "name": "name",
              "type": "string"
            },
            {
              "internalType": "string",
              "name": "description",
              "type": "string"
            },
            {
              "internalType": "bool",
              "name": "deleted",
              "type": "bool"
            },
            {
              "internalType": "address",
              "name": "creator",
              "type": "address"
            }
          ],
          "internalType": "struct TagTypes.Tag",
          "name": "",
          "type": "tuple"
        }
      ],
      "stateMutability": "view",
      "type": "function"
    },
    {
      "inputs": [],
      "name": "owner",
      "outputs": [
        {
          "internalType": "address",
          "name": "",
          "type": "address"
        }
      ],
      "stateMutability": "view",
      "type": "function"
    },
    {
      "inputs": [],
      "name": "renounceOwnership",
      "outputs": [],
      "stateMutability": "nonpayable",
      "type": "function"
    },
    {
      "inputs": [
        {
          "internalType": "address",
          "name": "newOwner",
          "type": "address"
        }
      ],
      "name": "transferOwnership",
      "outputs": [],
      "stateMutability": "nonpayable",
      "type": "function"
    },
    {
      "inputs": [
        {
          "internalType": "bytes32",
          "name": "id",
          "type": "bytes32"
        },
        {
          "internalType": "string",
          "name": "title",
          "type": "string"
        },
        {
          "internalType": "string",
          "name": "body",
          "type": "string"
        },
        {
          "internalType": "string[]",
          "name": "tags",
          "type": "string[]"
        }
      ],
      "name": "updateQuestion",
      "outputs": [],
      "stateMutability": "nonpayable",
      "type": "function"
    },
    {
      "inputs": [
        {
          "internalType": "bytes32",
          "name": "id",
          "type": "bytes32"
        },
        {
          "internalType": "string",
          "name": "description",
          "type": "string"
        }
      ],
      "name": "updateTag",
      "outputs": [],
      "stateMutability": "nonpayable",
      "type": "function"
    },
    {
      "inputs": [
        {
          "internalType": "address",
          "name": "_questionLogicAddr",
          "type": "address"
        }
      ],
      "name": "upgradeQuestionLogic",
      "outputs": [],
      "stateMutability": "nonpayable",
      "type": "function"
    },
    {
      "inputs": [
        {
          "internalType": "address",
          "name": "_tagLogicAddr",
          "type": "address"
        }
      ],
      "name": "upgradeTagLogic",
      "outputs": [],
      "stateMutability": "nonpayable",
      "type": "function"
    }
  ],
  "bytecode": "0x60806040523480156200001157600080fd5b5060405162002291380380620022918339818101604052810190620000379190620001c4565b620000576200004b620000e160201b60201c565b620000e960201b60201c565b81600160006101000a81548173ffffffffffffffffffffffffffffffffffffffff021916908373ffffffffffffffffffffffffffffffffffffffff16021790555080600260006101000a81548173ffffffffffffffffffffffffffffffffffffffff021916908373ffffffffffffffffffffffffffffffffffffffff160217905550505062000253565b600033905090565b60008060009054906101000a900473ffffffffffffffffffffffffffffffffffffffff169050816000806101000a81548173ffffffffffffffffffffffffffffffffffffffff021916908373ffffffffffffffffffffffffffffffffffffffff1602179055508173ffffffffffffffffffffffffffffffffffffffff168173ffffffffffffffffffffffffffffffffffffffff167f8be0079c531659141344cd1fd0a4f28419497f9722a3daafe3b4186f6b6457e060405160405180910390a35050565b600081519050620001be8162000239565b92915050565b60008060408385031215620001d857600080fd5b6000620001e885828601620001ad565b9250506020620001fb85828601620001ad565b9150509250929050565b6000620002128262000219565b9050919050565b600073ffffffffffffffffffffffffffffffffffffffff82169050919050565b620002448162000205565b81146200025057600080fd5b50565b61202e80620002636000396000f3fe608060405234801561001057600080fd5b506004361061010b5760003560e01c8063956b21cb116100a2578063cd93cec511610071578063cd93cec51461027c578063f2fde38b146102ac578063f66b5c6f146102c8578063fcd2d3a9146102e4578063fd69b8e4146103005761010b565b8063956b21cb146101f65780639ef096d114610212578063c1823dbb1461022e578063c6844d061461024c5761010b565b806376627da1116100de57806376627da11461016e57806377e97f371461018a57806379bf9bcd146101ba5780638da5cb5b146101d85761010b565b8063223c3ee714610110578063372d47681461012c5780636dd764cd14610148578063715018a614610164575b600080fd5b61012a6004803603810190610125919061146e565b610330565b005b610146600480360381019061014191906115e8565b6103f0565b005b610162600480360381019061015d91906114c0565b6104a6565b005b61016c610538565b005b6101886004803603810190610183919061146e565b6105c0565b005b6101a4600480360381019061019f919061176d565b610680565b6040516101b19190611cc7565b60405180910390f35b6101c261073f565b6040516101cf9190611d0b565b60405180910390f35b6101e06107e6565b6040516101ed9190611ae3565b60405180910390f35b610210600480360381019061020b91906114c0565b61080f565b005b61022c600480360381019061022791906114e9565b6108a1565b005b610236610957565b6040516102439190611d0b565b60405180910390f35b610266600480360381019061026191906114c0565b6109fe565b6040516102739190611cc7565b60405180910390f35b610296600480360381019061029191906114c0565b610abd565b6040516102a39190611ce9565b60405180910390f35b6102c660048036038101906102c1919061146e565b610b7c565b005b6102e260048036038101906102dd9190611654565b610c74565b005b6102fe60048036038101906102f9919061153d565b610d2d565b005b61031a6004803603810190610315919061176d565b610de9565b6040516103279190611ce9565b60405180910390f35b610338610ea8565b73ffffffffffffffffffffffffffffffffffffffff166103566107e6565b73ffffffffffffffffffffffffffffffffffffffff16146103ac576040517f08c379a00000000000000000000000000000000000000000000000000000000081526004016103a390611ca7565b60405180910390fd5b80600160006101000a81548173ffffffffffffffffffffffffffffffffffffffff021916908373ffffffffffffffffffffffffffffffffffffffff16021790555050565b600160009054906101000a900473ffffffffffffffffffffffffffffffffffffffff1673ffffffffffffffffffffffffffffffffffffffff1663796d58363384846040518463ffffffff1660e01b815260040161044f93929190611bcd565b602060405180830381600087803b15801561046957600080fd5b505af115801561047d573d6000803e3d6000fd5b505050506040513d601f19601f820116820180604052508101906104a19190611497565b505050565b600160009054906101000a900473ffffffffffffffffffffffffffffffffffffffff1673ffffffffffffffffffffffffffffffffffffffff16637d0f5ce333836040518363ffffffff1660e01b8152600401610503929190611afe565b600060405180830381600087803b15801561051d57600080fd5b505af1158015610531573d6000803e3d6000fd5b5050505050565b610540610ea8565b73ffffffffffffffffffffffffffffffffffffffff1661055e6107e6565b73ffffffffffffffffffffffffffffffffffffffff16146105b4576040517f08c379a00000000000000000000000000000000000000000000000000000000081526004016105ab90611ca7565b60405180910390fd5b6105be6000610eb0565b565b6105c8610ea8565b73ffffffffffffffffffffffffffffffffffffffff166105e66107e6565b73ffffffffffffffffffffffffffffffffffffffff161461063c576040517f08c379a000000000000000000000000000000000000000000000000000000000815260040161063390611ca7565b60405180910390fd5b80600260006101000a81548173ffffffffffffffffffffffffffffffffffffffff021916908373ffffffffffffffffffffffffffffffffffffffff16021790555050565b610688610f74565b600260009054906101000a900473ffffffffffffffffffffffffffffffffffffffff1673ffffffffffffffffffffffffffffffffffffffff16632d883a73836040518263ffffffff1660e01b81526004016106e39190611d0b565b60006040518083038186803b1580156106fb57600080fd5b505afa15801561070f573d6000803e3d6000fd5b505050506040513d6000823e3d601f19601f8201168201806040525081019061073891906116eb565b9050919050565b6000600260009054906101000a900473ffffffffffffffffffffffffffffffffffffffff1673ffffffffffffffffffffffffffffffffffffffff166306661abd6040518163ffffffff1660e01b815260040160206040518083038186803b1580156107a957600080fd5b505afa1580156107bd573d6000803e3d6000fd5b505050506040513d601f19601f820116820180604052508101906107e19190611796565b905090565b60008060009054906101000a900473ffffffffffffffffffffffffffffffffffffffff16905090565b600260009054906101000a900473ffffffffffffffffffffffffffffffffffffffff1673ffffffffffffffffffffffffffffffffffffffff16637d0f5ce333836040518363ffffffff1660e01b815260040161086c929190611afe565b600060405180830381600087803b15801561088657600080fd5b505af115801561089a573d6000803e3d6000fd5b5050505050565b600160009054906101000a900473ffffffffffffffffffffffffffffffffffffffff1673ffffffffffffffffffffffffffffffffffffffff166322e7a2623384846040518463ffffffff1660e01b815260040161090093929190611b27565b602060405180830381600087803b15801561091a57600080fd5b505af115801561092e573d6000803e3d6000fd5b505050506040513d601f19601f820116820180604052508101906109529190611497565b505050565b6000600160009054906101000a900473ffffffffffffffffffffffffffffffffffffffff1673ffffffffffffffffffffffffffffffffffffffff166306661abd6040518163ffffffff1660e01b815260040160206040518083038186803b1580156109c157600080fd5b505afa1580156109d5573d6000803e3d6000fd5b505050506040513d601f19601f820116820180604052508101906109f99190611796565b905090565b610a06610f74565b600260009054906101000a900473ffffffffffffffffffffffffffffffffffffffff1673ffffffffffffffffffffffffffffffffffffffff16632dff0d0d836040518263ffffffff1660e01b8152600401610a619190611c6c565b60006040518083038186803b158015610a7957600080fd5b505afa158015610a8d573d6000803e3d6000fd5b505050506040513d6000823e3d601f19601f82011682018060405250810190610ab691906116eb565b9050919050565b610ac5610fc5565b600160009054906101000a900473ffffffffffffffffffffffffffffffffffffffff1673ffffffffffffffffffffffffffffffffffffffff16632dff0d0d836040518263ffffffff1660e01b8152600401610b209190611c6c565b60006040518083038186803b158015610b3857600080fd5b505afa158015610b4c573d6000803e3d6000fd5b505050506040513d6000823e3d601f19601f82011682018060405250810190610b75919061172c565b9050919050565b610b84610ea8565b73ffffffffffffffffffffffffffffffffffffffff16610ba26107e6565b73ffffffffffffffffffffffffffffffffffffffff1614610bf8576040517f08c379a0000000000000000000000000000000000000000000000000000000008152600401610bef90611ca7565b60405180910390fd5b600073ffffffffffffffffffffffffffffffffffffffff168173ffffffffffffffffffffffffffffffffffffffff161415610c68576040517f08c379a0000000000000000000000000000000000000000000000000000000008152600401610c5f90611c87565b60405180910390fd5b610c7181610eb0565b50565b600260009054906101000a900473ffffffffffffffffffffffffffffffffffffffff1673ffffffffffffffffffffffffffffffffffffffff1663047e5279338585856040518563ffffffff1660e01b8152600401610cd59493929190611c12565b602060405180830381600087803b158015610cef57600080fd5b505af1158015610d03573d6000803e3d6000fd5b505050506040513d601f19601f82011682018060405250810190610d279190611497565b50505050565b600260009054906101000a900473ffffffffffffffffffffffffffffffffffffffff1673ffffffffffffffffffffffffffffffffffffffff16639de5ec4c33868686866040518663ffffffff1660e01b8152600401610d90959493929190611b65565b602060405180830381600087803b158015610daa57600080fd5b505af1158015610dbe573d6000803e3d6000fd5b505050506040513d601f19601f82011682018060405250810190610de29190611497565b5050505050565b610df1610fc5565b600160009054906101000a900473ffffffffffffffffffffffffffffffffffffffff1673ffffffffffffffffffffffffffffffffffffffff16632d883a73836040518263ffffffff1660e01b8152600401610e4c9190611d0b565b60006040518083038186803b158015610e6457600080fd5b505afa158015610e78573d6000803e3d6000fd5b505050506040513d6000823e3d601f19601f82011682018060405250810190610ea1919061172c565b9050919050565b600033905090565b60008060009054906101000a900473ffffffffffffffffffffffffffffffffffffffff169050816000806101000a81548173ffffffffffffffffffffffffffffffffffffffff021916908373ffffffffffffffffffffffffffffffffffffffff1602179055508173ffffffffffffffffffffffffffffffffffffffff168173ffffffffffffffffffffffffffffffffffffffff167f8be0079c531659141344cd1fd0a4f28419497f9722a3daafe3b4186f6b6457e060405160405180910390a35050565b6040518060c00160405280600080191681526020016060815260200160608152602001600073ffffffffffffffffffffffffffffffffffffffff168152602001600015158152602001606081525090565b6040518060a00160405280600080191681526020016060815260200160608152602001600015158152602001600073ffffffffffffffffffffffffffffffffffffffff1681525090565b600061102261101d84611d4b565b611d26565b9050808382526020820190508285602086028201111561104157600080fd5b60005b8581101561108b57813567ffffffffffffffff81111561106357600080fd5b8086016110708982611254565b85526020850194506020840193505050600181019050611044565b5050509392505050565b60006110a86110a384611d4b565b611d26565b905080838252602082019050828560208602820111156110c757600080fd5b60005b8581101561111157815167ffffffffffffffff8111156110e957600080fd5b8086016110f6898261127e565b855260208501945060208401935050506001810190506110ca565b5050509392505050565b600061112e61112984611d77565b611d26565b90508281526020810184848401111561114657600080fd5b611151848285611e71565b509392505050565b600061116c61116784611d77565b611d26565b90508281526020810184848401111561118457600080fd5b61118f848285611e80565b509392505050565b6000813590506111a681611f9c565b92915050565b6000815190506111bb81611f9c565b92915050565b600082601f8301126111d257600080fd5b81356111e284826020860161100f565b91505092915050565b600082601f8301126111fc57600080fd5b815161120c848260208601611095565b91505092915050565b60008151905061122481611fb3565b92915050565b60008135905061123981611fca565b92915050565b60008151905061124e81611fca565b92915050565b600082601f83011261126557600080fd5b813561127584826020860161111b565b91505092915050565b600082601f83011261128f57600080fd5b815161129f848260208601611159565b91505092915050565b600060c082840312156112ba57600080fd5b6112c460c0611d26565b905060006112d48482850161123f565b600083015250602082015167ffffffffffffffff8111156112f457600080fd5b6113008482850161127e565b602083015250604082015167ffffffffffffffff81111561132057600080fd5b61132c8482850161127e565b6040830152506060611340848285016111ac565b606083015250608061135484828501611215565b60808301525060a082015167ffffffffffffffff81111561137457600080fd5b611380848285016111eb565b60a08301525092915050565b600060a0828403121561139e57600080fd5b6113a860a0611d26565b905060006113b88482850161123f565b600083015250602082015167ffffffffffffffff8111156113d857600080fd5b6113e48482850161127e565b602083015250604082015167ffffffffffffffff81111561140457600080fd5b6114108482850161127e565b604083015250606061142484828501611215565b6060830152506080611438848285016111ac565b60808301525092915050565b60008135905061145381611fe1565b92915050565b60008151905061146881611fe1565b92915050565b60006020828403121561148057600080fd5b600061148e84828501611197565b91505092915050565b6000602082840312156114a957600080fd5b60006114b784828501611215565b91505092915050565b6000602082840312156114d257600080fd5b60006114e08482850161122a565b91505092915050565b600080604083850312156114fc57600080fd5b600061150a8582860161122a565b925050602083013567ffffffffffffffff81111561152757600080fd5b61153385828601611254565b9150509250929050565b6000806000806080858703121561155357600080fd5b60006115618782880161122a565b945050602085013567ffffffffffffffff81111561157e57600080fd5b61158a87828801611254565b935050604085013567ffffffffffffffff8111156115a757600080fd5b6115b387828801611254565b925050606085013567ffffffffffffffff8111156115d057600080fd5b6115dc878288016111c1565b91505092959194509250565b600080604083850312156115fb57600080fd5b600083013567ffffffffffffffff81111561161557600080fd5b61162185828601611254565b925050602083013567ffffffffffffffff81111561163e57600080fd5b61164a85828601611254565b9150509250929050565b60008060006060848603121561166957600080fd5b600084013567ffffffffffffffff81111561168357600080fd5b61168f86828701611254565b935050602084013567ffffffffffffffff8111156116ac57600080fd5b6116b886828701611254565b925050604084013567ffffffffffffffff8111156116d557600080fd5b6116e1868287016111c1565b9150509250925092565b6000602082840312156116fd57600080fd5b600082015167ffffffffffffffff81111561171757600080fd5b611723848285016112a8565b91505092915050565b60006020828403121561173e57600080fd5b600082015167ffffffffffffffff81111561175857600080fd5b6117648482850161138c565b91505092915050565b60006020828403121561177f57600080fd5b600061178d84828501611444565b91505092915050565b6000602082840312156117a857600080fd5b60006117b684828501611459565b91505092915050565b60006117cb8383611908565b905092915050565b6117dc81611e1f565b82525050565b6117eb81611e1f565b82525050565b60006117fc82611db8565b6118068185611ddb565b93508360208202850161181885611da8565b8060005b85811015611854578484038952815161183585826117bf565b945061184083611dce565b925060208a0199505060018101905061181c565b50829750879550505050505092915050565b600061187182611db8565b61187b8185611dec565b93508360208202850161188d85611da8565b8060005b858110156118c957848403895281516118aa85826117bf565b94506118b583611dce565b925060208a01995050600181019050611891565b50829750879550505050505092915050565b6118e481611e31565b82525050565b6118f381611e3d565b82525050565b61190281611e3d565b82525050565b600061191382611dc3565b61191d8185611dfd565b935061192d818560208601611e80565b61193681611f13565b840191505092915050565b600061194c82611dc3565b6119568185611e0e565b9350611966818560208601611e80565b61196f81611f13565b840191505092915050565b6000611987602683611e0e565b915061199282611f24565b604082019050919050565b60006119aa602083611e0e565b91506119b582611f73565b602082019050919050565b600060c0830160008301516119d860008601826118ea565b50602083015184820360208601526119f08282611908565b91505060408301518482036040860152611a0a8282611908565b9150506060830151611a1f60608601826117d3565b506080830151611a3260808601826118db565b5060a083015184820360a0860152611a4a82826117f1565b9150508091505092915050565b600060a083016000830151611a6f60008601826118ea565b5060208301518482036020860152611a878282611908565b91505060408301518482036040860152611aa18282611908565b9150506060830151611ab660608601826118db565b506080830151611ac960808601826117d3565b508091505092915050565b611add81611e67565b82525050565b6000602082019050611af860008301846117e2565b92915050565b6000604082019050611b1360008301856117e2565b611b2060208301846118f9565b9392505050565b6000606082019050611b3c60008301866117e2565b611b4960208301856118f9565b8181036040830152611b5b8184611941565b9050949350505050565b600060a082019050611b7a60008301886117e2565b611b8760208301876118f9565b8181036040830152611b998186611941565b90508181036060830152611bad8185611941565b90508181036080830152611bc18184611866565b90509695505050505050565b6000606082019050611be260008301866117e2565b8181036020830152611bf48185611941565b90508181036040830152611c088184611941565b9050949350505050565b6000608082019050611c2760008301876117e2565b8181036020830152611c398186611941565b90508181036040830152611c4d8185611941565b90508181036060830152611c618184611866565b905095945050505050565b6000602082019050611c8160008301846118f9565b92915050565b60006020820190508181036000830152611ca08161197a565b9050919050565b60006020820190508181036000830152611cc08161199d565b9050919050565b60006020820190508181036000830152611ce181846119c0565b905092915050565b60006020820190508181036000830152611d038184611a57565b905092915050565b6000602082019050611d206000830184611ad4565b92915050565b6000611d30611d41565b9050611d3c8282611eb3565b919050565b6000604051905090565b600067ffffffffffffffff821115611d6657611d65611ee4565b5b602082029050602081019050919050565b600067ffffffffffffffff821115611d9257611d91611ee4565b5b611d9b82611f13565b9050602081019050919050565b6000819050602082019050919050565b600081519050919050565b600081519050919050565b6000602082019050919050565b600082825260208201905092915050565b600082825260208201905092915050565b600082825260208201905092915050565b600082825260208201905092915050565b6000611e2a82611e47565b9050919050565b60008115159050919050565b6000819050919050565b600073ffffffffffffffffffffffffffffffffffffffff82169050919050565b6000819050919050565b82818337600083830152505050565b60005b83811015611e9e578082015181840152602081019050611e83565b83811115611ead576000848401525b50505050565b611ebc82611f13565b810181811067ffffffffffffffff82111715611edb57611eda611ee4565b5b80604052505050565b7f4e487b7100000000000000000000000000000000000000000000000000000000600052604160045260246000fd5b6000601f19601f8301169050919050565b7f4f776e61626c653a206e6577206f776e657220697320746865207a65726f206160008201527f6464726573730000000000000000000000000000000000000000000000000000602082015250565b7f4f776e61626c653a2063616c6c6572206973206e6f7420746865206f776e6572600082015250565b611fa581611e1f565b8114611fb057600080fd5b50565b611fbc81611e31565b8114611fc757600080fd5b50565b611fd381611e3d565b8114611fde57600080fd5b50565b611fea81611e67565b8114611ff557600080fd5b5056fea2646970667358221220615dccd4d93cd23164a2d8b9db252787132ff2cd4c52252a8d3d0f7889c7952e64736f6c63430008040033",
  "linkReferences": {},
  "deployedLinkReferences": {}
}