{
  "_format": "hh-sol-artifact-1",
  "contractName": "Alexandria",
  "sourceName": "contracts/Alexandria.sol",
  "abi": [
    {
      "inputs": [
        {
          "internalType": "address",
          "name": "_tagLogicAddr",
          "type": "address"
        },
        {
          "internalType": "address",
          "name": "_questionLogicAddr",
          "type": "address"
        }
      ],
      "stateMutability": "nonpayable",
      "type": "constructor"
    },
    {
      "anonymous": false,
      "inputs": [
        {
          "indexed": true,
          "internalType": "address",
          "name": "previousOwner",
          "type": "address"
        },
        {
          "indexed": true,
          "internalType": "address",
          "name": "newOwner",
          "type": "address"
        }
      ],
      "name": "OwnershipTransferred",
      "type": "event"
    },
    {
      "inputs": [],
      "name": "countQuestions",
      "outputs": [
        {
          "internalType": "uint256",
          "name": "",
          "type": "uint256"
        }
      ],
      "stateMutability": "view",
      "type": "function"
    },
    {
      "inputs": [],
      "name": "countTags",
      "outputs": [
        {
          "internalType": "uint256",
          "name": "",
          "type": "uint256"
        }
      ],
      "stateMutability": "view",
      "type": "function"
    },
    {
      "inputs": [
        {
          "internalType": "string",
          "name": "title",
          "type": "string"
        },
        {
          "internalType": "string",
          "name": "body",
          "type": "string"
        },
        {
          "internalType": "bytes32[]",
          "name": "tags",
          "type": "bytes32[]"
        }
      ],
      "name": "createQuestion",
      "outputs": [],
      "stateMutability": "nonpayable",
      "type": "function"
    },
    {
      "inputs": [
        {
          "internalType": "string",
          "name": "name",
          "type": "string"
        },
        {
          "internalType": "string",
          "name": "description",
          "type": "string"
        }
      ],
      "name": "createTag",
      "outputs": [],
      "stateMutability": "nonpayable",
      "type": "function"
    },
    {
      "inputs": [
        {
          "internalType": "bytes32",
          "name": "id",
          "type": "bytes32"
        }
      ],
      "name": "deleteQuestionById",
      "outputs": [],
      "stateMutability": "nonpayable",
      "type": "function"
    },
    {
      "inputs": [
        {
          "internalType": "bytes32",
          "name": "id",
          "type": "bytes32"
        }
      ],
      "name": "deleteTagById",
      "outputs": [],
      "stateMutability": "nonpayable",
      "type": "function"
    },
    {
      "inputs": [
        {
          "internalType": "bytes32",
          "name": "id",
          "type": "bytes32"
        }
      ],
      "name": "getQuestionById",
      "outputs": [
        {
          "components": [
            {
              "internalType": "bytes32",
              "name": "id",
              "type": "bytes32"
            },
            {
              "internalType": "string",
              "name": "title",
              "type": "string"
            },
            {
              "internalType": "string",
              "name": "body",
              "type": "string"
            },
            {
              "internalType": "address",
              "name": "creator",
              "type": "address"
            },
            {
              "internalType": "bool",
              "name": "deleted",
              "type": "bool"
            },
            {
              "internalType": "bytes32[]",
              "name": "tags",
              "type": "bytes32[]"
            }
          ],
          "internalType": "struct QuestionTypes.Question",
          "name": "",
          "type": "tuple"
        }
      ],
      "stateMutability": "view",
      "type": "function"
    },
    {
      "inputs": [
        {
          "internalType": "uint256",
          "name": "index",
          "type": "uint256"
        }
      ],
      "name": "getQuestionByIndex",
      "outputs": [
        {
          "components": [
            {
              "internalType": "bytes32",
              "name": "id",
              "type": "bytes32"
            },
            {
              "internalType": "string",
              "name": "title",
              "type": "string"
            },
            {
              "internalType": "string",
              "name": "body",
              "type": "string"
            },
            {
              "internalType": "address",
              "name": "creator",
              "type": "address"
            },
            {
              "internalType": "bool",
              "name": "deleted",
              "type": "bool"
            },
            {
              "internalType": "bytes32[]",
              "name": "tags",
              "type": "bytes32[]"
            }
          ],
          "internalType": "struct QuestionTypes.Question",
          "name": "",
          "type": "tuple"
        }
      ],
      "stateMutability": "view",
      "type": "function"
    },
    {
      "inputs": [
        {
          "internalType": "bytes32",
          "name": "id",
          "type": "bytes32"
        }
      ],
      "name": "getTagById",
      "outputs": [
        {
          "components": [
            {
              "internalType": "bytes32",
              "name": "id",
              "type": "bytes32"
            },
            {
              "internalType": "string",
              "name": "name",
              "type": "string"
            },
            {
              "internalType": "string",
              "name": "description",
              "type": "string"
            },
            {
              "internalType": "bool",
              "name": "deleted",
              "type": "bool"
            },
            {
              "internalType": "address",
              "name": "creator",
              "type": "address"
            }
          ],
          "internalType": "struct TagTypes.Tag",
          "name": "",
          "type": "tuple"
        }
      ],
      "stateMutability": "view",
      "type": "function"
    },
    {
      "inputs": [
        {
          "internalType": "uint256",
          "name": "index",
          "type": "uint256"
        }
      ],
      "name": "getTagByIndex",
      "outputs": [
        {
          "components": [
            {
              "internalType": "bytes32",
              "name": "id",
              "type": "bytes32"
            },
            {
              "internalType": "string",
              "name": "name",
              "type": "string"
            },
            {
              "internalType": "string",
              "name": "description",
              "type": "string"
            },
            {
              "internalType": "bool",
              "name": "deleted",
              "type": "bool"
            },
            {
              "internalType": "address",
              "name": "creator",
              "type": "address"
            }
          ],
          "internalType": "struct TagTypes.Tag",
          "name": "",
          "type": "tuple"
        }
      ],
      "stateMutability": "view",
      "type": "function"
    },
    {
      "inputs": [],
      "name": "owner",
      "outputs": [
        {
          "internalType": "address",
          "name": "",
          "type": "address"
        }
      ],
      "stateMutability": "view",
      "type": "function"
    },
    {
      "inputs": [],
      "name": "renounceOwnership",
      "outputs": [],
      "stateMutability": "nonpayable",
      "type": "function"
    },
    {
      "inputs": [
        {
          "internalType": "address",
          "name": "newOwner",
          "type": "address"
        }
      ],
      "name": "transferOwnership",
      "outputs": [],
      "stateMutability": "nonpayable",
      "type": "function"
    },
    {
      "inputs": [
        {
          "internalType": "bytes32",
          "name": "id",
          "type": "bytes32"
        },
        {
          "internalType": "string",
          "name": "title",
          "type": "string"
        },
        {
          "internalType": "string",
          "name": "body",
          "type": "string"
        },
        {
          "internalType": "bytes32[]",
          "name": "tags",
          "type": "bytes32[]"
        }
      ],
      "name": "updateQuestion",
      "outputs": [],
      "stateMutability": "nonpayable",
      "type": "function"
    },
    {
      "inputs": [
        {
          "internalType": "bytes32",
          "name": "id",
          "type": "bytes32"
        },
        {
          "internalType": "string",
          "name": "description",
          "type": "string"
        }
      ],
      "name": "updateTag",
      "outputs": [],
      "stateMutability": "nonpayable",
      "type": "function"
    },
    {
      "inputs": [
        {
          "internalType": "address",
          "name": "_questionLogicAddr",
          "type": "address"
        }
      ],
      "name": "upgradeQuestionLogic",
      "outputs": [],
      "stateMutability": "nonpayable",
      "type": "function"
    },
    {
      "inputs": [
        {
          "internalType": "address",
          "name": "_tagLogicAddr",
          "type": "address"
        }
      ],
      "name": "upgradeTagLogic",
      "outputs": [],
      "stateMutability": "nonpayable",
      "type": "function"
    }
  ],
  "bytecode": "0x60806040523480156200001157600080fd5b5060405162002233380380620022338339818101604052810190620000379190620001c4565b620000576200004b620000e160201b60201c565b620000e960201b60201c565b81600160006101000a81548173ffffffffffffffffffffffffffffffffffffffff021916908373ffffffffffffffffffffffffffffffffffffffff16021790555080600260006101000a81548173ffffffffffffffffffffffffffffffffffffffff021916908373ffffffffffffffffffffffffffffffffffffffff160217905550505062000253565b600033905090565b60008060009054906101000a900473ffffffffffffffffffffffffffffffffffffffff169050816000806101000a81548173ffffffffffffffffffffffffffffffffffffffff021916908373ffffffffffffffffffffffffffffffffffffffff1602179055508173ffffffffffffffffffffffffffffffffffffffff168173ffffffffffffffffffffffffffffffffffffffff167f8be0079c531659141344cd1fd0a4f28419497f9722a3daafe3b4186f6b6457e060405160405180910390a35050565b600081519050620001be8162000239565b92915050565b60008060408385031215620001d857600080fd5b6000620001e885828601620001ad565b9250506020620001fb85828601620001ad565b9150509250929050565b6000620002128262000219565b9050919050565b600073ffffffffffffffffffffffffffffffffffffffff82169050919050565b620002448162000205565b81146200025057600080fd5b50565b611fd080620002636000396000f3fe608060405234801561001057600080fd5b506004361061010b5760003560e01c806379bf9bcd116100a2578063c1823dbb11610071578063c1823dbb14610266578063c6844d0614610284578063cd93cec5146102b4578063f2fde38b146102e4578063fd69b8e4146103005761010b565b806379bf9bcd146101f25780638da5cb5b14610210578063956b21cb1461022e5780639ef096d11461024a5761010b565b80636dd764cd116100de5780636dd764cd14610180578063715018a61461019c57806376627da1146101a657806377e97f37146101c25761010b565b8063223c3ee714610110578063372d47681461012c5780634ea43ac2146101485780635970a73914610164575b600080fd5b61012a6004803603810190610125919061143a565b610330565b005b610146600480360381019061014191906115b4565b6103f0565b005b610162600480360381019061015d9190611509565b6104a6565b005b61017e60048036038101906101799190611620565b610562565b005b61019a6004803603810190610195919061148c565b61061b565b005b6101a46106ad565b005b6101c060048036038101906101bb919061143a565b610735565b005b6101dc60048036038101906101d79190611739565b6107f5565b6040516101e99190611c69565b60405180910390f35b6101fa6108b4565b6040516102079190611cad565b60405180910390f35b61021861095b565b6040516102259190611a85565b60405180910390f35b6102486004803603810190610243919061148c565b610984565b005b610264600480360381019061025f91906114b5565b610a16565b005b61026e610acc565b60405161027b9190611cad565b60405180910390f35b61029e6004803603810190610299919061148c565b610b73565b6040516102ab9190611c69565b60405180910390f35b6102ce60048036038101906102c9919061148c565b610c32565b6040516102db9190611c8b565b60405180910390f35b6102fe60048036038101906102f9919061143a565b610cf1565b005b61031a60048036038101906103159190611739565b610de9565b6040516103279190611c8b565b60405180910390f35b610338610ea8565b73ffffffffffffffffffffffffffffffffffffffff1661035661095b565b73ffffffffffffffffffffffffffffffffffffffff16146103ac576040517f08c379a00000000000000000000000000000000000000000000000000000000081526004016103a390611c49565b60405180910390fd5b80600160006101000a81548173ffffffffffffffffffffffffffffffffffffffff021916908373ffffffffffffffffffffffffffffffffffffffff16021790555050565b600160009054906101000a900473ffffffffffffffffffffffffffffffffffffffff1673ffffffffffffffffffffffffffffffffffffffff1663796d58363384846040518463ffffffff1660e01b815260040161044f93929190611b6f565b602060405180830381600087803b15801561046957600080fd5b505af115801561047d573d6000803e3d6000fd5b505050506040513d601f19601f820116820180604052508101906104a19190611463565b505050565b600260009054906101000a900473ffffffffffffffffffffffffffffffffffffffff1673ffffffffffffffffffffffffffffffffffffffff16634de44e1433868686866040518663ffffffff1660e01b8152600401610509959493929190611b07565b602060405180830381600087803b15801561052357600080fd5b505af1158015610537573d6000803e3d6000fd5b505050506040513d601f19601f8201168201806040525081019061055b9190611463565b5050505050565b600260009054906101000a900473ffffffffffffffffffffffffffffffffffffffff1673ffffffffffffffffffffffffffffffffffffffff1663aaf45188338585856040518563ffffffff1660e01b81526004016105c39493929190611bb4565b602060405180830381600087803b1580156105dd57600080fd5b505af11580156105f1573d6000803e3d6000fd5b505050506040513d601f19601f820116820180604052508101906106159190611463565b50505050565b600160009054906101000a900473ffffffffffffffffffffffffffffffffffffffff1673ffffffffffffffffffffffffffffffffffffffff16637d0f5ce333836040518363ffffffff1660e01b8152600401610678929190611aa0565b600060405180830381600087803b15801561069257600080fd5b505af11580156106a6573d6000803e3d6000fd5b5050505050565b6106b5610ea8565b73ffffffffffffffffffffffffffffffffffffffff166106d361095b565b73ffffffffffffffffffffffffffffffffffffffff1614610729576040517f08c379a000000000000000000000000000000000000000000000000000000000815260040161072090611c49565b60405180910390fd5b6107336000610eb0565b565b61073d610ea8565b73ffffffffffffffffffffffffffffffffffffffff1661075b61095b565b73ffffffffffffffffffffffffffffffffffffffff16146107b1576040517f08c379a00000000000000000000000000000000000000000000000000000000081526004016107a890611c49565b60405180910390fd5b80600260006101000a81548173ffffffffffffffffffffffffffffffffffffffff021916908373ffffffffffffffffffffffffffffffffffffffff16021790555050565b6107fd610f74565b600260009054906101000a900473ffffffffffffffffffffffffffffffffffffffff1673ffffffffffffffffffffffffffffffffffffffff16632d883a73836040518263ffffffff1660e01b81526004016108589190611cad565b60006040518083038186803b15801561087057600080fd5b505afa158015610884573d6000803e3d6000fd5b505050506040513d6000823e3d601f19601f820116820180604052508101906108ad91906116b7565b9050919050565b6000600260009054906101000a900473ffffffffffffffffffffffffffffffffffffffff1673ffffffffffffffffffffffffffffffffffffffff166306661abd6040518163ffffffff1660e01b815260040160206040518083038186803b15801561091e57600080fd5b505afa158015610932573d6000803e3d6000fd5b505050506040513d601f19601f820116820180604052508101906109569190611762565b905090565b60008060009054906101000a900473ffffffffffffffffffffffffffffffffffffffff16905090565b600260009054906101000a900473ffffffffffffffffffffffffffffffffffffffff1673ffffffffffffffffffffffffffffffffffffffff16637d0f5ce333836040518363ffffffff1660e01b81526004016109e1929190611aa0565b600060405180830381600087803b1580156109fb57600080fd5b505af1158015610a0f573d6000803e3d6000fd5b5050505050565b600160009054906101000a900473ffffffffffffffffffffffffffffffffffffffff1673ffffffffffffffffffffffffffffffffffffffff166322e7a2623384846040518463ffffffff1660e01b8152600401610a7593929190611ac9565b602060405180830381600087803b158015610a8f57600080fd5b505af1158015610aa3573d6000803e3d6000fd5b505050506040513d601f19601f82011682018060405250810190610ac79190611463565b505050565b6000600160009054906101000a900473ffffffffffffffffffffffffffffffffffffffff1673ffffffffffffffffffffffffffffffffffffffff166306661abd6040518163ffffffff1660e01b815260040160206040518083038186803b158015610b3657600080fd5b505afa158015610b4a573d6000803e3d6000fd5b505050506040513d601f19601f82011682018060405250810190610b6e9190611762565b905090565b610b7b610f74565b600260009054906101000a900473ffffffffffffffffffffffffffffffffffffffff1673ffffffffffffffffffffffffffffffffffffffff16632dff0d0d836040518263ffffffff1660e01b8152600401610bd69190611c0e565b60006040518083038186803b158015610bee57600080fd5b505afa158015610c02573d6000803e3d6000fd5b505050506040513d6000823e3d601f19601f82011682018060405250810190610c2b91906116b7565b9050919050565b610c3a610fc5565b600160009054906101000a900473ffffffffffffffffffffffffffffffffffffffff1673ffffffffffffffffffffffffffffffffffffffff16632dff0d0d836040518263ffffffff1660e01b8152600401610c959190611c0e565b60006040518083038186803b158015610cad57600080fd5b505afa158015610cc1573d6000803e3d6000fd5b505050506040513d6000823e3d601f19601f82011682018060405250810190610cea91906116f8565b9050919050565b610cf9610ea8565b73ffffffffffffffffffffffffffffffffffffffff16610d1761095b565b73ffffffffffffffffffffffffffffffffffffffff1614610d6d576040517f08c379a0000000000000000000000000000000000000000000000000000000008152600401610d6490611c49565b60405180910390fd5b600073ffffffffffffffffffffffffffffffffffffffff168173ffffffffffffffffffffffffffffffffffffffff161415610ddd576040517f08c379a0000000000000000000000000000000000000000000000000000000008152600401610dd490611c29565b60405180910390fd5b610de681610eb0565b50565b610df1610fc5565b600160009054906101000a900473ffffffffffffffffffffffffffffffffffffffff1673ffffffffffffffffffffffffffffffffffffffff16632d883a73836040518263ffffffff1660e01b8152600401610e4c9190611cad565b60006040518083038186803b158015610e6457600080fd5b505afa158015610e78573d6000803e3d6000fd5b505050506040513d6000823e3d601f19601f82011682018060405250810190610ea191906116f8565b9050919050565b600033905090565b60008060009054906101000a900473ffffffffffffffffffffffffffffffffffffffff169050816000806101000a81548173ffffffffffffffffffffffffffffffffffffffff021916908373ffffffffffffffffffffffffffffffffffffffff1602179055508173ffffffffffffffffffffffffffffffffffffffff168173ffffffffffffffffffffffffffffffffffffffff167f8be0079c531659141344cd1fd0a4f28419497f9722a3daafe3b4186f6b6457e060405160405180910390a35050565b6040518060c00160405280600080191681526020016060815260200160608152602001600073ffffffffffffffffffffffffffffffffffffffff168152602001600015158152602001606081525090565b6040518060a00160405280600080191681526020016060815260200160608152602001600015158152602001600073ffffffffffffffffffffffffffffffffffffffff1681525090565b600061102261101d84611ced565b611cc8565b9050808382526020820190508285602086028201111561104157600080fd5b60005b85811015611071578161105788826111f6565b845260208401935060208301925050600181019050611044565b5050509392505050565b600061108e61108984611ced565b611cc8565b905080838252602082019050828560208602820111156110ad57600080fd5b60005b858110156110dd57816110c3888261120b565b8452602084019350602083019250506001810190506110b0565b5050509392505050565b60006110fa6110f584611d19565b611cc8565b90508281526020810184848401111561111257600080fd5b61111d848285611e13565b509392505050565b600061113861113384611d19565b611cc8565b90508281526020810184848401111561115057600080fd5b61115b848285611e22565b509392505050565b60008135905061117281611f3e565b92915050565b60008151905061118781611f3e565b92915050565b600082601f83011261119e57600080fd5b81356111ae84826020860161100f565b91505092915050565b600082601f8301126111c857600080fd5b81516111d884826020860161107b565b91505092915050565b6000815190506111f081611f55565b92915050565b60008135905061120581611f6c565b92915050565b60008151905061121a81611f6c565b92915050565b600082601f83011261123157600080fd5b81356112418482602086016110e7565b91505092915050565b600082601f83011261125b57600080fd5b815161126b848260208601611125565b91505092915050565b600060c0828403121561128657600080fd5b61129060c0611cc8565b905060006112a08482850161120b565b600083015250602082015167ffffffffffffffff8111156112c057600080fd5b6112cc8482850161124a565b602083015250604082015167ffffffffffffffff8111156112ec57600080fd5b6112f88482850161124a565b604083015250606061130c84828501611178565b6060830152506080611320848285016111e1565b60808301525060a082015167ffffffffffffffff81111561134057600080fd5b61134c848285016111b7565b60a08301525092915050565b600060a0828403121561136a57600080fd5b61137460a0611cc8565b905060006113848482850161120b565b600083015250602082015167ffffffffffffffff8111156113a457600080fd5b6113b08482850161124a565b602083015250604082015167ffffffffffffffff8111156113d057600080fd5b6113dc8482850161124a565b60408301525060606113f0848285016111e1565b606083015250608061140484828501611178565b60808301525092915050565b60008135905061141f81611f83565b92915050565b60008151905061143481611f83565b92915050565b60006020828403121561144c57600080fd5b600061145a84828501611163565b91505092915050565b60006020828403121561147557600080fd5b6000611483848285016111e1565b91505092915050565b60006020828403121561149e57600080fd5b60006114ac848285016111f6565b91505092915050565b600080604083850312156114c857600080fd5b60006114d6858286016111f6565b925050602083013567ffffffffffffffff8111156114f357600080fd5b6114ff85828601611220565b9150509250929050565b6000806000806080858703121561151f57600080fd5b600061152d878288016111f6565b945050602085013567ffffffffffffffff81111561154a57600080fd5b61155687828801611220565b935050604085013567ffffffffffffffff81111561157357600080fd5b61157f87828801611220565b925050606085013567ffffffffffffffff81111561159c57600080fd5b6115a88782880161118d565b91505092959194509250565b600080604083850312156115c757600080fd5b600083013567ffffffffffffffff8111156115e157600080fd5b6115ed85828601611220565b925050602083013567ffffffffffffffff81111561160a57600080fd5b61161685828601611220565b9150509250929050565b60008060006060848603121561163557600080fd5b600084013567ffffffffffffffff81111561164f57600080fd5b61165b86828701611220565b935050602084013567ffffffffffffffff81111561167857600080fd5b61168486828701611220565b925050604084013567ffffffffffffffff8111156116a157600080fd5b6116ad8682870161118d565b9150509250925092565b6000602082840312156116c957600080fd5b600082015167ffffffffffffffff8111156116e357600080fd5b6116ef84828501611274565b91505092915050565b60006020828403121561170a57600080fd5b600082015167ffffffffffffffff81111561172457600080fd5b61173084828501611358565b91505092915050565b60006020828403121561174b57600080fd5b600061175984828501611410565b91505092915050565b60006020828403121561177457600080fd5b600061178284828501611425565b91505092915050565b6000611797838361188c565b60208301905092915050565b6117ac81611dc1565b82525050565b6117bb81611dc1565b82525050565b60006117cc82611d5a565b6117d68185611d7d565b93506117e183611d4a565b8060005b838110156118125781516117f9888261178b565b975061180483611d70565b9250506001810190506117e5565b5085935050505092915050565b600061182a82611d5a565b6118348185611d8e565b935061183f83611d4a565b8060005b83811015611870578151611857888261178b565b975061186283611d70565b925050600181019050611843565b5085935050505092915050565b61188681611dd3565b82525050565b61189581611ddf565b82525050565b6118a481611ddf565b82525050565b60006118b582611d65565b6118bf8185611d9f565b93506118cf818560208601611e22565b6118d881611eb5565b840191505092915050565b60006118ee82611d65565b6118f88185611db0565b9350611908818560208601611e22565b61191181611eb5565b840191505092915050565b6000611929602683611db0565b915061193482611ec6565b604082019050919050565b600061194c602083611db0565b915061195782611f15565b602082019050919050565b600060c08301600083015161197a600086018261188c565b506020830151848203602086015261199282826118aa565b915050604083015184820360408601526119ac82826118aa565b91505060608301516119c160608601826117a3565b5060808301516119d4608086018261187d565b5060a083015184820360a08601526119ec82826117c1565b9150508091505092915050565b600060a083016000830151611a11600086018261188c565b5060208301518482036020860152611a2982826118aa565b91505060408301518482036040860152611a4382826118aa565b9150506060830151611a58606086018261187d565b506080830151611a6b60808601826117a3565b508091505092915050565b611a7f81611e09565b82525050565b6000602082019050611a9a60008301846117b2565b92915050565b6000604082019050611ab560008301856117b2565b611ac2602083018461189b565b9392505050565b6000606082019050611ade60008301866117b2565b611aeb602083018561189b565b8181036040830152611afd81846118e3565b9050949350505050565b600060a082019050611b1c60008301886117b2565b611b29602083018761189b565b8181036040830152611b3b81866118e3565b90508181036060830152611b4f81856118e3565b90508181036080830152611b63818461181f565b90509695505050505050565b6000606082019050611b8460008301866117b2565b8181036020830152611b9681856118e3565b90508181036040830152611baa81846118e3565b9050949350505050565b6000608082019050611bc960008301876117b2565b8181036020830152611bdb81866118e3565b90508181036040830152611bef81856118e3565b90508181036060830152611c03818461181f565b905095945050505050565b6000602082019050611c23600083018461189b565b92915050565b60006020820190508181036000830152611c428161191c565b9050919050565b60006020820190508181036000830152611c628161193f565b9050919050565b60006020820190508181036000830152611c838184611962565b905092915050565b60006020820190508181036000830152611ca581846119f9565b905092915050565b6000602082019050611cc26000830184611a76565b92915050565b6000611cd2611ce3565b9050611cde8282611e55565b919050565b6000604051905090565b600067ffffffffffffffff821115611d0857611d07611e86565b5b602082029050602081019050919050565b600067ffffffffffffffff821115611d3457611d33611e86565b5b611d3d82611eb5565b9050602081019050919050565b6000819050602082019050919050565b600081519050919050565b600081519050919050565b6000602082019050919050565b600082825260208201905092915050565b600082825260208201905092915050565b600082825260208201905092915050565b600082825260208201905092915050565b6000611dcc82611de9565b9050919050565b60008115159050919050565b6000819050919050565b600073ffffffffffffffffffffffffffffffffffffffff82169050919050565b6000819050919050565b82818337600083830152505050565b60005b83811015611e40578082015181840152602081019050611e25565b83811115611e4f576000848401525b50505050565b611e5e82611eb5565b810181811067ffffffffffffffff82111715611e7d57611e7c611e86565b5b80604052505050565b7f4e487b7100000000000000000000000000000000000000000000000000000000600052604160045260246000fd5b6000601f19601f8301169050919050565b7f4f776e61626c653a206e6577206f776e657220697320746865207a65726f206160008201527f6464726573730000000000000000000000000000000000000000000000000000602082015250565b7f4f776e61626c653a2063616c6c6572206973206e6f7420746865206f776e6572600082015250565b611f4781611dc1565b8114611f5257600080fd5b50565b611f5e81611dd3565b8114611f6957600080fd5b50565b611f7581611ddf565b8114611f8057600080fd5b50565b611f8c81611e09565b8114611f9757600080fd5b5056fea264697066735822122082931f0cd64348398498382196bec2edd23af08ffab80774f299ba733774489364736f6c63430008040033",
  "linkReferences": {},
  "deployedLinkReferences": {}
}