{
  "_format": "hh-sol-artifact-1",
  "contractName": "QuestionLogic",
  "sourceName": "contracts/question/QuestionLogic.sol",
  "abi": [
    {
      "inputs": [
        {
          "internalType": "address",
          "name": "_questionStoreAddr",
          "type": "address"
        }
      ],
      "stateMutability": "nonpayable",
      "type": "constructor"
    },
    {
      "anonymous": false,
      "inputs": [
        {
          "indexed": true,
          "internalType": "address",
          "name": "previousOwner",
          "type": "address"
        },
        {
          "indexed": true,
          "internalType": "address",
          "name": "newOwner",
          "type": "address"
        }
      ],
      "name": "OwnershipTransferred",
      "type": "event"
    },
    {
      "inputs": [],
      "name": "count",
      "outputs": [
        {
          "internalType": "uint256",
          "name": "",
          "type": "uint256"
        }
      ],
      "stateMutability": "view",
      "type": "function"
    },
    {
      "inputs": [
        {
          "internalType": "address",
          "name": "caller",
          "type": "address"
        },
        {
          "internalType": "string",
          "name": "title",
          "type": "string"
        },
        {
          "internalType": "string",
          "name": "body",
          "type": "string"
        },
        {
          "internalType": "bytes32[]",
          "name": "tags",
          "type": "bytes32[]"
        }
      ],
      "name": "create",
      "outputs": [
        {
          "internalType": "bool",
          "name": "success",
          "type": "bool"
        }
      ],
      "stateMutability": "nonpayable",
      "type": "function"
    },
    {
      "inputs": [
        {
          "internalType": "address",
          "name": "caller",
          "type": "address"
        },
        {
          "internalType": "bytes32",
          "name": "id",
          "type": "bytes32"
        }
      ],
      "name": "deleteById",
      "outputs": [],
      "stateMutability": "nonpayable",
      "type": "function"
    },
    {
      "inputs": [
        {
          "internalType": "bytes32",
          "name": "id",
          "type": "bytes32"
        }
      ],
      "name": "getById",
      "outputs": [
        {
          "components": [
            {
              "internalType": "bytes32",
              "name": "id",
              "type": "bytes32"
            },
            {
              "internalType": "string",
              "name": "title",
              "type": "string"
            },
            {
              "internalType": "string",
              "name": "body",
              "type": "string"
            },
            {
              "internalType": "address",
              "name": "creator",
              "type": "address"
            },
            {
              "internalType": "bool",
              "name": "deleted",
              "type": "bool"
            },
            {
              "internalType": "bytes32[]",
              "name": "tags",
              "type": "bytes32[]"
            }
          ],
          "internalType": "struct QuestionTypes.Question",
          "name": "",
          "type": "tuple"
        }
      ],
      "stateMutability": "view",
      "type": "function"
    },
    {
      "inputs": [
        {
          "internalType": "uint256",
          "name": "index",
          "type": "uint256"
        }
      ],
      "name": "getByIndex",
      "outputs": [
        {
          "components": [
            {
              "internalType": "bytes32",
              "name": "id",
              "type": "bytes32"
            },
            {
              "internalType": "string",
              "name": "title",
              "type": "string"
            },
            {
              "internalType": "string",
              "name": "body",
              "type": "string"
            },
            {
              "internalType": "address",
              "name": "creator",
              "type": "address"
            },
            {
              "internalType": "bool",
              "name": "deleted",
              "type": "bool"
            },
            {
              "internalType": "bytes32[]",
              "name": "tags",
              "type": "bytes32[]"
            }
          ],
          "internalType": "struct QuestionTypes.Question",
          "name": "",
          "type": "tuple"
        }
      ],
      "stateMutability": "view",
      "type": "function"
    },
    {
      "inputs": [],
      "name": "owner",
      "outputs": [
        {
          "internalType": "address",
          "name": "",
          "type": "address"
        }
      ],
      "stateMutability": "view",
      "type": "function"
    },
    {
      "inputs": [],
      "name": "renounceOwnership",
      "outputs": [],
      "stateMutability": "nonpayable",
      "type": "function"
    },
    {
      "inputs": [
        {
          "internalType": "address",
          "name": "newOwner",
          "type": "address"
        }
      ],
      "name": "transferOwnership",
      "outputs": [],
      "stateMutability": "nonpayable",
      "type": "function"
    },
    {
      "inputs": [
        {
          "internalType": "address",
          "name": "caller",
          "type": "address"
        },
        {
          "internalType": "bytes32",
          "name": "id",
          "type": "bytes32"
        },
        {
          "internalType": "string",
          "name": "title",
          "type": "string"
        },
        {
          "internalType": "string",
          "name": "body",
          "type": "string"
        },
        {
          "internalType": "bytes32[]",
          "name": "tags",
          "type": "bytes32[]"
        }
      ],
      "name": "update",
      "outputs": [
        {
          "internalType": "bool",
          "name": "success",
          "type": "bool"
        }
      ],
      "stateMutability": "nonpayable",
      "type": "function"
    },
    {
      "inputs": [
        {
          "internalType": "address",
          "name": "_alexandriaAddr",
          "type": "address"
        }
      ],
      "name": "upgradeAlexandria",
      "outputs": [],
      "stateMutability": "nonpayable",
      "type": "function"
    }
  ],
  "bytecode": "0x60806040523480156200001157600080fd5b5060405162001d7a38038062001d7a833981810160405281019062000037919062000182565b620000576200004b6200009f60201b60201c565b620000a760201b60201c565b80600260006101000a81548173ffffffffffffffffffffffffffffffffffffffff021916908373ffffffffffffffffffffffffffffffffffffffff16021790555050620001fc565b600033905090565b60008060009054906101000a900473ffffffffffffffffffffffffffffffffffffffff169050816000806101000a81548173ffffffffffffffffffffffffffffffffffffffff021916908373ffffffffffffffffffffffffffffffffffffffff1602179055508173ffffffffffffffffffffffffffffffffffffffff168173ffffffffffffffffffffffffffffffffffffffff167f8be0079c531659141344cd1fd0a4f28419497f9722a3daafe3b4186f6b6457e060405160405180910390a35050565b6000815190506200017c81620001e2565b92915050565b6000602082840312156200019557600080fd5b6000620001a5848285016200016b565b91505092915050565b6000620001bb82620001c2565b9050919050565b600073ffffffffffffffffffffffffffffffffffffffff82169050919050565b620001ed81620001ae565b8114620001f957600080fd5b50565b611b6e806200020c6000396000f3fe608060405234801561001057600080fd5b506004361061009e5760003560e01c8063715018a611610066578063715018a61461016d5780637d0f5ce3146101775780638da5cb5b14610193578063aaf45188146101b1578063f2fde38b146101e15761009e565b806306661abd146100a35780632d883a73146100c15780632dff0d0d146100f157806342dcf47f146101215780634de44e141461013d575b600080fd5b6100ab6101fd565b6040516100b89190611822565b60405180910390f35b6100db60048036038101906100d6919061138d565b610334565b6040516100e89190611800565b60405180910390f35b61010b60048036038101906101069190611323565b610483565b6040516101189190611800565b60405180910390f35b61013b6004803603810190610136919061112b565b6105d2565b005b61015760048036038101906101529190611190565b610692565b604051610164919061173a565b60405180910390f35b6101756107e4565b005b610191600480360381019061018c9190611154565b61086c565b005b61019b6109b0565b6040516101a8919061168e565b60405180910390f35b6101cb60048036038101906101c6919061124f565b6109d9565b6040516101d8919061173a565b60405180910390f35b6101fb60048036038101906101f6919061112b565b610b70565b005b6000600160009054906101000a900473ffffffffffffffffffffffffffffffffffffffff1673ffffffffffffffffffffffffffffffffffffffff163373ffffffffffffffffffffffffffffffffffffffff161461028f576040517f08c379a0000000000000000000000000000000000000000000000000000000008152600401610286906117a0565b60405180910390fd5b600260009054906101000a900473ffffffffffffffffffffffffffffffffffffffff1673ffffffffffffffffffffffffffffffffffffffff166306661abd6040518163ffffffff1660e01b815260040160206040518083038186803b1580156102f757600080fd5b505afa15801561030b573d6000803e3d6000fd5b505050506040513d601f19601f8201168201806040525081019061032f91906113b6565b905090565b61033c610d67565b600160009054906101000a900473ffffffffffffffffffffffffffffffffffffffff1673ffffffffffffffffffffffffffffffffffffffff163373ffffffffffffffffffffffffffffffffffffffff16146103cc576040517f08c379a00000000000000000000000000000000000000000000000000000000081526004016103c3906117a0565b60405180910390fd5b600260009054906101000a900473ffffffffffffffffffffffffffffffffffffffff1673ffffffffffffffffffffffffffffffffffffffff16632d883a73836040518263ffffffff1660e01b81526004016104279190611822565b60006040518083038186803b15801561043f57600080fd5b505afa158015610453573d6000803e3d6000fd5b505050506040513d6000823e3d601f19601f8201168201806040525081019061047c919061134c565b9050919050565b61048b610d67565b600160009054906101000a900473ffffffffffffffffffffffffffffffffffffffff1673ffffffffffffffffffffffffffffffffffffffff163373ffffffffffffffffffffffffffffffffffffffff161461051b576040517f08c379a0000000000000000000000000000000000000000000000000000000008152600401610512906117a0565b60405180910390fd5b600260009054906101000a900473ffffffffffffffffffffffffffffffffffffffff1673ffffffffffffffffffffffffffffffffffffffff16632dff0d0d836040518263ffffffff1660e01b81526004016105769190611755565b60006040518083038186803b15801561058e57600080fd5b505afa1580156105a2573d6000803e3d6000fd5b505050506040513d6000823e3d601f19601f820116820180604052508101906105cb919061134c565b9050919050565b6105da610c68565b73ffffffffffffffffffffffffffffffffffffffff166105f86109b0565b73ffffffffffffffffffffffffffffffffffffffff161461064e576040517f08c379a0000000000000000000000000000000000000000000000000000000008152600401610645906117e0565b60405180910390fd5b80600160006101000a81548173ffffffffffffffffffffffffffffffffffffffff021916908373ffffffffffffffffffffffffffffffffffffffff16021790555050565b6000600160009054906101000a900473ffffffffffffffffffffffffffffffffffffffff1673ffffffffffffffffffffffffffffffffffffffff163373ffffffffffffffffffffffffffffffffffffffff1614610724576040517f08c379a000000000000000000000000000000000000000000000000000000000815260040161071b906117a0565b60405180910390fd5b600260009054906101000a900473ffffffffffffffffffffffffffffffffffffffff1673ffffffffffffffffffffffffffffffffffffffff16634de44e1487878787876040518663ffffffff1660e01b81526004016107879594939291906116d2565b602060405180830381600087803b1580156107a157600080fd5b505af11580156107b5573d6000803e3d6000fd5b505050506040513d601f19601f820116820180604052508101906107d991906112fa565b905095945050505050565b6107ec610c68565b73ffffffffffffffffffffffffffffffffffffffff1661080a6109b0565b73ffffffffffffffffffffffffffffffffffffffff1614610860576040517f08c379a0000000000000000000000000000000000000000000000000000000008152600401610857906117e0565b60405180910390fd5b61086a6000610c70565b565b600160009054906101000a900473ffffffffffffffffffffffffffffffffffffffff1673ffffffffffffffffffffffffffffffffffffffff163373ffffffffffffffffffffffffffffffffffffffff16146108fc576040517f08c379a00000000000000000000000000000000000000000000000000000000081526004016108f3906117a0565b60405180910390fd5b600260009054906101000a900473ffffffffffffffffffffffffffffffffffffffff1673ffffffffffffffffffffffffffffffffffffffff16637d0f5ce383836040518363ffffffff1660e01b81526004016109599291906116a9565b602060405180830381600087803b15801561097357600080fd5b505af1158015610987573d6000803e3d6000fd5b505050506040513d601f19601f820116820180604052508101906109ab91906112fa565b505050565b60008060009054906101000a900473ffffffffffffffffffffffffffffffffffffffff16905090565b6000600160009054906101000a900473ffffffffffffffffffffffffffffffffffffffff1673ffffffffffffffffffffffffffffffffffffffff163373ffffffffffffffffffffffffffffffffffffffff1614610a6b576040517f08c379a0000000000000000000000000000000000000000000000000000000008152600401610a62906117a0565b60405180910390fd5b600260009054906101000a900473ffffffffffffffffffffffffffffffffffffffff1673ffffffffffffffffffffffffffffffffffffffff1663065116c76040518060c00160405280610abe888a610d34565b81526020018781526020018681526020018873ffffffffffffffffffffffffffffffffffffffff168152602001600015158152602001858152506040518263ffffffff1660e01b8152600401610b149190611800565b602060405180830381600087803b158015610b2e57600080fd5b505af1158015610b42573d6000803e3d6000fd5b505050506040513d601f19601f82011682018060405250810190610b6691906112fa565b9050949350505050565b610b78610c68565b73ffffffffffffffffffffffffffffffffffffffff16610b966109b0565b73ffffffffffffffffffffffffffffffffffffffff1614610bec576040517f08c379a0000000000000000000000000000000000000000000000000000000008152600401610be3906117e0565b60405180910390fd5b600073ffffffffffffffffffffffffffffffffffffffff168173ffffffffffffffffffffffffffffffffffffffff161415610c5c576040517f08c379a0000000000000000000000000000000000000000000000000000000008152600401610c53906117c0565b60405180910390fd5b610c6581610c70565b50565b600033905090565b60008060009054906101000a900473ffffffffffffffffffffffffffffffffffffffff169050816000806101000a81548173ffffffffffffffffffffffffffffffffffffffff021916908373ffffffffffffffffffffffffffffffffffffffff1602179055508173ffffffffffffffffffffffffffffffffffffffff168173ffffffffffffffffffffffffffffffffffffffff167f8be0079c531659141344cd1fd0a4f28419497f9722a3daafe3b4186f6b6457e060405160405180910390a35050565b60008282604051602001610d49929190611770565b60405160208183030381529060405280519060200120905092915050565b6040518060c00160405280600080191681526020016060815260200160608152602001600073ffffffffffffffffffffffffffffffffffffffff168152602001600015158152602001606081525090565b6000610dcb610dc684611862565b61183d565b90508083825260208201905082856020860282011115610dea57600080fd5b60005b85811015610e1a5781610e008882610f9f565b845260208401935060208301925050600181019050610ded565b5050509392505050565b6000610e37610e3284611862565b61183d565b90508083825260208201905082856020860282011115610e5657600080fd5b60005b85811015610e865781610e6c8882610fb4565b845260208401935060208301925050600181019050610e59565b5050509392505050565b6000610ea3610e9e8461188e565b61183d565b905082815260208101848484011115610ebb57600080fd5b610ec6848285611988565b509392505050565b6000610ee1610edc8461188e565b61183d565b905082815260208101848484011115610ef957600080fd5b610f04848285611997565b509392505050565b600081359050610f1b81611adc565b92915050565b600081519050610f3081611adc565b92915050565b600082601f830112610f4757600080fd5b8135610f57848260208601610db8565b91505092915050565b600082601f830112610f7157600080fd5b8151610f81848260208601610e24565b91505092915050565b600081519050610f9981611af3565b92915050565b600081359050610fae81611b0a565b92915050565b600081519050610fc381611b0a565b92915050565b600082601f830112610fda57600080fd5b8135610fea848260208601610e90565b91505092915050565b600082601f83011261100457600080fd5b8151611014848260208601610ece565b91505092915050565b600060c0828403121561102f57600080fd5b61103960c061183d565b9050600061104984828501610fb4565b600083015250602082015167ffffffffffffffff81111561106957600080fd5b61107584828501610ff3565b602083015250604082015167ffffffffffffffff81111561109557600080fd5b6110a184828501610ff3565b60408301525060606110b584828501610f21565b60608301525060806110c984828501610f8a565b60808301525060a082015167ffffffffffffffff8111156110e957600080fd5b6110f584828501610f60565b60a08301525092915050565b60008135905061111081611b21565b92915050565b60008151905061112581611b21565b92915050565b60006020828403121561113d57600080fd5b600061114b84828501610f0c565b91505092915050565b6000806040838503121561116757600080fd5b600061117585828601610f0c565b925050602061118685828601610f9f565b9150509250929050565b600080600080600060a086880312156111a857600080fd5b60006111b688828901610f0c565b95505060206111c788828901610f9f565b945050604086013567ffffffffffffffff8111156111e457600080fd5b6111f088828901610fc9565b935050606086013567ffffffffffffffff81111561120d57600080fd5b61121988828901610fc9565b925050608086013567ffffffffffffffff81111561123657600080fd5b61124288828901610f36565b9150509295509295909350565b6000806000806080858703121561126557600080fd5b600061127387828801610f0c565b945050602085013567ffffffffffffffff81111561129057600080fd5b61129c87828801610fc9565b935050604085013567ffffffffffffffff8111156112b957600080fd5b6112c587828801610fc9565b925050606085013567ffffffffffffffff8111156112e257600080fd5b6112ee87828801610f36565b91505092959194509250565b60006020828403121561130c57600080fd5b600061131a84828501610f8a565b91505092915050565b60006020828403121561133557600080fd5b600061134384828501610f9f565b91505092915050565b60006020828403121561135e57600080fd5b600082015167ffffffffffffffff81111561137857600080fd5b6113848482850161101d565b91505092915050565b60006020828403121561139f57600080fd5b60006113ad84828501611101565b91505092915050565b6000602082840312156113c857600080fd5b60006113d684828501611116565b91505092915050565b60006113eb83836114ef565b60208301905092915050565b61140081611936565b82525050565b61140f81611936565b82525050565b6000611420826118cf565b61142a81856118f2565b9350611435836118bf565b8060005b8381101561146657815161144d88826113df565b9750611458836118e5565b925050600181019050611439565b5085935050505092915050565b600061147e826118cf565b6114888185611903565b9350611493836118bf565b8060005b838110156114c45781516114ab88826113df565b97506114b6836118e5565b925050600181019050611497565b5085935050505092915050565b6114da81611948565b82525050565b6114e981611948565b82525050565b6114f881611954565b82525050565b61150781611954565b82525050565b6000611518826118da565b6115228185611914565b9350611532818560208601611997565b61153b81611a2a565b840191505092915050565b6000611551826118da565b61155b8185611925565b935061156b818560208601611997565b61157481611a2a565b840191505092915050565b600061158c600383611925565b915061159782611a3b565b602082019050919050565b60006115af602683611925565b91506115ba82611a64565b604082019050919050565b60006115d2602083611925565b91506115dd82611ab3565b602082019050919050565b600060c08301600083015161160060008601826114ef565b5060208301518482036020860152611618828261150d565b91505060408301518482036040860152611632828261150d565b915050606083015161164760608601826113f7565b50608083015161165a60808601826114d1565b5060a083015184820360a08601526116728282611415565b9150508091505092915050565b6116888161197e565b82525050565b60006020820190506116a36000830184611406565b92915050565b60006040820190506116be6000830185611406565b6116cb60208301846114fe565b9392505050565b600060a0820190506116e76000830188611406565b6116f460208301876114fe565b81810360408301526117068186611546565b9050818103606083015261171a8185611546565b9050818103608083015261172e8184611473565b90509695505050505050565b600060208201905061174f60008301846114e0565b92915050565b600060208201905061176a60008301846114fe565b92915050565b6000604082019050818103600083015261178a8185611546565b90506117996020830184611406565b9392505050565b600060208201905081810360008301526117b98161157f565b9050919050565b600060208201905081810360008301526117d9816115a2565b9050919050565b600060208201905081810360008301526117f9816115c5565b9050919050565b6000602082019050818103600083015261181a81846115e8565b905092915050565b6000602082019050611837600083018461167f565b92915050565b6000611847611858565b905061185382826119ca565b919050565b6000604051905090565b600067ffffffffffffffff82111561187d5761187c6119fb565b5b602082029050602081019050919050565b600067ffffffffffffffff8211156118a9576118a86119fb565b5b6118b282611a2a565b9050602081019050919050565b6000819050602082019050919050565b600081519050919050565b600081519050919050565b6000602082019050919050565b600082825260208201905092915050565b600082825260208201905092915050565b600082825260208201905092915050565b600082825260208201905092915050565b60006119418261195e565b9050919050565b60008115159050919050565b6000819050919050565b600073ffffffffffffffffffffffffffffffffffffffff82169050919050565b6000819050919050565b82818337600083830152505050565b60005b838110156119b557808201518184015260208101905061199a565b838111156119c4576000848401525b50505050565b6119d382611a2a565b810181811067ffffffffffffffff821117156119f2576119f16119fb565b5b80604052505050565b7f4e487b7100000000000000000000000000000000000000000000000000000000600052604160045260246000fd5b6000601f19601f8301169050919050565b7f3430330000000000000000000000000000000000000000000000000000000000600082015250565b7f4f776e61626c653a206e6577206f776e657220697320746865207a65726f206160008201527f6464726573730000000000000000000000000000000000000000000000000000602082015250565b7f4f776e61626c653a2063616c6c6572206973206e6f7420746865206f776e6572600082015250565b611ae581611936565b8114611af057600080fd5b50565b611afc81611948565b8114611b0757600080fd5b50565b611b1381611954565b8114611b1e57600080fd5b50565b611b2a8161197e565b8114611b3557600080fd5b5056fea264697066735822122059ab6b869353d468e1ad346627595b7e070f5796ccecdff768ff2892d5fb2d5164736f6c63430008040033",
  "linkReferences": {},
  "deployedLinkReferences": {}
}