{
  "_format": "hh-sol-artifact-1",
  "contractName": "QuestionLogic",
  "sourceName": "contracts/question/QuestionLogic.sol",
  "abi": [
    {
      "inputs": [
        {
          "internalType": "address",
          "name": "_questionStoreAddr",
          "type": "address"
        }
      ],
      "stateMutability": "nonpayable",
      "type": "constructor"
    },
    {
      "anonymous": false,
      "inputs": [
        {
          "indexed": true,
          "internalType": "address",
          "name": "previousOwner",
          "type": "address"
        },
        {
          "indexed": true,
          "internalType": "address",
          "name": "newOwner",
          "type": "address"
        }
      ],
      "name": "OwnershipTransferred",
      "type": "event"
    },
    {
      "inputs": [],
      "name": "count",
      "outputs": [
        {
          "internalType": "uint256",
          "name": "",
          "type": "uint256"
        }
      ],
      "stateMutability": "view",
      "type": "function"
    },
    {
      "inputs": [
        {
          "internalType": "address",
          "name": "caller",
          "type": "address"
        },
        {
          "internalType": "string",
          "name": "title",
          "type": "string"
        },
        {
          "internalType": "string",
          "name": "body",
          "type": "string"
        },
        {
          "internalType": "string[]",
          "name": "tags",
          "type": "string[]"
        }
      ],
      "name": "create",
      "outputs": [
        {
          "internalType": "bool",
          "name": "success",
          "type": "bool"
        }
      ],
      "stateMutability": "nonpayable",
      "type": "function"
    },
    {
      "inputs": [
        {
          "internalType": "address",
          "name": "caller",
          "type": "address"
        },
        {
          "internalType": "bytes32",
          "name": "id",
          "type": "bytes32"
        }
      ],
      "name": "deleteById",
      "outputs": [],
      "stateMutability": "nonpayable",
      "type": "function"
    },
    {
      "inputs": [
        {
          "internalType": "bytes32",
          "name": "id",
          "type": "bytes32"
        }
      ],
      "name": "getById",
      "outputs": [
        {
          "components": [
            {
              "internalType": "bytes32",
              "name": "id",
              "type": "bytes32"
            },
            {
              "internalType": "string",
              "name": "title",
              "type": "string"
            },
            {
              "internalType": "string",
              "name": "body",
              "type": "string"
            },
            {
              "internalType": "address",
              "name": "creator",
              "type": "address"
            },
            {
              "internalType": "bool",
              "name": "deleted",
              "type": "bool"
            },
            {
              "internalType": "string[]",
              "name": "tags",
              "type": "string[]"
            }
          ],
          "internalType": "struct QuestionTypes.Question",
          "name": "",
          "type": "tuple"
        }
      ],
      "stateMutability": "view",
      "type": "function"
    },
    {
      "inputs": [
        {
          "internalType": "uint256",
          "name": "index",
          "type": "uint256"
        }
      ],
      "name": "getByIndex",
      "outputs": [
        {
          "components": [
            {
              "internalType": "bytes32",
              "name": "id",
              "type": "bytes32"
            },
            {
              "internalType": "string",
              "name": "title",
              "type": "string"
            },
            {
              "internalType": "string",
              "name": "body",
              "type": "string"
            },
            {
              "internalType": "address",
              "name": "creator",
              "type": "address"
            },
            {
              "internalType": "bool",
              "name": "deleted",
              "type": "bool"
            },
            {
              "internalType": "string[]",
              "name": "tags",
              "type": "string[]"
            }
          ],
          "internalType": "struct QuestionTypes.Question",
          "name": "",
          "type": "tuple"
        }
      ],
      "stateMutability": "view",
      "type": "function"
    },
    {
      "inputs": [],
      "name": "owner",
      "outputs": [
        {
          "internalType": "address",
          "name": "",
          "type": "address"
        }
      ],
      "stateMutability": "view",
      "type": "function"
    },
    {
      "inputs": [],
      "name": "renounceOwnership",
      "outputs": [],
      "stateMutability": "nonpayable",
      "type": "function"
    },
    {
      "inputs": [
        {
          "internalType": "address",
          "name": "newOwner",
          "type": "address"
        }
      ],
      "name": "transferOwnership",
      "outputs": [],
      "stateMutability": "nonpayable",
      "type": "function"
    },
    {
      "inputs": [
        {
          "internalType": "address",
          "name": "caller",
          "type": "address"
        },
        {
          "internalType": "bytes32",
          "name": "id",
          "type": "bytes32"
        },
        {
          "internalType": "string",
          "name": "title",
          "type": "string"
        },
        {
          "internalType": "string",
          "name": "body",
          "type": "string"
        },
        {
          "internalType": "string[]",
          "name": "tags",
          "type": "string[]"
        }
      ],
      "name": "update",
      "outputs": [
        {
          "internalType": "bool",
          "name": "success",
          "type": "bool"
        }
      ],
      "stateMutability": "nonpayable",
      "type": "function"
    },
    {
      "inputs": [
        {
          "internalType": "address",
          "name": "_alexandriaAddr",
          "type": "address"
        }
      ],
      "name": "upgradeAlexandria",
      "outputs": [],
      "stateMutability": "nonpayable",
      "type": "function"
    }
  ],
  "bytecode": "0x60806040523480156200001157600080fd5b5060405162001dd838038062001dd8833981810160405281019062000037919062000182565b620000576200004b6200009f60201b60201c565b620000a760201b60201c565b80600260006101000a81548173ffffffffffffffffffffffffffffffffffffffff021916908373ffffffffffffffffffffffffffffffffffffffff16021790555050620001fc565b600033905090565b60008060009054906101000a900473ffffffffffffffffffffffffffffffffffffffff169050816000806101000a81548173ffffffffffffffffffffffffffffffffffffffff021916908373ffffffffffffffffffffffffffffffffffffffff1602179055508173ffffffffffffffffffffffffffffffffffffffff168173ffffffffffffffffffffffffffffffffffffffff167f8be0079c531659141344cd1fd0a4f28419497f9722a3daafe3b4186f6b6457e060405160405180910390a35050565b6000815190506200017c81620001e2565b92915050565b6000602082840312156200019557600080fd5b6000620001a5848285016200016b565b91505092915050565b6000620001bb82620001c2565b9050919050565b600073ffffffffffffffffffffffffffffffffffffffff82169050919050565b620001ed81620001ae565b8114620001f957600080fd5b50565b611bcc806200020c6000396000f3fe608060405234801561001057600080fd5b506004361061009e5760003560e01c8063715018a611610066578063715018a61461016d5780637d0f5ce3146101775780638da5cb5b146101935780639de5ec4c146101b1578063f2fde38b146101e15761009e565b8063047e5279146100a357806306661abd146100d35780632d883a73146100f15780632dff0d0d1461012157806342dcf47f14610151575b600080fd5b6100bd60048036038101906100b89190611283565b6101fd565b6040516100ca9190611798565b60405180910390f35b6100db610394565b6040516100e89190611880565b60405180910390f35b61010b600480360381019061010691906113c1565b6104cb565b604051610118919061185e565b60405180910390f35b61013b60048036038101906101369190611357565b61061a565b604051610148919061185e565b60405180910390f35b61016b6004803603810190610166919061115f565b610769565b005b610175610829565b005b610191600480360381019061018c9190611188565b6108b1565b005b61019b6109f5565b6040516101a891906116ec565b60405180910390f35b6101cb60048036038101906101c691906111c4565b610a1e565b6040516101d89190611798565b60405180910390f35b6101fb60048036038101906101f6919061115f565b610b70565b005b6000600160009054906101000a900473ffffffffffffffffffffffffffffffffffffffff1673ffffffffffffffffffffffffffffffffffffffff163373ffffffffffffffffffffffffffffffffffffffff161461028f576040517f08c379a0000000000000000000000000000000000000000000000000000000008152600401610286906117fe565b60405180910390fd5b600260009054906101000a900473ffffffffffffffffffffffffffffffffffffffff1673ffffffffffffffffffffffffffffffffffffffff166391a7600d6040518060c001604052806102e2888a610c68565b81526020018781526020018681526020018873ffffffffffffffffffffffffffffffffffffffff168152602001600015158152602001858152506040518263ffffffff1660e01b8152600401610338919061185e565b602060405180830381600087803b15801561035257600080fd5b505af1158015610366573d6000803e3d6000fd5b505050506040513d601f19601f8201168201806040525081019061038a919061132e565b9050949350505050565b6000600160009054906101000a900473ffffffffffffffffffffffffffffffffffffffff1673ffffffffffffffffffffffffffffffffffffffff163373ffffffffffffffffffffffffffffffffffffffff1614610426576040517f08c379a000000000000000000000000000000000000000000000000000000000815260040161041d906117fe565b60405180910390fd5b600260009054906101000a900473ffffffffffffffffffffffffffffffffffffffff1673ffffffffffffffffffffffffffffffffffffffff166306661abd6040518163ffffffff1660e01b815260040160206040518083038186803b15801561048e57600080fd5b505afa1580156104a2573d6000803e3d6000fd5b505050506040513d601f19601f820116820180604052508101906104c691906113ea565b905090565b6104d3610d67565b600160009054906101000a900473ffffffffffffffffffffffffffffffffffffffff1673ffffffffffffffffffffffffffffffffffffffff163373ffffffffffffffffffffffffffffffffffffffff1614610563576040517f08c379a000000000000000000000000000000000000000000000000000000000815260040161055a906117fe565b60405180910390fd5b600260009054906101000a900473ffffffffffffffffffffffffffffffffffffffff1673ffffffffffffffffffffffffffffffffffffffff16632d883a73836040518263ffffffff1660e01b81526004016105be9190611880565b60006040518083038186803b1580156105d657600080fd5b505afa1580156105ea573d6000803e3d6000fd5b505050506040513d6000823e3d601f19601f820116820180604052508101906106139190611380565b9050919050565b610622610d67565b600160009054906101000a900473ffffffffffffffffffffffffffffffffffffffff1673ffffffffffffffffffffffffffffffffffffffff163373ffffffffffffffffffffffffffffffffffffffff16146106b2576040517f08c379a00000000000000000000000000000000000000000000000000000000081526004016106a9906117fe565b60405180910390fd5b600260009054906101000a900473ffffffffffffffffffffffffffffffffffffffff1673ffffffffffffffffffffffffffffffffffffffff16632dff0d0d836040518263ffffffff1660e01b815260040161070d91906117b3565b60006040518083038186803b15801561072557600080fd5b505afa158015610739573d6000803e3d6000fd5b505050506040513d6000823e3d601f19601f820116820180604052508101906107629190611380565b9050919050565b610771610c9b565b73ffffffffffffffffffffffffffffffffffffffff1661078f6109f5565b73ffffffffffffffffffffffffffffffffffffffff16146107e5576040517f08c379a00000000000000000000000000000000000000000000000000000000081526004016107dc9061183e565b60405180910390fd5b80600160006101000a81548173ffffffffffffffffffffffffffffffffffffffff021916908373ffffffffffffffffffffffffffffffffffffffff16021790555050565b610831610c9b565b73ffffffffffffffffffffffffffffffffffffffff1661084f6109f5565b73ffffffffffffffffffffffffffffffffffffffff16146108a5576040517f08c379a000000000000000000000000000000000000000000000000000000000815260040161089c9061183e565b60405180910390fd5b6108af6000610ca3565b565b600160009054906101000a900473ffffffffffffffffffffffffffffffffffffffff1673ffffffffffffffffffffffffffffffffffffffff163373ffffffffffffffffffffffffffffffffffffffff1614610941576040517f08c379a0000000000000000000000000000000000000000000000000000000008152600401610938906117fe565b60405180910390fd5b600260009054906101000a900473ffffffffffffffffffffffffffffffffffffffff1673ffffffffffffffffffffffffffffffffffffffff16637d0f5ce383836040518363ffffffff1660e01b815260040161099e929190611707565b602060405180830381600087803b1580156109b857600080fd5b505af11580156109cc573d6000803e3d6000fd5b505050506040513d601f19601f820116820180604052508101906109f0919061132e565b505050565b60008060009054906101000a900473ffffffffffffffffffffffffffffffffffffffff16905090565b6000600160009054906101000a900473ffffffffffffffffffffffffffffffffffffffff1673ffffffffffffffffffffffffffffffffffffffff163373ffffffffffffffffffffffffffffffffffffffff1614610ab0576040517f08c379a0000000000000000000000000000000000000000000000000000000008152600401610aa7906117fe565b60405180910390fd5b600260009054906101000a900473ffffffffffffffffffffffffffffffffffffffff1673ffffffffffffffffffffffffffffffffffffffff16639de5ec4c87878787876040518663ffffffff1660e01b8152600401610b13959493929190611730565b602060405180830381600087803b158015610b2d57600080fd5b505af1158015610b41573d6000803e3d6000fd5b505050506040513d601f19601f82011682018060405250810190610b65919061132e565b905095945050505050565b610b78610c9b565b73ffffffffffffffffffffffffffffffffffffffff16610b966109f5565b73ffffffffffffffffffffffffffffffffffffffff1614610bec576040517f08c379a0000000000000000000000000000000000000000000000000000000008152600401610be39061183e565b60405180910390fd5b600073ffffffffffffffffffffffffffffffffffffffff168173ffffffffffffffffffffffffffffffffffffffff161415610c5c576040517f08c379a0000000000000000000000000000000000000000000000000000000008152600401610c539061181e565b60405180910390fd5b610c6581610ca3565b50565b60008282604051602001610c7d9291906117ce565b60405160208183030381529060405280519060200120905092915050565b600033905090565b60008060009054906101000a900473ffffffffffffffffffffffffffffffffffffffff169050816000806101000a81548173ffffffffffffffffffffffffffffffffffffffff021916908373ffffffffffffffffffffffffffffffffffffffff1602179055508173ffffffffffffffffffffffffffffffffffffffff168173ffffffffffffffffffffffffffffffffffffffff167f8be0079c531659141344cd1fd0a4f28419497f9722a3daafe3b4186f6b6457e060405160405180910390a35050565b6040518060c00160405280600080191681526020016060815260200160608152602001600073ffffffffffffffffffffffffffffffffffffffff168152602001600015158152602001606081525090565b6000610dcb610dc6846118c0565b61189b565b90508083825260208201905082856020860282011115610dea57600080fd5b60005b85811015610e3457813567ffffffffffffffff811115610e0c57600080fd5b808601610e198982610ffd565b85526020850194506020840193505050600181019050610ded565b5050509392505050565b6000610e51610e4c846118c0565b61189b565b90508083825260208201905082856020860282011115610e7057600080fd5b60005b85811015610eba57815167ffffffffffffffff811115610e9257600080fd5b808601610e9f8982611027565b85526020850194506020840193505050600181019050610e73565b5050509392505050565b6000610ed7610ed2846118ec565b61189b565b905082815260208101848484011115610eef57600080fd5b610efa8482856119e6565b509392505050565b6000610f15610f10846118ec565b61189b565b905082815260208101848484011115610f2d57600080fd5b610f388482856119f5565b509392505050565b600081359050610f4f81611b3a565b92915050565b600081519050610f6481611b3a565b92915050565b600082601f830112610f7b57600080fd5b8135610f8b848260208601610db8565b91505092915050565b600082601f830112610fa557600080fd5b8151610fb5848260208601610e3e565b91505092915050565b600081519050610fcd81611b51565b92915050565b600081359050610fe281611b68565b92915050565b600081519050610ff781611b68565b92915050565b600082601f83011261100e57600080fd5b813561101e848260208601610ec4565b91505092915050565b600082601f83011261103857600080fd5b8151611048848260208601610f02565b91505092915050565b600060c0828403121561106357600080fd5b61106d60c061189b565b9050600061107d84828501610fe8565b600083015250602082015167ffffffffffffffff81111561109d57600080fd5b6110a984828501611027565b602083015250604082015167ffffffffffffffff8111156110c957600080fd5b6110d584828501611027565b60408301525060606110e984828501610f55565b60608301525060806110fd84828501610fbe565b60808301525060a082015167ffffffffffffffff81111561111d57600080fd5b61112984828501610f94565b60a08301525092915050565b60008135905061114481611b7f565b92915050565b60008151905061115981611b7f565b92915050565b60006020828403121561117157600080fd5b600061117f84828501610f40565b91505092915050565b6000806040838503121561119b57600080fd5b60006111a985828601610f40565b92505060206111ba85828601610fd3565b9150509250929050565b600080600080600060a086880312156111dc57600080fd5b60006111ea88828901610f40565b95505060206111fb88828901610fd3565b945050604086013567ffffffffffffffff81111561121857600080fd5b61122488828901610ffd565b935050606086013567ffffffffffffffff81111561124157600080fd5b61124d88828901610ffd565b925050608086013567ffffffffffffffff81111561126a57600080fd5b61127688828901610f6a565b9150509295509295909350565b6000806000806080858703121561129957600080fd5b60006112a787828801610f40565b945050602085013567ffffffffffffffff8111156112c457600080fd5b6112d087828801610ffd565b935050604085013567ffffffffffffffff8111156112ed57600080fd5b6112f987828801610ffd565b925050606085013567ffffffffffffffff81111561131657600080fd5b61132287828801610f6a565b91505092959194509250565b60006020828403121561134057600080fd5b600061134e84828501610fbe565b91505092915050565b60006020828403121561136957600080fd5b600061137784828501610fd3565b91505092915050565b60006020828403121561139257600080fd5b600082015167ffffffffffffffff8111156113ac57600080fd5b6113b884828501611051565b91505092915050565b6000602082840312156113d357600080fd5b60006113e184828501611135565b91505092915050565b6000602082840312156113fc57600080fd5b600061140a8482850161114a565b91505092915050565b600061141f838361156b565b905092915050565b61143081611994565b82525050565b61143f81611994565b82525050565b60006114508261192d565b61145a8185611950565b93508360208202850161146c8561191d565b8060005b858110156114a857848403895281516114898582611413565b945061149483611943565b925060208a01995050600181019050611470565b50829750879550505050505092915050565b60006114c58261192d565b6114cf8185611961565b9350836020820285016114e18561191d565b8060005b8581101561151d57848403895281516114fe8582611413565b945061150983611943565b925060208a019950506001810190506114e5565b50829750879550505050505092915050565b611538816119a6565b82525050565b611547816119a6565b82525050565b611556816119b2565b82525050565b611565816119b2565b82525050565b600061157682611938565b6115808185611972565b93506115908185602086016119f5565b61159981611a88565b840191505092915050565b60006115af82611938565b6115b98185611983565b93506115c98185602086016119f5565b6115d281611a88565b840191505092915050565b60006115ea600383611983565b91506115f582611a99565b602082019050919050565b600061160d602683611983565b915061161882611ac2565b604082019050919050565b6000611630602083611983565b915061163b82611b11565b602082019050919050565b600060c08301600083015161165e600086018261154d565b5060208301518482036020860152611676828261156b565b91505060408301518482036040860152611690828261156b565b91505060608301516116a56060860182611427565b5060808301516116b8608086018261152f565b5060a083015184820360a08601526116d08282611445565b9150508091505092915050565b6116e6816119dc565b82525050565b60006020820190506117016000830184611436565b92915050565b600060408201905061171c6000830185611436565b611729602083018461155c565b9392505050565b600060a0820190506117456000830188611436565b611752602083018761155c565b818103604083015261176481866115a4565b9050818103606083015261177881856115a4565b9050818103608083015261178c81846114ba565b90509695505050505050565b60006020820190506117ad600083018461153e565b92915050565b60006020820190506117c8600083018461155c565b92915050565b600060408201905081810360008301526117e881856115a4565b90506117f76020830184611436565b9392505050565b60006020820190508181036000830152611817816115dd565b9050919050565b6000602082019050818103600083015261183781611600565b9050919050565b6000602082019050818103600083015261185781611623565b9050919050565b600060208201905081810360008301526118788184611646565b905092915050565b600060208201905061189560008301846116dd565b92915050565b60006118a56118b6565b90506118b18282611a28565b919050565b6000604051905090565b600067ffffffffffffffff8211156118db576118da611a59565b5b602082029050602081019050919050565b600067ffffffffffffffff82111561190757611906611a59565b5b61191082611a88565b9050602081019050919050565b6000819050602082019050919050565b600081519050919050565b600081519050919050565b6000602082019050919050565b600082825260208201905092915050565b600082825260208201905092915050565b600082825260208201905092915050565b600082825260208201905092915050565b600061199f826119bc565b9050919050565b60008115159050919050565b6000819050919050565b600073ffffffffffffffffffffffffffffffffffffffff82169050919050565b6000819050919050565b82818337600083830152505050565b60005b83811015611a135780820151818401526020810190506119f8565b83811115611a22576000848401525b50505050565b611a3182611a88565b810181811067ffffffffffffffff82111715611a5057611a4f611a59565b5b80604052505050565b7f4e487b7100000000000000000000000000000000000000000000000000000000600052604160045260246000fd5b6000601f19601f8301169050919050565b7f3430330000000000000000000000000000000000000000000000000000000000600082015250565b7f4f776e61626c653a206e6577206f776e657220697320746865207a65726f206160008201527f6464726573730000000000000000000000000000000000000000000000000000602082015250565b7f4f776e61626c653a2063616c6c6572206973206e6f7420746865206f776e6572600082015250565b611b4381611994565b8114611b4e57600080fd5b50565b611b5a816119a6565b8114611b6557600080fd5b50565b611b71816119b2565b8114611b7c57600080fd5b50565b611b88816119dc565b8114611b9357600080fd5b5056fea26469706673582212200553ff3149e01238bedba25c9024d5c826d59adb2159ec5a2baf42b03fedcfb064736f6c63430008040033",
  "linkReferences": {},
  "deployedLinkReferences": {}
}