{
  "_format": "hh-sol-artifact-1",
  "contractName": "TagLogic",
  "sourceName": "contracts/tag/TagLogic.sol",
  "abi": [
    {
      "inputs": [
        {
          "internalType": "address",
          "name": "_tagStoreAddr",
          "type": "address"
        }
      ],
      "stateMutability": "nonpayable",
      "type": "constructor"
    },
    {
      "anonymous": false,
      "inputs": [
        {
          "indexed": true,
          "internalType": "address",
          "name": "previousOwner",
          "type": "address"
        },
        {
          "indexed": true,
          "internalType": "address",
          "name": "newOwner",
          "type": "address"
        }
      ],
      "name": "OwnershipTransferred",
      "type": "event"
    },
    {
      "inputs": [],
      "name": "count",
      "outputs": [
        {
          "internalType": "uint256",
          "name": "",
          "type": "uint256"
        }
      ],
      "stateMutability": "view",
      "type": "function"
    },
    {
      "inputs": [
        {
          "internalType": "address",
          "name": "caller",
          "type": "address"
        },
        {
          "internalType": "string",
          "name": "name",
          "type": "string"
        },
        {
          "internalType": "string",
          "name": "description",
          "type": "string"
        }
      ],
      "name": "create",
      "outputs": [
        {
          "internalType": "bool",
          "name": "success",
          "type": "bool"
        }
      ],
      "stateMutability": "nonpayable",
      "type": "function"
    },
    {
      "inputs": [
        {
          "internalType": "address",
          "name": "caller",
          "type": "address"
        },
        {
          "internalType": "bytes32",
          "name": "id",
          "type": "bytes32"
        }
      ],
      "name": "deleteById",
      "outputs": [],
      "stateMutability": "nonpayable",
      "type": "function"
    },
    {
      "inputs": [
        {
          "internalType": "bytes32",
          "name": "id",
          "type": "bytes32"
        }
      ],
      "name": "getById",
      "outputs": [
        {
          "components": [
            {
              "internalType": "bytes32",
              "name": "id",
              "type": "bytes32"
            },
            {
              "internalType": "string",
              "name": "name",
              "type": "string"
            },
            {
              "internalType": "string",
              "name": "description",
              "type": "string"
            },
            {
              "internalType": "bool",
              "name": "deleted",
              "type": "bool"
            },
            {
              "internalType": "address",
              "name": "creator",
              "type": "address"
            }
          ],
          "internalType": "struct TagTypes.Tag",
          "name": "",
          "type": "tuple"
        }
      ],
      "stateMutability": "view",
      "type": "function"
    },
    {
      "inputs": [
        {
          "internalType": "uint256",
          "name": "index",
          "type": "uint256"
        }
      ],
      "name": "getByIndex",
      "outputs": [
        {
          "components": [
            {
              "internalType": "bytes32",
              "name": "id",
              "type": "bytes32"
            },
            {
              "internalType": "string",
              "name": "name",
              "type": "string"
            },
            {
              "internalType": "string",
              "name": "description",
              "type": "string"
            },
            {
              "internalType": "bool",
              "name": "deleted",
              "type": "bool"
            },
            {
              "internalType": "address",
              "name": "creator",
              "type": "address"
            }
          ],
          "internalType": "struct TagTypes.Tag",
          "name": "",
          "type": "tuple"
        }
      ],
      "stateMutability": "view",
      "type": "function"
    },
    {
      "inputs": [],
      "name": "owner",
      "outputs": [
        {
          "internalType": "address",
          "name": "",
          "type": "address"
        }
      ],
      "stateMutability": "view",
      "type": "function"
    },
    {
      "inputs": [],
      "name": "renounceOwnership",
      "outputs": [],
      "stateMutability": "nonpayable",
      "type": "function"
    },
    {
      "inputs": [
        {
          "internalType": "address",
          "name": "newOwner",
          "type": "address"
        }
      ],
      "name": "transferOwnership",
      "outputs": [],
      "stateMutability": "nonpayable",
      "type": "function"
    },
    {
      "inputs": [
        {
          "internalType": "address",
          "name": "caller",
          "type": "address"
        },
        {
          "internalType": "bytes32",
          "name": "id",
          "type": "bytes32"
        },
        {
          "internalType": "string",
          "name": "description",
          "type": "string"
        }
      ],
      "name": "updateDescription",
      "outputs": [
        {
          "internalType": "bool",
          "name": "success",
          "type": "bool"
        }
      ],
      "stateMutability": "nonpayable",
      "type": "function"
    },
    {
      "inputs": [
        {
          "internalType": "address",
          "name": "_alexandriaAddr",
          "type": "address"
        }
      ],
      "name": "upgradeAlexandria",
      "outputs": [],
      "stateMutability": "nonpayable",
      "type": "function"
    }
  ],
  "bytecode": "0x60806040523480156200001157600080fd5b50604051620019ea380380620019ea833981810160405281019062000037919062000182565b620000576200004b6200009f60201b60201c565b620000a760201b60201c565b80600260006101000a81548173ffffffffffffffffffffffffffffffffffffffff021916908373ffffffffffffffffffffffffffffffffffffffff16021790555050620001fc565b600033905090565b60008060009054906101000a900473ffffffffffffffffffffffffffffffffffffffff169050816000806101000a81548173ffffffffffffffffffffffffffffffffffffffff021916908373ffffffffffffffffffffffffffffffffffffffff1602179055508173ffffffffffffffffffffffffffffffffffffffff168173ffffffffffffffffffffffffffffffffffffffff167f8be0079c531659141344cd1fd0a4f28419497f9722a3daafe3b4186f6b6457e060405160405180910390a35050565b6000815190506200017c81620001e2565b92915050565b6000602082840312156200019557600080fd5b6000620001a5848285016200016b565b91505092915050565b6000620001bb82620001c2565b9050919050565b600073ffffffffffffffffffffffffffffffffffffffff82169050919050565b620001ed81620001ae565b8114620001f957600080fd5b50565b6117de806200020c6000396000f3fe608060405234801561001057600080fd5b506004361061009e5760003560e01c8063715018a611610066578063715018a61461016d578063796d5836146101775780637d0f5ce3146101a75780638da5cb5b146101c3578063f2fde38b146101e15761009e565b806306661abd146100a357806322e7a262146100c15780632d883a73146100f15780632dff0d0d1461012157806342dcf47f14610151575b600080fd5b6100ab6101fd565b6040516100b89190611508565b60405180910390f35b6100db60048036038101906100d69190611020565b610334565b6040516100e8919061142e565b60405180910390f35b61010b60048036038101906101069190611199565b610480565b60405161011891906114e6565b60405180910390f35b61013b6004803603810190610136919061112f565b6105cf565b60405161014891906114e6565b60405180910390f35b61016b60048036038101906101669190610fbb565b61071e565b005b6101756107de565b005b610191600480360381019061018c9190611087565b610866565b60405161019e919061142e565b60405180910390f35b6101c160048036038101906101bc9190610fe4565b6109f5565b005b6101cb610b39565b6040516101d891906113ac565b60405180910390f35b6101fb60048036038101906101f69190610fbb565b610b62565b005b6000600160009054906101000a900473ffffffffffffffffffffffffffffffffffffffff1673ffffffffffffffffffffffffffffffffffffffff163373ffffffffffffffffffffffffffffffffffffffff161461028f576040517f08c379a000000000000000000000000000000000000000000000000000000000815260040161028690611486565b60405180910390fd5b600260009054906101000a900473ffffffffffffffffffffffffffffffffffffffff1673ffffffffffffffffffffffffffffffffffffffff166306661abd6040518163ffffffff1660e01b815260040160206040518083038186803b1580156102f757600080fd5b505afa15801561030b573d6000803e3d6000fd5b505050506040513d601f19601f8201168201806040525081019061032f91906111c2565b905090565b6000600160009054906101000a900473ffffffffffffffffffffffffffffffffffffffff1673ffffffffffffffffffffffffffffffffffffffff163373ffffffffffffffffffffffffffffffffffffffff16146103c6576040517f08c379a00000000000000000000000000000000000000000000000000000000081526004016103bd90611486565b60405180910390fd5b600260009054906101000a900473ffffffffffffffffffffffffffffffffffffffff1673ffffffffffffffffffffffffffffffffffffffff166322e7a2628585856040518463ffffffff1660e01b8152600401610425939291906113f0565b602060405180830381600087803b15801561043f57600080fd5b505af1158015610453573d6000803e3d6000fd5b505050506040513d601f19601f820116820180604052508101906104779190611106565b90509392505050565b610488610d56565b600160009054906101000a900473ffffffffffffffffffffffffffffffffffffffff1673ffffffffffffffffffffffffffffffffffffffff163373ffffffffffffffffffffffffffffffffffffffff1614610518576040517f08c379a000000000000000000000000000000000000000000000000000000000815260040161050f90611486565b60405180910390fd5b600260009054906101000a900473ffffffffffffffffffffffffffffffffffffffff1673ffffffffffffffffffffffffffffffffffffffff16632d883a73836040518263ffffffff1660e01b81526004016105739190611508565b60006040518083038186803b15801561058b57600080fd5b505afa15801561059f573d6000803e3d6000fd5b505050506040513d6000823e3d601f19601f820116820180604052508101906105c89190611158565b9050919050565b6105d7610d56565b600160009054906101000a900473ffffffffffffffffffffffffffffffffffffffff1673ffffffffffffffffffffffffffffffffffffffff163373ffffffffffffffffffffffffffffffffffffffff1614610667576040517f08c379a000000000000000000000000000000000000000000000000000000000815260040161065e90611486565b60405180910390fd5b600260009054906101000a900473ffffffffffffffffffffffffffffffffffffffff1673ffffffffffffffffffffffffffffffffffffffff16632dff0d0d836040518263ffffffff1660e01b81526004016106c29190611449565b60006040518083038186803b1580156106da57600080fd5b505afa1580156106ee573d6000803e3d6000fd5b505050506040513d6000823e3d601f19601f820116820180604052508101906107179190611158565b9050919050565b610726610c5a565b73ffffffffffffffffffffffffffffffffffffffff16610744610b39565b73ffffffffffffffffffffffffffffffffffffffff161461079a576040517f08c379a0000000000000000000000000000000000000000000000000000000008152600401610791906114c6565b60405180910390fd5b80600160006101000a81548173ffffffffffffffffffffffffffffffffffffffff021916908373ffffffffffffffffffffffffffffffffffffffff16021790555050565b6107e6610c5a565b73ffffffffffffffffffffffffffffffffffffffff16610804610b39565b73ffffffffffffffffffffffffffffffffffffffff161461085a576040517f08c379a0000000000000000000000000000000000000000000000000000000008152600401610851906114c6565b60405180910390fd5b6108646000610c62565b565b6000600160009054906101000a900473ffffffffffffffffffffffffffffffffffffffff1673ffffffffffffffffffffffffffffffffffffffff163373ffffffffffffffffffffffffffffffffffffffff16146108f8576040517f08c379a00000000000000000000000000000000000000000000000000000000081526004016108ef90611486565b60405180910390fd5b600260009054906101000a900473ffffffffffffffffffffffffffffffffffffffff1673ffffffffffffffffffffffffffffffffffffffff16634011b1bb6040518060a0016040528061094a87610d26565b81526020018681526020018581526020016000151581526020018773ffffffffffffffffffffffffffffffffffffffff168152506040518263ffffffff1660e01b815260040161099a91906114e6565b602060405180830381600087803b1580156109b457600080fd5b505af11580156109c8573d6000803e3d6000fd5b505050506040513d601f19601f820116820180604052508101906109ec9190611106565b90509392505050565b600160009054906101000a900473ffffffffffffffffffffffffffffffffffffffff1673ffffffffffffffffffffffffffffffffffffffff163373ffffffffffffffffffffffffffffffffffffffff1614610a85576040517f08c379a0000000000000000000000000000000000000000000000000000000008152600401610a7c90611486565b60405180910390fd5b600260009054906101000a900473ffffffffffffffffffffffffffffffffffffffff1673ffffffffffffffffffffffffffffffffffffffff16637d0f5ce383836040518363ffffffff1660e01b8152600401610ae29291906113c7565b602060405180830381600087803b158015610afc57600080fd5b505af1158015610b10573d6000803e3d6000fd5b505050506040513d601f19601f82011682018060405250810190610b349190611106565b505050565b60008060009054906101000a900473ffffffffffffffffffffffffffffffffffffffff16905090565b610b6a610c5a565b73ffffffffffffffffffffffffffffffffffffffff16610b88610b39565b73ffffffffffffffffffffffffffffffffffffffff1614610bde576040517f08c379a0000000000000000000000000000000000000000000000000000000008152600401610bd5906114c6565b60405180910390fd5b600073ffffffffffffffffffffffffffffffffffffffff168173ffffffffffffffffffffffffffffffffffffffff161415610c4e576040517f08c379a0000000000000000000000000000000000000000000000000000000008152600401610c45906114a6565b60405180910390fd5b610c5781610c62565b50565b600033905090565b60008060009054906101000a900473ffffffffffffffffffffffffffffffffffffffff169050816000806101000a81548173ffffffffffffffffffffffffffffffffffffffff021916908373ffffffffffffffffffffffffffffffffffffffff1602179055508173ffffffffffffffffffffffffffffffffffffffff168173ffffffffffffffffffffffffffffffffffffffff167f8be0079c531659141344cd1fd0a4f28419497f9722a3daafe3b4186f6b6457e060405160405180910390a35050565b600081604051602001610d399190611464565b604051602081830303815290604052805190602001209050919050565b6040518060a00160405280600080191681526020016060815260200160608152602001600015158152602001600073ffffffffffffffffffffffffffffffffffffffff1681525090565b6000610db3610dae84611548565b611523565b905082815260208101848484011115610dcb57600080fd5b610dd68482856115f8565b509392505050565b6000610df1610dec84611548565b611523565b905082815260208101848484011115610e0957600080fd5b610e14848285611607565b509392505050565b600081359050610e2b8161174c565b92915050565b600081519050610e408161174c565b92915050565b600081519050610e5581611763565b92915050565b600081359050610e6a8161177a565b92915050565b600081519050610e7f8161177a565b92915050565b600082601f830112610e9657600080fd5b8135610ea6848260208601610da0565b91505092915050565b600082601f830112610ec057600080fd5b8151610ed0848260208601610dde565b91505092915050565b600060a08284031215610eeb57600080fd5b610ef560a0611523565b90506000610f0584828501610e70565b600083015250602082015167ffffffffffffffff811115610f2557600080fd5b610f3184828501610eaf565b602083015250604082015167ffffffffffffffff811115610f5157600080fd5b610f5d84828501610eaf565b6040830152506060610f7184828501610e46565b6060830152506080610f8584828501610e31565b60808301525092915050565b600081359050610fa081611791565b92915050565b600081519050610fb581611791565b92915050565b600060208284031215610fcd57600080fd5b6000610fdb84828501610e1c565b91505092915050565b60008060408385031215610ff757600080fd5b600061100585828601610e1c565b925050602061101685828601610e5b565b9150509250929050565b60008060006060848603121561103557600080fd5b600061104386828701610e1c565b935050602061105486828701610e5b565b925050604084013567ffffffffffffffff81111561107157600080fd5b61107d86828701610e85565b9150509250925092565b60008060006060848603121561109c57600080fd5b60006110aa86828701610e1c565b935050602084013567ffffffffffffffff8111156110c757600080fd5b6110d386828701610e85565b925050604084013567ffffffffffffffff8111156110f057600080fd5b6110fc86828701610e85565b9150509250925092565b60006020828403121561111857600080fd5b600061112684828501610e46565b91505092915050565b60006020828403121561114157600080fd5b600061114f84828501610e5b565b91505092915050565b60006020828403121561116a57600080fd5b600082015167ffffffffffffffff81111561118457600080fd5b61119084828501610ed9565b91505092915050565b6000602082840312156111ab57600080fd5b60006111b984828501610f91565b91505092915050565b6000602082840312156111d457600080fd5b60006111e284828501610fa6565b91505092915050565b6111f4816115a6565b82525050565b611203816115a6565b82525050565b611212816115b8565b82525050565b611221816115b8565b82525050565b611230816115c4565b82525050565b61123f816115c4565b82525050565b600061125082611579565b61125a8185611584565b935061126a818560208601611607565b6112738161169a565b840191505092915050565b600061128982611579565b6112938185611595565b93506112a3818560208601611607565b6112ac8161169a565b840191505092915050565b60006112c4600383611595565b91506112cf826116ab565b602082019050919050565b60006112e7602683611595565b91506112f2826116d4565b604082019050919050565b600061130a602083611595565b915061131582611723565b602082019050919050565b600060a0830160008301516113386000860182611227565b50602083015184820360208601526113508282611245565b9150506040830151848203604086015261136a8282611245565b915050606083015161137f6060860182611209565b50608083015161139260808601826111eb565b508091505092915050565b6113a6816115ee565b82525050565b60006020820190506113c160008301846111fa565b92915050565b60006040820190506113dc60008301856111fa565b6113e96020830184611236565b9392505050565b600060608201905061140560008301866111fa565b6114126020830185611236565b8181036040830152611424818461127e565b9050949350505050565b60006020820190506114436000830184611218565b92915050565b600060208201905061145e6000830184611236565b92915050565b6000602082019050818103600083015261147e818461127e565b905092915050565b6000602082019050818103600083015261149f816112b7565b9050919050565b600060208201905081810360008301526114bf816112da565b9050919050565b600060208201905081810360008301526114df816112fd565b9050919050565b600060208201905081810360008301526115008184611320565b905092915050565b600060208201905061151d600083018461139d565b92915050565b600061152d61153e565b9050611539828261163a565b919050565b6000604051905090565b600067ffffffffffffffff8211156115635761156261166b565b5b61156c8261169a565b9050602081019050919050565b600081519050919050565b600082825260208201905092915050565b600082825260208201905092915050565b60006115b1826115ce565b9050919050565b60008115159050919050565b6000819050919050565b600073ffffffffffffffffffffffffffffffffffffffff82169050919050565b6000819050919050565b82818337600083830152505050565b60005b8381101561162557808201518184015260208101905061160a565b83811115611634576000848401525b50505050565b6116438261169a565b810181811067ffffffffffffffff821117156116625761166161166b565b5b80604052505050565b7f4e487b7100000000000000000000000000000000000000000000000000000000600052604160045260246000fd5b6000601f19601f8301169050919050565b7f3430330000000000000000000000000000000000000000000000000000000000600082015250565b7f4f776e61626c653a206e6577206f776e657220697320746865207a65726f206160008201527f6464726573730000000000000000000000000000000000000000000000000000602082015250565b7f4f776e61626c653a2063616c6c6572206973206e6f7420746865206f776e6572600082015250565b611755816115a6565b811461176057600080fd5b50565b61176c816115b8565b811461177757600080fd5b50565b611783816115c4565b811461178e57600080fd5b50565b61179a816115ee565b81146117a557600080fd5b5056fea264697066735822122012d47c936aa2d7a1b2220a0cfe345aa5338b8b7d2ebbdd87fdc16a5e4866d52e64736f6c63430008040033",
  "linkReferences": {},
  "deployedLinkReferences": {}
}