{
  "_format": "hh-sol-artifact-1",
  "contractName": "TagLogic",
  "sourceName": "contracts/tag/TagLogic.sol",
  "abi": [
    {
      "inputs": [
        {
          "internalType": "address",
          "name": "_tagStoreAddr",
          "type": "address"
        }
      ],
      "stateMutability": "nonpayable",
      "type": "constructor"
    },
    {
      "anonymous": false,
      "inputs": [
        {
          "indexed": true,
          "internalType": "address",
          "name": "previousOwner",
          "type": "address"
        },
        {
          "indexed": true,
          "internalType": "address",
          "name": "newOwner",
          "type": "address"
        }
      ],
      "name": "OwnershipTransferred",
      "type": "event"
    },
    {
      "inputs": [],
      "name": "count",
      "outputs": [
        {
          "internalType": "uint256",
          "name": "",
          "type": "uint256"
        }
      ],
      "stateMutability": "view",
      "type": "function"
    },
    {
      "inputs": [
        {
          "internalType": "address",
          "name": "caller",
          "type": "address"
        },
        {
          "internalType": "string",
          "name": "name",
          "type": "string"
        },
        {
          "internalType": "string",
          "name": "description",
          "type": "string"
        }
      ],
      "name": "create",
      "outputs": [
        {
          "internalType": "bool",
          "name": "success",
          "type": "bool"
        }
      ],
      "stateMutability": "nonpayable",
      "type": "function"
    },
    {
      "inputs": [
        {
          "internalType": "bytes32",
          "name": "id",
          "type": "bytes32"
        }
      ],
      "name": "deleteById",
      "outputs": [],
      "stateMutability": "nonpayable",
      "type": "function"
    },
    {
      "inputs": [
        {
          "internalType": "bytes32",
          "name": "id",
          "type": "bytes32"
        }
      ],
      "name": "getById",
      "outputs": [
        {
          "components": [
            {
              "internalType": "bytes32",
              "name": "id",
              "type": "bytes32"
            },
            {
              "internalType": "string",
              "name": "name",
              "type": "string"
            },
            {
              "internalType": "string",
              "name": "description",
              "type": "string"
            },
            {
              "internalType": "address",
              "name": "creator",
              "type": "address"
            },
            {
              "internalType": "bool",
              "name": "deleted",
              "type": "bool"
            }
          ],
          "internalType": "struct TagTypes.Tag",
          "name": "",
          "type": "tuple"
        }
      ],
      "stateMutability": "view",
      "type": "function"
    },
    {
      "inputs": [
        {
          "internalType": "uint256",
          "name": "index",
          "type": "uint256"
        }
      ],
      "name": "getByIndex",
      "outputs": [
        {
          "components": [
            {
              "internalType": "bytes32",
              "name": "id",
              "type": "bytes32"
            },
            {
              "internalType": "string",
              "name": "name",
              "type": "string"
            },
            {
              "internalType": "string",
              "name": "description",
              "type": "string"
            },
            {
              "internalType": "address",
              "name": "creator",
              "type": "address"
            },
            {
              "internalType": "bool",
              "name": "deleted",
              "type": "bool"
            }
          ],
          "internalType": "struct TagTypes.Tag",
          "name": "",
          "type": "tuple"
        }
      ],
      "stateMutability": "view",
      "type": "function"
    },
    {
      "inputs": [],
      "name": "owner",
      "outputs": [
        {
          "internalType": "address",
          "name": "",
          "type": "address"
        }
      ],
      "stateMutability": "view",
      "type": "function"
    },
    {
      "inputs": [],
      "name": "renounceOwnership",
      "outputs": [],
      "stateMutability": "nonpayable",
      "type": "function"
    },
    {
      "inputs": [
        {
          "internalType": "address",
          "name": "newOwner",
          "type": "address"
        }
      ],
      "name": "transferOwnership",
      "outputs": [],
      "stateMutability": "nonpayable",
      "type": "function"
    },
    {
      "inputs": [
        {
          "internalType": "bytes32",
          "name": "id",
          "type": "bytes32"
        },
        {
          "internalType": "string",
          "name": "description",
          "type": "string"
        }
      ],
      "name": "updateDescription",
      "outputs": [
        {
          "internalType": "bool",
          "name": "success",
          "type": "bool"
        }
      ],
      "stateMutability": "nonpayable",
      "type": "function"
    },
    {
      "inputs": [
        {
          "internalType": "address",
          "name": "_alexandriaAddr",
          "type": "address"
        }
      ],
      "name": "upgradeAlexandria",
      "outputs": [],
      "stateMutability": "nonpayable",
      "type": "function"
    }
  ],
  "bytecode": "0x60806040523480156200001157600080fd5b506040516200195e3803806200195e833981810160405281019062000037919062000182565b620000576200004b6200009f60201b60201c565b620000a760201b60201c565b80600260006101000a81548173ffffffffffffffffffffffffffffffffffffffff021916908373ffffffffffffffffffffffffffffffffffffffff16021790555050620001fc565b600033905090565b60008060009054906101000a900473ffffffffffffffffffffffffffffffffffffffff169050816000806101000a81548173ffffffffffffffffffffffffffffffffffffffff021916908373ffffffffffffffffffffffffffffffffffffffff1602179055508173ffffffffffffffffffffffffffffffffffffffff168173ffffffffffffffffffffffffffffffffffffffff167f8be0079c531659141344cd1fd0a4f28419497f9722a3daafe3b4186f6b6457e060405160405180910390a35050565b6000815190506200017c81620001e2565b92915050565b6000602082840312156200019557600080fd5b6000620001a5848285016200016b565b91505092915050565b6000620001bb82620001c2565b9050919050565b600073ffffffffffffffffffffffffffffffffffffffff82169050919050565b620001ed81620001ae565b8114620001f957600080fd5b50565b611752806200020c6000396000f3fe608060405234801561001057600080fd5b506004361061009e5760003560e01c806342dcf47f1161006657806342dcf47f1461016d578063715018a614610189578063796d5836146101935780638da5cb5b146101c3578063f2fde38b146101e15761009e565b806306661abd146100a35780630735211f146100c15780631568bb4a146100dd5780632d883a731461010d5780632dff0d0d1461013d575b600080fd5b6100ab6101fd565b6040516100b8919061147c565b60405180910390f35b6100db60048036038101906100d69190611086565b610334565b005b6100f760048036038101906100f291906110af565b610475565b6040516101049190611372565b60405180910390f35b61012760048036038101906101229190611144565b6105be565b604051610134919061145a565b60405180910390f35b61015760048036038101906101529190611086565b61070d565b604051610164919061145a565b60405180910390f35b61018760048036038101906101829190610fb5565b61085c565b005b61019161091c565b005b6101ad60048036038101906101a89190610fde565b6109a4565b6040516101ba9190611372565b60405180910390f35b6101cb610b33565b6040516101d89190611357565b60405180910390f35b6101fb60048036038101906101f69190610fb5565b610b5c565b005b6000600160009054906101000a900473ffffffffffffffffffffffffffffffffffffffff1673ffffffffffffffffffffffffffffffffffffffff163373ffffffffffffffffffffffffffffffffffffffff161461028f576040517f08c379a0000000000000000000000000000000000000000000000000000000008152600401610286906113fa565b60405180910390fd5b600260009054906101000a900473ffffffffffffffffffffffffffffffffffffffff1673ffffffffffffffffffffffffffffffffffffffff166306661abd6040518163ffffffff1660e01b815260040160206040518083038186803b1580156102f757600080fd5b505afa15801561030b573d6000803e3d6000fd5b505050506040513d601f19601f8201168201806040525081019061032f919061116d565b905090565b600160009054906101000a900473ffffffffffffffffffffffffffffffffffffffff1673ffffffffffffffffffffffffffffffffffffffff163373ffffffffffffffffffffffffffffffffffffffff16146103c4576040517f08c379a00000000000000000000000000000000000000000000000000000000081526004016103bb906113fa565b60405180910390fd5b600260009054906101000a900473ffffffffffffffffffffffffffffffffffffffff1673ffffffffffffffffffffffffffffffffffffffff16630735211f826040518263ffffffff1660e01b815260040161041f919061138d565b602060405180830381600087803b15801561043957600080fd5b505af115801561044d573d6000803e3d6000fd5b505050506040513d601f19601f82011682018060405250810190610471919061105d565b5050565b6000600160009054906101000a900473ffffffffffffffffffffffffffffffffffffffff1673ffffffffffffffffffffffffffffffffffffffff163373ffffffffffffffffffffffffffffffffffffffff1614610507576040517f08c379a00000000000000000000000000000000000000000000000000000000081526004016104fe906113fa565b60405180910390fd5b600260009054906101000a900473ffffffffffffffffffffffffffffffffffffffff1673ffffffffffffffffffffffffffffffffffffffff16631568bb4a84846040518363ffffffff1660e01b81526004016105649291906113a8565b602060405180830381600087803b15801561057e57600080fd5b505af1158015610592573d6000803e3d6000fd5b505050506040513d601f19601f820116820180604052508101906105b6919061105d565b905092915050565b6105c6610d50565b600160009054906101000a900473ffffffffffffffffffffffffffffffffffffffff1673ffffffffffffffffffffffffffffffffffffffff163373ffffffffffffffffffffffffffffffffffffffff1614610656576040517f08c379a000000000000000000000000000000000000000000000000000000000815260040161064d906113fa565b60405180910390fd5b600260009054906101000a900473ffffffffffffffffffffffffffffffffffffffff1673ffffffffffffffffffffffffffffffffffffffff16632d883a73836040518263ffffffff1660e01b81526004016106b1919061147c565b60006040518083038186803b1580156106c957600080fd5b505afa1580156106dd573d6000803e3d6000fd5b505050506040513d6000823e3d601f19601f820116820180604052508101906107069190611103565b9050919050565b610715610d50565b600160009054906101000a900473ffffffffffffffffffffffffffffffffffffffff1673ffffffffffffffffffffffffffffffffffffffff163373ffffffffffffffffffffffffffffffffffffffff16146107a5576040517f08c379a000000000000000000000000000000000000000000000000000000000815260040161079c906113fa565b60405180910390fd5b600260009054906101000a900473ffffffffffffffffffffffffffffffffffffffff1673ffffffffffffffffffffffffffffffffffffffff16632dff0d0d836040518263ffffffff1660e01b8152600401610800919061138d565b60006040518083038186803b15801561081857600080fd5b505afa15801561082c573d6000803e3d6000fd5b505050506040513d6000823e3d601f19601f820116820180604052508101906108559190611103565b9050919050565b610864610c54565b73ffffffffffffffffffffffffffffffffffffffff16610882610b33565b73ffffffffffffffffffffffffffffffffffffffff16146108d8576040517f08c379a00000000000000000000000000000000000000000000000000000000081526004016108cf9061143a565b60405180910390fd5b80600160006101000a81548173ffffffffffffffffffffffffffffffffffffffff021916908373ffffffffffffffffffffffffffffffffffffffff16021790555050565b610924610c54565b73ffffffffffffffffffffffffffffffffffffffff16610942610b33565b73ffffffffffffffffffffffffffffffffffffffff1614610998576040517f08c379a000000000000000000000000000000000000000000000000000000000815260040161098f9061143a565b60405180910390fd5b6109a26000610c5c565b565b6000600160009054906101000a900473ffffffffffffffffffffffffffffffffffffffff1673ffffffffffffffffffffffffffffffffffffffff163373ffffffffffffffffffffffffffffffffffffffff1614610a36576040517f08c379a0000000000000000000000000000000000000000000000000000000008152600401610a2d906113fa565b60405180910390fd5b600260009054906101000a900473ffffffffffffffffffffffffffffffffffffffff1673ffffffffffffffffffffffffffffffffffffffff1663c7cf2aaf6040518060a00160405280610a8887610d20565b81526020018681526020018581526020018773ffffffffffffffffffffffffffffffffffffffff168152602001600015158152506040518263ffffffff1660e01b8152600401610ad8919061145a565b602060405180830381600087803b158015610af257600080fd5b505af1158015610b06573d6000803e3d6000fd5b505050506040513d601f19601f82011682018060405250810190610b2a919061105d565b90509392505050565b60008060009054906101000a900473ffffffffffffffffffffffffffffffffffffffff16905090565b610b64610c54565b73ffffffffffffffffffffffffffffffffffffffff16610b82610b33565b73ffffffffffffffffffffffffffffffffffffffff1614610bd8576040517f08c379a0000000000000000000000000000000000000000000000000000000008152600401610bcf9061143a565b60405180910390fd5b600073ffffffffffffffffffffffffffffffffffffffff168173ffffffffffffffffffffffffffffffffffffffff161415610c48576040517f08c379a0000000000000000000000000000000000000000000000000000000008152600401610c3f9061141a565b60405180910390fd5b610c5181610c5c565b50565b600033905090565b60008060009054906101000a900473ffffffffffffffffffffffffffffffffffffffff169050816000806101000a81548173ffffffffffffffffffffffffffffffffffffffff021916908373ffffffffffffffffffffffffffffffffffffffff1602179055508173ffffffffffffffffffffffffffffffffffffffff168173ffffffffffffffffffffffffffffffffffffffff167f8be0079c531659141344cd1fd0a4f28419497f9722a3daafe3b4186f6b6457e060405160405180910390a35050565b600081604051602001610d3391906113d8565b604051602081830303815290604052805190602001209050919050565b6040518060a00160405280600080191681526020016060815260200160608152602001600073ffffffffffffffffffffffffffffffffffffffff1681526020016000151581525090565b6000610dad610da8846114bc565b611497565b905082815260208101848484011115610dc557600080fd5b610dd084828561156c565b509392505050565b6000610deb610de6846114bc565b611497565b905082815260208101848484011115610e0357600080fd5b610e0e84828561157b565b509392505050565b600081359050610e25816116c0565b92915050565b600081519050610e3a816116c0565b92915050565b600081519050610e4f816116d7565b92915050565b600081359050610e64816116ee565b92915050565b600081519050610e79816116ee565b92915050565b600082601f830112610e9057600080fd5b8135610ea0848260208601610d9a565b91505092915050565b600082601f830112610eba57600080fd5b8151610eca848260208601610dd8565b91505092915050565b600060a08284031215610ee557600080fd5b610eef60a0611497565b90506000610eff84828501610e6a565b600083015250602082015167ffffffffffffffff811115610f1f57600080fd5b610f2b84828501610ea9565b602083015250604082015167ffffffffffffffff811115610f4b57600080fd5b610f5784828501610ea9565b6040830152506060610f6b84828501610e2b565b6060830152506080610f7f84828501610e40565b60808301525092915050565b600081359050610f9a81611705565b92915050565b600081519050610faf81611705565b92915050565b600060208284031215610fc757600080fd5b6000610fd584828501610e16565b91505092915050565b600080600060608486031215610ff357600080fd5b600061100186828701610e16565b935050602084013567ffffffffffffffff81111561101e57600080fd5b61102a86828701610e7f565b925050604084013567ffffffffffffffff81111561104757600080fd5b61105386828701610e7f565b9150509250925092565b60006020828403121561106f57600080fd5b600061107d84828501610e40565b91505092915050565b60006020828403121561109857600080fd5b60006110a684828501610e55565b91505092915050565b600080604083850312156110c257600080fd5b60006110d085828601610e55565b925050602083013567ffffffffffffffff8111156110ed57600080fd5b6110f985828601610e7f565b9150509250929050565b60006020828403121561111557600080fd5b600082015167ffffffffffffffff81111561112f57600080fd5b61113b84828501610ed3565b91505092915050565b60006020828403121561115657600080fd5b600061116484828501610f8b565b91505092915050565b60006020828403121561117f57600080fd5b600061118d84828501610fa0565b91505092915050565b61119f8161151a565b82525050565b6111ae8161151a565b82525050565b6111bd8161152c565b82525050565b6111cc8161152c565b82525050565b6111db81611538565b82525050565b6111ea81611538565b82525050565b60006111fb826114ed565b61120581856114f8565b935061121581856020860161157b565b61121e8161160e565b840191505092915050565b6000611234826114ed565b61123e8185611509565b935061124e81856020860161157b565b6112578161160e565b840191505092915050565b600061126f600383611509565b915061127a8261161f565b602082019050919050565b6000611292602683611509565b915061129d82611648565b604082019050919050565b60006112b5602083611509565b91506112c082611697565b602082019050919050565b600060a0830160008301516112e360008601826111d2565b50602083015184820360208601526112fb82826111f0565b9150506040830151848203604086015261131582826111f0565b915050606083015161132a6060860182611196565b50608083015161133d60808601826111b4565b508091505092915050565b61135181611562565b82525050565b600060208201905061136c60008301846111a5565b92915050565b600060208201905061138760008301846111c3565b92915050565b60006020820190506113a260008301846111e1565b92915050565b60006040820190506113bd60008301856111e1565b81810360208301526113cf8184611229565b90509392505050565b600060208201905081810360008301526113f28184611229565b905092915050565b6000602082019050818103600083015261141381611262565b9050919050565b6000602082019050818103600083015261143381611285565b9050919050565b60006020820190508181036000830152611453816112a8565b9050919050565b6000602082019050818103600083015261147481846112cb565b905092915050565b60006020820190506114916000830184611348565b92915050565b60006114a16114b2565b90506114ad82826115ae565b919050565b6000604051905090565b600067ffffffffffffffff8211156114d7576114d66115df565b5b6114e08261160e565b9050602081019050919050565b600081519050919050565b600082825260208201905092915050565b600082825260208201905092915050565b600061152582611542565b9050919050565b60008115159050919050565b6000819050919050565b600073ffffffffffffffffffffffffffffffffffffffff82169050919050565b6000819050919050565b82818337600083830152505050565b60005b8381101561159957808201518184015260208101905061157e565b838111156115a8576000848401525b50505050565b6115b78261160e565b810181811067ffffffffffffffff821117156115d6576115d56115df565b5b80604052505050565b7f4e487b7100000000000000000000000000000000000000000000000000000000600052604160045260246000fd5b6000601f19601f8301169050919050565b7f3430330000000000000000000000000000000000000000000000000000000000600082015250565b7f4f776e61626c653a206e6577206f776e657220697320746865207a65726f206160008201527f6464726573730000000000000000000000000000000000000000000000000000602082015250565b7f4f776e61626c653a2063616c6c6572206973206e6f7420746865206f776e6572600082015250565b6116c98161151a565b81146116d457600080fd5b50565b6116e08161152c565b81146116eb57600080fd5b50565b6116f781611538565b811461170257600080fd5b50565b61170e81611562565b811461171957600080fd5b5056fea2646970667358221220dda023612e73a488463ccac78182d9ae9bc3adc6b6e27386e6c65594b5cfdc4864736f6c63430008040033",
  "linkReferences": {},
  "deployedLinkReferences": {}
}