{
  "_format": "hh-sol-artifact-1",
  "contractName": "TagStore",
  "sourceName": "contracts/tag/TagStore.sol",
  "abi": [
    {
      "anonymous": false,
      "inputs": [
        {
          "indexed": true,
          "internalType": "address",
          "name": "previousOwner",
          "type": "address"
        },
        {
          "indexed": true,
          "internalType": "address",
          "name": "newOwner",
          "type": "address"
        }
      ],
      "name": "OwnershipTransferred",
      "type": "event"
    },
    {
      "anonymous": false,
      "inputs": [
        {
          "components": [
            {
              "internalType": "bytes32",
              "name": "id",
              "type": "bytes32"
            },
            {
              "internalType": "string",
              "name": "name",
              "type": "string"
            },
            {
              "internalType": "string",
              "name": "description",
              "type": "string"
            },
            {
              "internalType": "bool",
              "name": "deleted",
              "type": "bool"
            },
            {
              "internalType": "address",
              "name": "creator",
              "type": "address"
            }
          ],
          "indexed": false,
          "internalType": "struct TagTypes.Tag",
          "name": "tag",
          "type": "tuple"
        }
      ],
      "name": "TagCreated",
      "type": "event"
    },
    {
      "anonymous": false,
      "inputs": [
        {
          "components": [
            {
              "internalType": "bytes32",
              "name": "id",
              "type": "bytes32"
            },
            {
              "internalType": "string",
              "name": "name",
              "type": "string"
            },
            {
              "internalType": "string",
              "name": "description",
              "type": "string"
            },
            {
              "internalType": "bool",
              "name": "deleted",
              "type": "bool"
            },
            {
              "internalType": "address",
              "name": "creator",
              "type": "address"
            }
          ],
          "indexed": false,
          "internalType": "struct TagTypes.Tag",
          "name": "tag",
          "type": "tuple"
        }
      ],
      "name": "TagDeleted",
      "type": "event"
    },
    {
      "anonymous": false,
      "inputs": [
        {
          "components": [
            {
              "internalType": "bytes32",
              "name": "id",
              "type": "bytes32"
            },
            {
              "internalType": "string",
              "name": "name",
              "type": "string"
            },
            {
              "internalType": "string",
              "name": "description",
              "type": "string"
            },
            {
              "internalType": "bool",
              "name": "deleted",
              "type": "bool"
            },
            {
              "internalType": "address",
              "name": "creator",
              "type": "address"
            }
          ],
          "indexed": false,
          "internalType": "struct TagTypes.Tag",
          "name": "tag",
          "type": "tuple"
        }
      ],
      "name": "TagUpdated",
      "type": "event"
    },
    {
      "inputs": [],
      "name": "count",
      "outputs": [
        {
          "internalType": "uint256",
          "name": "",
          "type": "uint256"
        }
      ],
      "stateMutability": "view",
      "type": "function"
    },
    {
      "inputs": [
        {
          "components": [
            {
              "internalType": "bytes32",
              "name": "id",
              "type": "bytes32"
            },
            {
              "internalType": "string",
              "name": "name",
              "type": "string"
            },
            {
              "internalType": "string",
              "name": "description",
              "type": "string"
            },
            {
              "internalType": "bool",
              "name": "deleted",
              "type": "bool"
            },
            {
              "internalType": "address",
              "name": "creator",
              "type": "address"
            }
          ],
          "internalType": "struct TagTypes.Tag",
          "name": "tag",
          "type": "tuple"
        }
      ],
      "name": "create",
      "outputs": [
        {
          "internalType": "bool",
          "name": "success",
          "type": "bool"
        }
      ],
      "stateMutability": "nonpayable",
      "type": "function"
    },
    {
      "inputs": [
        {
          "internalType": "address",
          "name": "caller",
          "type": "address"
        },
        {
          "internalType": "bytes32",
          "name": "id",
          "type": "bytes32"
        }
      ],
      "name": "deleteById",
      "outputs": [
        {
          "internalType": "bool",
          "name": "success",
          "type": "bool"
        }
      ],
      "stateMutability": "nonpayable",
      "type": "function"
    },
    {
      "inputs": [
        {
          "internalType": "bytes32",
          "name": "id",
          "type": "bytes32"
        }
      ],
      "name": "getById",
      "outputs": [
        {
          "components": [
            {
              "internalType": "bytes32",
              "name": "id",
              "type": "bytes32"
            },
            {
              "internalType": "string",
              "name": "name",
              "type": "string"
            },
            {
              "internalType": "string",
              "name": "description",
              "type": "string"
            },
            {
              "internalType": "bool",
              "name": "deleted",
              "type": "bool"
            },
            {
              "internalType": "address",
              "name": "creator",
              "type": "address"
            }
          ],
          "internalType": "struct TagTypes.Tag",
          "name": "",
          "type": "tuple"
        }
      ],
      "stateMutability": "view",
      "type": "function"
    },
    {
      "inputs": [
        {
          "internalType": "uint256",
          "name": "index",
          "type": "uint256"
        }
      ],
      "name": "getByIndex",
      "outputs": [
        {
          "components": [
            {
              "internalType": "bytes32",
              "name": "id",
              "type": "bytes32"
            },
            {
              "internalType": "string",
              "name": "name",
              "type": "string"
            },
            {
              "internalType": "string",
              "name": "description",
              "type": "string"
            },
            {
              "internalType": "bool",
              "name": "deleted",
              "type": "bool"
            },
            {
              "internalType": "address",
              "name": "creator",
              "type": "address"
            }
          ],
          "internalType": "struct TagTypes.Tag",
          "name": "",
          "type": "tuple"
        }
      ],
      "stateMutability": "view",
      "type": "function"
    },
    {
      "inputs": [],
      "name": "owner",
      "outputs": [
        {
          "internalType": "address",
          "name": "",
          "type": "address"
        }
      ],
      "stateMutability": "view",
      "type": "function"
    },
    {
      "inputs": [],
      "name": "renounceOwnership",
      "outputs": [],
      "stateMutability": "nonpayable",
      "type": "function"
    },
    {
      "inputs": [
        {
          "internalType": "address",
          "name": "newOwner",
          "type": "address"
        }
      ],
      "name": "transferOwnership",
      "outputs": [],
      "stateMutability": "nonpayable",
      "type": "function"
    },
    {
      "inputs": [
        {
          "internalType": "address",
          "name": "caller",
          "type": "address"
        },
        {
          "internalType": "bytes32",
          "name": "id",
          "type": "bytes32"
        },
        {
          "internalType": "string",
          "name": "description",
          "type": "string"
        }
      ],
      "name": "updateDescription",
      "outputs": [
        {
          "internalType": "bool",
          "name": "success",
          "type": "bool"
        }
      ],
      "stateMutability": "nonpayable",
      "type": "function"
    },
    {
      "inputs": [
        {
          "internalType": "address",
          "name": "_logicAddress",
          "type": "address"
        }
      ],
      "name": "upgradeLogic",
      "outputs": [],
      "stateMutability": "nonpayable",
      "type": "function"
    }
  ],
  "bytecode": "0x608060405234801561001057600080fd5b5061002d61002261003260201b60201c565b61003a60201b60201c565b6100fe565b600033905090565b60008060009054906101000a900473ffffffffffffffffffffffffffffffffffffffff169050816000806101000a81548173ffffffffffffffffffffffffffffffffffffffff021916908373ffffffffffffffffffffffffffffffffffffffff1602179055508173ffffffffffffffffffffffffffffffffffffffff168173ffffffffffffffffffffffffffffffffffffffff167f8be0079c531659141344cd1fd0a4f28419497f9722a3daafe3b4186f6b6457e060405160405180910390a35050565b612181806200010e6000396000f3fe608060405234801561001057600080fd5b506004361061009e5760003560e01c8063715018a611610066578063715018a6146101815780637d0f5ce31461018b5780638da5cb5b146101bb578063f2fde38b146101d9578063f63d13b5146101f55761009e565b806306661abd146100a357806322e7a262146100c15780632d883a73146100f15780632dff0d0d146101215780634011b1bb14610151575b600080fd5b6100ab610211565b6040516100b89190611ce1565b60405180910390f35b6100db60048036038101906100d691906117f7565b6102ae565b6040516100e89190611be2565b60405180910390f35b61010b600480360381019061010691906118c8565b6104b4565b6040516101189190611c9d565b60405180910390f35b61013b6004803603810190610136919061185e565b61079e565b6040516101489190611c9d565b60405180910390f35b61016b60048036038101906101669190611887565b610a45565b6040516101789190611be2565b60405180910390f35b610189610c91565b005b6101a560048036038101906101a091906117bb565b610d19565b6040516101b29190611be2565b60405180910390f35b6101c3611207565b6040516101d09190611bc7565b60405180910390f35b6101f360048036038101906101ee9190611792565b611230565b005b61020f600480360381019061020a9190611792565b611328565b005b6000600360009054906101000a900473ffffffffffffffffffffffffffffffffffffffff1673ffffffffffffffffffffffffffffffffffffffff163373ffffffffffffffffffffffffffffffffffffffff16146102a3576040517f08c379a000000000000000000000000000000000000000000000000000000000815260040161029a90611bfd565b60405180910390fd5b600280549050905090565b6000600360009054906101000a900473ffffffffffffffffffffffffffffffffffffffff1673ffffffffffffffffffffffffffffffffffffffff163373ffffffffffffffffffffffffffffffffffffffff1614610340576040517f08c379a000000000000000000000000000000000000000000000000000000000815260040161033790611bfd565b60405180910390fd5b610349836113e8565b610388576040517f08c379a000000000000000000000000000000000000000000000000000000000815260040161037f90611c7d565b60405180910390fd5b8373ffffffffffffffffffffffffffffffffffffffff166001600085815260200190815260200160002060000160030160019054906101000a900473ffffffffffffffffffffffffffffffffffffffff1673ffffffffffffffffffffffffffffffffffffffff161461042f576040517f08c379a000000000000000000000000000000000000000000000000000000000815260040161042690611bfd565b60405180910390fd5b8160016000858152602001908152602001600020600001600201908051906020019061045c929190611531565b507f20b5e7c32dd673b52a3470b691612d44ecf232a8e69945e32b54edafbae5d1f0600160008581526020019081526020016000206000016040516104a19190611cbf565b60405180910390a1600190509392505050565b6104bc6115b7565b600360009054906101000a900473ffffffffffffffffffffffffffffffffffffffff1673ffffffffffffffffffffffffffffffffffffffff163373ffffffffffffffffffffffffffffffffffffffff161461054c576040517f08c379a000000000000000000000000000000000000000000000000000000000815260040161054390611bfd565b60405180910390fd5b6002805490508210610593576040517f08c379a000000000000000000000000000000000000000000000000000000000815260040161058a90611c7d565b60405180910390fd5b60016000600284815481106105d1577f4e487b7100000000000000000000000000000000000000000000000000000000600052603260045260246000fd5b906000526020600020015481526020019081526020016000206000016040518060a00160405290816000820154815260200160018201805461061290611e93565b80601f016020809104026020016040519081016040528092919081815260200182805461063e90611e93565b801561068b5780601f106106605761010080835404028352916020019161068b565b820191906000526020600020905b81548152906001019060200180831161066e57829003601f168201915b505050505081526020016002820180546106a490611e93565b80601f01602080910402602001604051908101604052809291908181526020018280546106d090611e93565b801561071d5780601f106106f25761010080835404028352916020019161071d565b820191906000526020600020905b81548152906001019060200180831161070057829003601f168201915b505050505081526020016003820160009054906101000a900460ff161515151581526020016003820160019054906101000a900473ffffffffffffffffffffffffffffffffffffffff1673ffffffffffffffffffffffffffffffffffffffff1673ffffffffffffffffffffffffffffffffffffffff16815250509050919050565b6107a66115b7565b600360009054906101000a900473ffffffffffffffffffffffffffffffffffffffff1673ffffffffffffffffffffffffffffffffffffffff163373ffffffffffffffffffffffffffffffffffffffff1614610836576040517f08c379a000000000000000000000000000000000000000000000000000000000815260040161082d90611bfd565b60405180910390fd5b61083f826113e8565b61087e576040517f08c379a000000000000000000000000000000000000000000000000000000000815260040161087590611c7d565b60405180910390fd5b600160008381526020019081526020016000206000016040518060a0016040529081600082015481526020016001820180546108b990611e93565b80601f01602080910402602001604051908101604052809291908181526020018280546108e590611e93565b80156109325780601f1061090757610100808354040283529160200191610932565b820191906000526020600020905b81548152906001019060200180831161091557829003601f168201915b5050505050815260200160028201805461094b90611e93565b80601f016020809104026020016040519081016040528092919081815260200182805461097790611e93565b80156109c45780601f10610999576101008083540402835291602001916109c4565b820191906000526020600020905b8154815290600101906020018083116109a757829003601f168201915b505050505081526020016003820160009054906101000a900460ff161515151581526020016003820160019054906101000a900473ffffffffffffffffffffffffffffffffffffffff1673ffffffffffffffffffffffffffffffffffffffff1673ffffffffffffffffffffffffffffffffffffffff16815250509050919050565b6000600360009054906101000a900473ffffffffffffffffffffffffffffffffffffffff1673ffffffffffffffffffffffffffffffffffffffff163373ffffffffffffffffffffffffffffffffffffffff1614610ad7576040517f08c379a0000000000000000000000000000000000000000000000000000000008152600401610ace90611bfd565b60405180910390fd5b610ae482600001516113e8565b15610b24576040517f08c379a0000000000000000000000000000000000000000000000000000000008152600401610b1b90611c3d565b60405180910390fd5b60028260000151908060018154018082558091505060019003906000526020600020016000909190919091505560405180604001604052808381526020016001600280549050610b749190611d94565b8152506001600084600001518152602001908152602001600020600082015181600001600082015181600001556020820151816001019080519060200190610bbd929190611531565b506040820151816002019080519060200190610bda929190611531565b5060608201518160030160006101000a81548160ff02191690831515021790555060808201518160030160016101000a81548173ffffffffffffffffffffffffffffffffffffffff021916908373ffffffffffffffffffffffffffffffffffffffff1602179055505050602082015181600401559050507fc61296fe668ebd1bd27e9cb2fb6d4078889e40aa5bd75c03401b239b4aa378ff82604051610c809190611c9d565b60405180910390a160019050919050565b610c99611465565b73ffffffffffffffffffffffffffffffffffffffff16610cb7611207565b73ffffffffffffffffffffffffffffffffffffffff1614610d0d576040517f08c379a0000000000000000000000000000000000000000000000000000000008152600401610d0490611c5d565b60405180910390fd5b610d17600061146d565b565b6000600360009054906101000a900473ffffffffffffffffffffffffffffffffffffffff1673ffffffffffffffffffffffffffffffffffffffff163373ffffffffffffffffffffffffffffffffffffffff1614610dab576040517f08c379a0000000000000000000000000000000000000000000000000000000008152600401610da290611bfd565b60405180910390fd5b610db4826113e8565b610df3576040517f08c379a0000000000000000000000000000000000000000000000000000000008152600401610dea90611c7d565b60405180910390fd5b8273ffffffffffffffffffffffffffffffffffffffff166001600084815260200190815260200160002060000160030160019054906101000a900473ffffffffffffffffffffffffffffffffffffffff1673ffffffffffffffffffffffffffffffffffffffff1614610e9a576040517f08c379a0000000000000000000000000000000000000000000000000000000008152600401610e9190611bfd565b60405180910390fd5b600060016000848152602001908152602001600020604051806040016040529081600082016040518060a001604052908160008201548152602001600182018054610ee490611e93565b80601f0160208091040260200160405190810160405280929190818152602001828054610f1090611e93565b8015610f5d5780601f10610f3257610100808354040283529160200191610f5d565b820191906000526020600020905b815481529060010190602001808311610f4057829003601f168201915b50505050508152602001600282018054610f7690611e93565b80601f0160208091040260200160405190810160405280929190818152602001828054610fa290611e93565b8015610fef5780601f10610fc457610100808354040283529160200191610fef565b820191906000526020600020905b815481529060010190602001808311610fd257829003601f168201915b505050505081526020016003820160009054906101000a900460ff161515151581526020016003820160019054906101000a900473ffffffffffffffffffffffffffffffffffffffff1673ffffffffffffffffffffffffffffffffffffffff1673ffffffffffffffffffffffffffffffffffffffff1681525050815260200160048201548152505090506000816020015190506000600260016002805490506110989190611d94565b815481106110cf577f4e487b7100000000000000000000000000000000000000000000000000000000600052603260045260246000fd5b906000526020600020015490508060028381548110611117577f4e487b7100000000000000000000000000000000000000000000000000000000600052603260045260246000fd5b9060005260206000200181905550816001600083815260200190815260200160002060040181905550600180600083815260200190815260200160002060000160030160006101000a81548160ff02191690831515021790555060028054806111a9577f4e487b7100000000000000000000000000000000000000000000000000000000600052603160045260246000fd5b600190038181906000526020600020016000905590557f28b37fd6d3ad32cd428bcccf7dd304978770e95deabd1b3cf4266e347219bea283600001516040516111f29190611c9d565b60405180910390a16001935050505092915050565b60008060009054906101000a900473ffffffffffffffffffffffffffffffffffffffff16905090565b611238611465565b73ffffffffffffffffffffffffffffffffffffffff16611256611207565b73ffffffffffffffffffffffffffffffffffffffff16146112ac576040517f08c379a00000000000000000000000000000000000000000000000000000000081526004016112a390611c5d565b60405180910390fd5b600073ffffffffffffffffffffffffffffffffffffffff168173ffffffffffffffffffffffffffffffffffffffff16141561131c576040517f08c379a000000000000000000000000000000000000000000000000000000000815260040161131390611c1d565b60405180910390fd5b6113258161146d565b50565b611330611465565b73ffffffffffffffffffffffffffffffffffffffff1661134e611207565b73ffffffffffffffffffffffffffffffffffffffff16146113a4576040517f08c379a000000000000000000000000000000000000000000000000000000000815260040161139b90611c5d565b60405180910390fd5b80600360006101000a81548173ffffffffffffffffffffffffffffffffffffffff021916908373ffffffffffffffffffffffffffffffffffffffff16021790555050565b60008060028054905014156114005760009050611460565b816002600160008581526020019081526020016000206004015481548110611451577f4e487b7100000000000000000000000000000000000000000000000000000000600052603260045260246000fd5b90600052602060002001541490505b919050565b600033905090565b60008060009054906101000a900473ffffffffffffffffffffffffffffffffffffffff169050816000806101000a81548173ffffffffffffffffffffffffffffffffffffffff021916908373ffffffffffffffffffffffffffffffffffffffff1602179055508173ffffffffffffffffffffffffffffffffffffffff168173ffffffffffffffffffffffffffffffffffffffff167f8be0079c531659141344cd1fd0a4f28419497f9722a3daafe3b4186f6b6457e060405160405180910390a35050565b82805461153d90611e93565b90600052602060002090601f01602090048101928261155f57600085556115a6565b82601f1061157857805160ff19168380011785556115a6565b828001600101855582156115a6579182015b828111156115a557825182559160200191906001019061158a565b5b5090506115b39190611601565b5090565b6040518060a00160405280600080191681526020016060815260200160608152602001600015158152602001600073ffffffffffffffffffffffffffffffffffffffff1681525090565b5b8082111561161a576000816000905550600101611602565b5090565b600061163161162c84611d21565b611cfc565b90508281526020810184848401111561164957600080fd5b611654848285611e51565b509392505050565b60008135905061166b816120ef565b92915050565b60008135905061168081612106565b92915050565b6000813590506116958161211d565b92915050565b600082601f8301126116ac57600080fd5b81356116bc84826020860161161e565b91505092915050565b600060a082840312156116d757600080fd5b6116e160a0611cfc565b905060006116f184828501611686565b600083015250602082013567ffffffffffffffff81111561171157600080fd5b61171d8482850161169b565b602083015250604082013567ffffffffffffffff81111561173d57600080fd5b6117498482850161169b565b604083015250606061175d84828501611671565b60608301525060806117718482850161165c565b60808301525092915050565b60008135905061178c81612134565b92915050565b6000602082840312156117a457600080fd5b60006117b28482850161165c565b91505092915050565b600080604083850312156117ce57600080fd5b60006117dc8582860161165c565b92505060206117ed85828601611686565b9150509250929050565b60008060006060848603121561180c57600080fd5b600061181a8682870161165c565b935050602061182b86828701611686565b925050604084013567ffffffffffffffff81111561184857600080fd5b6118548682870161169b565b9150509250925092565b60006020828403121561187057600080fd5b600061187e84828501611686565b91505092915050565b60006020828403121561189957600080fd5b600082013567ffffffffffffffff8111156118b357600080fd5b6118bf848285016116c5565b91505092915050565b6000602082840312156118da57600080fd5b60006118e88482850161177d565b91505092915050565b6118fa81611dff565b82525050565b61190981611dff565b82525050565b61191881611e11565b82525050565b61192781611e11565b82525050565b61193681611e1d565b82525050565b600061194782611d67565b6119518185611d72565b9350611961818560208601611e60565b61196a81611fd1565b840191505092915050565b6000815461198281611e93565b61198c8186611d72565b945060018216600081146119a757600181146119b9576119ec565b60ff19831686526020860193506119ec565b6119c285611d52565b60005b838110156119e4578154818901526001820191506020810190506119c5565b808801955050505b50505092915050565b6000611a02600383611d83565b9150611a0d82611ffc565b602082019050919050565b6000611a25602683611d83565b9150611a3082612025565b604082019050919050565b6000611a48600383611d83565b9150611a5382612074565b602082019050919050565b6000611a6b602083611d83565b9150611a768261209d565b602082019050919050565b6000611a8e600383611d83565b9150611a99826120c6565b602082019050919050565b600060a083016000830151611abc600086018261192d565b5060208301518482036020860152611ad4828261193c565b91505060408301518482036040860152611aee828261193c565b9150506060830151611b03606086018261190f565b506080830151611b1660808601826118f1565b508091505092915050565b600060a083016000808401549050611b3881611edf565b611b45600087018261192d565b50600184018583036020870152611b5c8382611975565b925050600284018583036040870152611b758382611975565b92505060038401549050611b8881611ec5565b611b95606087018261190f565b50611b9f81611ef9565b611bac60808701826118f1565b50819250505092915050565b611bc181611e47565b82525050565b6000602082019050611bdc6000830184611900565b92915050565b6000602082019050611bf7600083018461191e565b92915050565b60006020820190508181036000830152611c16816119f5565b9050919050565b60006020820190508181036000830152611c3681611a18565b9050919050565b60006020820190508181036000830152611c5681611a3b565b9050919050565b60006020820190508181036000830152611c7681611a5e565b9050919050565b60006020820190508181036000830152611c9681611a81565b9050919050565b60006020820190508181036000830152611cb78184611aa4565b905092915050565b60006020820190508181036000830152611cd98184611b21565b905092915050565b6000602082019050611cf66000830184611bb8565b92915050565b6000611d06611d17565b9050611d128282611f13565b919050565b6000604051905090565b600067ffffffffffffffff821115611d3c57611d3b611fa2565b5b611d4582611fd1565b9050602081019050919050565b60008190508160005260206000209050919050565b600081519050919050565b600082825260208201905092915050565b600082825260208201905092915050565b6000611d9f82611e47565b9150611daa83611e47565b925082821015611dbd57611dbc611f44565b5b828203905092915050565b600073ffffffffffffffffffffffffffffffffffffffff82169050919050565b600060ff82169050919050565b6000819050919050565b6000611e0a82611e27565b9050919050565b60008115159050919050565b6000819050919050565b600073ffffffffffffffffffffffffffffffffffffffff82169050919050565b6000819050919050565b82818337600083830152505050565b60005b83811015611e7e578082015181840152602081019050611e63565b83811115611e8d576000848401525b50505050565b60006002820490506001821680611eab57607f821691505b60208210811415611ebf57611ebe611f73565b5b50919050565b6000611ed8611ed383611fe2565b611de8565b9050919050565b6000611ef2611eed83611fe2565b611df5565b9050919050565b6000611f0c611f0783611fef565b611dc8565b9050919050565b611f1c82611fd1565b810181811067ffffffffffffffff82111715611f3b57611f3a611fa2565b5b80604052505050565b7f4e487b7100000000000000000000000000000000000000000000000000000000600052601160045260246000fd5b7f4e487b7100000000000000000000000000000000000000000000000000000000600052602260045260246000fd5b7f4e487b7100000000000000000000000000000000000000000000000000000000600052604160045260246000fd5b6000601f19601f8301169050919050565b60008160001c9050919050565b60008160081c9050919050565b7f3430330000000000000000000000000000000000000000000000000000000000600082015250565b7f4f776e61626c653a206e6577206f776e657220697320746865207a65726f206160008201527f6464726573730000000000000000000000000000000000000000000000000000602082015250565b7f3430300000000000000000000000000000000000000000000000000000000000600082015250565b7f4f776e61626c653a2063616c6c6572206973206e6f7420746865206f776e6572600082015250565b7f3430340000000000000000000000000000000000000000000000000000000000600082015250565b6120f881611dff565b811461210357600080fd5b50565b61210f81611e11565b811461211a57600080fd5b50565b61212681611e1d565b811461213157600080fd5b50565b61213d81611e47565b811461214857600080fd5b5056fea26469706673582212208986ca5873b27975cc3ac76c9be4674276a2e0535891f3c74b3d1f29428266ca64736f6c63430008040033",
  "linkReferences": {},
  "deployedLinkReferences": {}
}