{
  "_format": "hh-sol-artifact-1",
  "contractName": "TagStore",
  "sourceName": "contracts/tag/TagStore.sol",
  "abi": [
    {
      "anonymous": false,
      "inputs": [
        {
          "indexed": true,
          "internalType": "address",
          "name": "previousOwner",
          "type": "address"
        },
        {
          "indexed": true,
          "internalType": "address",
          "name": "newOwner",
          "type": "address"
        }
      ],
      "name": "OwnershipTransferred",
      "type": "event"
    },
    {
      "anonymous": false,
      "inputs": [
        {
          "components": [
            {
              "internalType": "bytes32",
              "name": "id",
              "type": "bytes32"
            },
            {
              "internalType": "string",
              "name": "name",
              "type": "string"
            },
            {
              "internalType": "string",
              "name": "description",
              "type": "string"
            },
            {
              "internalType": "bool",
              "name": "deleted",
              "type": "bool"
            },
            {
              "internalType": "address",
              "name": "creator",
              "type": "address"
            }
          ],
          "indexed": false,
          "internalType": "struct TagTypes.Tag",
          "name": "tag",
          "type": "tuple"
        }
      ],
      "name": "TagCreated",
      "type": "event"
    },
    {
      "anonymous": false,
      "inputs": [
        {
          "components": [
            {
              "internalType": "bytes32",
              "name": "id",
              "type": "bytes32"
            },
            {
              "internalType": "string",
              "name": "name",
              "type": "string"
            },
            {
              "internalType": "string",
              "name": "description",
              "type": "string"
            },
            {
              "internalType": "bool",
              "name": "deleted",
              "type": "bool"
            },
            {
              "internalType": "address",
              "name": "creator",
              "type": "address"
            }
          ],
          "indexed": false,
          "internalType": "struct TagTypes.Tag",
          "name": "tag",
          "type": "tuple"
        }
      ],
      "name": "TagDeleted",
      "type": "event"
    },
    {
      "anonymous": false,
      "inputs": [
        {
          "components": [
            {
              "internalType": "bytes32",
              "name": "id",
              "type": "bytes32"
            },
            {
              "internalType": "string",
              "name": "name",
              "type": "string"
            },
            {
              "internalType": "string",
              "name": "description",
              "type": "string"
            },
            {
              "internalType": "bool",
              "name": "deleted",
              "type": "bool"
            },
            {
              "internalType": "address",
              "name": "creator",
              "type": "address"
            }
          ],
          "indexed": false,
          "internalType": "struct TagTypes.Tag",
          "name": "tag",
          "type": "tuple"
        }
      ],
      "name": "TagUpdated",
      "type": "event"
    },
    {
      "inputs": [],
      "name": "count",
      "outputs": [
        {
          "internalType": "uint256",
          "name": "",
          "type": "uint256"
        }
      ],
      "stateMutability": "view",
      "type": "function"
    },
    {
      "inputs": [
        {
          "components": [
            {
              "internalType": "bytes32",
              "name": "id",
              "type": "bytes32"
            },
            {
              "internalType": "string",
              "name": "name",
              "type": "string"
            },
            {
              "internalType": "string",
              "name": "description",
              "type": "string"
            },
            {
              "internalType": "bool",
              "name": "deleted",
              "type": "bool"
            },
            {
              "internalType": "address",
              "name": "creator",
              "type": "address"
            }
          ],
          "internalType": "struct TagTypes.Tag",
          "name": "tag",
          "type": "tuple"
        }
      ],
      "name": "create",
      "outputs": [
        {
          "internalType": "bool",
          "name": "success",
          "type": "bool"
        }
      ],
      "stateMutability": "nonpayable",
      "type": "function"
    },
    {
      "inputs": [
        {
          "internalType": "bytes32",
          "name": "id",
          "type": "bytes32"
        }
      ],
      "name": "deleteById",
      "outputs": [
        {
          "internalType": "bool",
          "name": "success",
          "type": "bool"
        }
      ],
      "stateMutability": "nonpayable",
      "type": "function"
    },
    {
      "inputs": [
        {
          "internalType": "bytes32",
          "name": "id",
          "type": "bytes32"
        }
      ],
      "name": "getById",
      "outputs": [
        {
          "components": [
            {
              "internalType": "bytes32",
              "name": "id",
              "type": "bytes32"
            },
            {
              "internalType": "string",
              "name": "name",
              "type": "string"
            },
            {
              "internalType": "string",
              "name": "description",
              "type": "string"
            },
            {
              "internalType": "bool",
              "name": "deleted",
              "type": "bool"
            },
            {
              "internalType": "address",
              "name": "creator",
              "type": "address"
            }
          ],
          "internalType": "struct TagTypes.Tag",
          "name": "",
          "type": "tuple"
        }
      ],
      "stateMutability": "view",
      "type": "function"
    },
    {
      "inputs": [
        {
          "internalType": "uint256",
          "name": "index",
          "type": "uint256"
        }
      ],
      "name": "getByIndex",
      "outputs": [
        {
          "components": [
            {
              "internalType": "bytes32",
              "name": "id",
              "type": "bytes32"
            },
            {
              "internalType": "string",
              "name": "name",
              "type": "string"
            },
            {
              "internalType": "string",
              "name": "description",
              "type": "string"
            },
            {
              "internalType": "bool",
              "name": "deleted",
              "type": "bool"
            },
            {
              "internalType": "address",
              "name": "creator",
              "type": "address"
            }
          ],
          "internalType": "struct TagTypes.Tag",
          "name": "",
          "type": "tuple"
        }
      ],
      "stateMutability": "view",
      "type": "function"
    },
    {
      "inputs": [],
      "name": "owner",
      "outputs": [
        {
          "internalType": "address",
          "name": "",
          "type": "address"
        }
      ],
      "stateMutability": "view",
      "type": "function"
    },
    {
      "inputs": [],
      "name": "renounceOwnership",
      "outputs": [],
      "stateMutability": "nonpayable",
      "type": "function"
    },
    {
      "inputs": [
        {
          "internalType": "address",
          "name": "newOwner",
          "type": "address"
        }
      ],
      "name": "transferOwnership",
      "outputs": [],
      "stateMutability": "nonpayable",
      "type": "function"
    },
    {
      "inputs": [
        {
          "internalType": "bytes32",
          "name": "id",
          "type": "bytes32"
        },
        {
          "internalType": "string",
          "name": "description",
          "type": "string"
        }
      ],
      "name": "updateDescription",
      "outputs": [
        {
          "internalType": "bool",
          "name": "success",
          "type": "bool"
        }
      ],
      "stateMutability": "nonpayable",
      "type": "function"
    },
    {
      "inputs": [
        {
          "internalType": "address",
          "name": "_logicAddress",
          "type": "address"
        }
      ],
      "name": "upgradeLogic",
      "outputs": [],
      "stateMutability": "nonpayable",
      "type": "function"
    }
  ],
  "bytecode": "0x608060405234801561001057600080fd5b5061002d61002261003260201b60201c565b61003a60201b60201c565b6100fe565b600033905090565b60008060009054906101000a900473ffffffffffffffffffffffffffffffffffffffff169050816000806101000a81548173ffffffffffffffffffffffffffffffffffffffff021916908373ffffffffffffffffffffffffffffffffffffffff1602179055508173ffffffffffffffffffffffffffffffffffffffff168173ffffffffffffffffffffffffffffffffffffffff167f8be0079c531659141344cd1fd0a4f28419497f9722a3daafe3b4186f6b6457e060405160405180910390a35050565b611fe28061010d6000396000f3fe608060405234801561001057600080fd5b506004361061009e5760003560e01c80634011b1bb116100665780634011b1bb14610181578063715018a6146101b15780638da5cb5b146101bb578063f2fde38b146101d9578063f63d13b5146101f55761009e565b806306661abd146100a35780630735211f146100c15780631568bb4a146100f15780632d883a73146101215780632dff0d0d14610151575b600080fd5b6100ab610211565b6040516100b89190611b42565b60405180910390f35b6100db60048036038101906100d6919061166b565b6102ae565b6040516100e89190611a43565b60405180910390f35b61010b60048036038101906101069190611694565b6106f4565b6040516101189190611a43565b60405180910390f35b61013b60048036038101906101369190611729565b610852565b6040516101489190611afe565b60405180910390f35b61016b6004803603810190610166919061166b565b610b3c565b6040516101789190611afe565b60405180910390f35b61019b600480360381019061019691906116e8565b610de3565b6040516101a89190611a43565b60405180910390f35b6101b961102f565b005b6101c36110b7565b6040516101d09190611a28565b60405180910390f35b6101f360048036038101906101ee9190611642565b6110e0565b005b61020f600480360381019061020a9190611642565b6111d8565b005b6000600360009054906101000a900473ffffffffffffffffffffffffffffffffffffffff1673ffffffffffffffffffffffffffffffffffffffff163373ffffffffffffffffffffffffffffffffffffffff16146102a3576040517f08c379a000000000000000000000000000000000000000000000000000000000815260040161029a90611a5e565b60405180910390fd5b600280549050905090565b6000600360009054906101000a900473ffffffffffffffffffffffffffffffffffffffff1673ffffffffffffffffffffffffffffffffffffffff163373ffffffffffffffffffffffffffffffffffffffff1614610340576040517f08c379a000000000000000000000000000000000000000000000000000000000815260040161033790611a5e565b60405180910390fd5b61034982611298565b610388576040517f08c379a000000000000000000000000000000000000000000000000000000000815260040161037f90611ade565b60405180910390fd5b600060016000848152602001908152602001600020604051806040016040529081600082016040518060a0016040529081600082015481526020016001820180546103d290611cf4565b80601f01602080910402602001604051908101604052809291908181526020018280546103fe90611cf4565b801561044b5780601f106104205761010080835404028352916020019161044b565b820191906000526020600020905b81548152906001019060200180831161042e57829003601f168201915b5050505050815260200160028201805461046490611cf4565b80601f016020809104026020016040519081016040528092919081815260200182805461049090611cf4565b80156104dd5780601f106104b2576101008083540402835291602001916104dd565b820191906000526020600020905b8154815290600101906020018083116104c057829003601f168201915b505050505081526020016003820160009054906101000a900460ff161515151581526020016003820160019054906101000a900473ffffffffffffffffffffffffffffffffffffffff1673ffffffffffffffffffffffffffffffffffffffff1673ffffffffffffffffffffffffffffffffffffffff1681525050815260200160048201548152505090506000816020015190506000600260016002805490506105869190611bf5565b815481106105bd577f4e487b7100000000000000000000000000000000000000000000000000000000600052603260045260246000fd5b906000526020600020015490508060028381548110610605577f4e487b7100000000000000000000000000000000000000000000000000000000600052603260045260246000fd5b9060005260206000200181905550816001600083815260200190815260200160002060040181905550600180600083815260200190815260200160002060000160030160006101000a81548160ff0219169083151502179055506002805480610697577f4e487b7100000000000000000000000000000000000000000000000000000000600052603160045260246000fd5b600190038181906000526020600020016000905590557f28b37fd6d3ad32cd428bcccf7dd304978770e95deabd1b3cf4266e347219bea283600001516040516106e09190611afe565b60405180910390a160019350505050919050565b6000600360009054906101000a900473ffffffffffffffffffffffffffffffffffffffff1673ffffffffffffffffffffffffffffffffffffffff163373ffffffffffffffffffffffffffffffffffffffff1614610786576040517f08c379a000000000000000000000000000000000000000000000000000000000815260040161077d90611a5e565b60405180910390fd5b61078f83611298565b6107ce576040517f08c379a00000000000000000000000000000000000000000000000000000000081526004016107c590611ade565b60405180910390fd5b816001600085815260200190815260200160002060000160020190805190602001906107fb9291906113e1565b507f20b5e7c32dd673b52a3470b691612d44ecf232a8e69945e32b54edafbae5d1f0600160008581526020019081526020016000206000016040516108409190611b20565b60405180910390a16001905092915050565b61085a611467565b600360009054906101000a900473ffffffffffffffffffffffffffffffffffffffff1673ffffffffffffffffffffffffffffffffffffffff163373ffffffffffffffffffffffffffffffffffffffff16146108ea576040517f08c379a00000000000000000000000000000000000000000000000000000000081526004016108e190611a5e565b60405180910390fd5b6002805490508210610931576040517f08c379a000000000000000000000000000000000000000000000000000000000815260040161092890611ade565b60405180910390fd5b600160006002848154811061096f577f4e487b7100000000000000000000000000000000000000000000000000000000600052603260045260246000fd5b906000526020600020015481526020019081526020016000206000016040518060a0016040529081600082015481526020016001820180546109b090611cf4565b80601f01602080910402602001604051908101604052809291908181526020018280546109dc90611cf4565b8015610a295780601f106109fe57610100808354040283529160200191610a29565b820191906000526020600020905b815481529060010190602001808311610a0c57829003601f168201915b50505050508152602001600282018054610a4290611cf4565b80601f0160208091040260200160405190810160405280929190818152602001828054610a6e90611cf4565b8015610abb5780601f10610a9057610100808354040283529160200191610abb565b820191906000526020600020905b815481529060010190602001808311610a9e57829003601f168201915b505050505081526020016003820160009054906101000a900460ff161515151581526020016003820160019054906101000a900473ffffffffffffffffffffffffffffffffffffffff1673ffffffffffffffffffffffffffffffffffffffff1673ffffffffffffffffffffffffffffffffffffffff16815250509050919050565b610b44611467565b600360009054906101000a900473ffffffffffffffffffffffffffffffffffffffff1673ffffffffffffffffffffffffffffffffffffffff163373ffffffffffffffffffffffffffffffffffffffff1614610bd4576040517f08c379a0000000000000000000000000000000000000000000000000000000008152600401610bcb90611a5e565b60405180910390fd5b610bdd82611298565b610c1c576040517f08c379a0000000000000000000000000000000000000000000000000000000008152600401610c1390611ade565b60405180910390fd5b600160008381526020019081526020016000206000016040518060a001604052908160008201548152602001600182018054610c5790611cf4565b80601f0160208091040260200160405190810160405280929190818152602001828054610c8390611cf4565b8015610cd05780601f10610ca557610100808354040283529160200191610cd0565b820191906000526020600020905b815481529060010190602001808311610cb357829003601f168201915b50505050508152602001600282018054610ce990611cf4565b80601f0160208091040260200160405190810160405280929190818152602001828054610d1590611cf4565b8015610d625780601f10610d3757610100808354040283529160200191610d62565b820191906000526020600020905b815481529060010190602001808311610d4557829003601f168201915b505050505081526020016003820160009054906101000a900460ff161515151581526020016003820160019054906101000a900473ffffffffffffffffffffffffffffffffffffffff1673ffffffffffffffffffffffffffffffffffffffff1673ffffffffffffffffffffffffffffffffffffffff16815250509050919050565b6000600360009054906101000a900473ffffffffffffffffffffffffffffffffffffffff1673ffffffffffffffffffffffffffffffffffffffff163373ffffffffffffffffffffffffffffffffffffffff1614610e75576040517f08c379a0000000000000000000000000000000000000000000000000000000008152600401610e6c90611a5e565b60405180910390fd5b610e828260000151611298565b15610ec2576040517f08c379a0000000000000000000000000000000000000000000000000000000008152600401610eb990611a9e565b60405180910390fd5b60028260000151908060018154018082558091505060019003906000526020600020016000909190919091505560405180604001604052808381526020016001600280549050610f129190611bf5565b8152506001600084600001518152602001908152602001600020600082015181600001600082015181600001556020820151816001019080519060200190610f5b9291906113e1565b506040820151816002019080519060200190610f789291906113e1565b5060608201518160030160006101000a81548160ff02191690831515021790555060808201518160030160016101000a81548173ffffffffffffffffffffffffffffffffffffffff021916908373ffffffffffffffffffffffffffffffffffffffff1602179055505050602082015181600401559050507fc61296fe668ebd1bd27e9cb2fb6d4078889e40aa5bd75c03401b239b4aa378ff8260405161101e9190611afe565b60405180910390a160019050919050565b611037611315565b73ffffffffffffffffffffffffffffffffffffffff166110556110b7565b73ffffffffffffffffffffffffffffffffffffffff16146110ab576040517f08c379a00000000000000000000000000000000000000000000000000000000081526004016110a290611abe565b60405180910390fd5b6110b5600061131d565b565b60008060009054906101000a900473ffffffffffffffffffffffffffffffffffffffff16905090565b6110e8611315565b73ffffffffffffffffffffffffffffffffffffffff166111066110b7565b73ffffffffffffffffffffffffffffffffffffffff161461115c576040517f08c379a000000000000000000000000000000000000000000000000000000000815260040161115390611abe565b60405180910390fd5b600073ffffffffffffffffffffffffffffffffffffffff168173ffffffffffffffffffffffffffffffffffffffff1614156111cc576040517f08c379a00000000000000000000000000000000000000000000000000000000081526004016111c390611a7e565b60405180910390fd5b6111d58161131d565b50565b6111e0611315565b73ffffffffffffffffffffffffffffffffffffffff166111fe6110b7565b73ffffffffffffffffffffffffffffffffffffffff1614611254576040517f08c379a000000000000000000000000000000000000000000000000000000000815260040161124b90611abe565b60405180910390fd5b80600360006101000a81548173ffffffffffffffffffffffffffffffffffffffff021916908373ffffffffffffffffffffffffffffffffffffffff16021790555050565b60008060028054905014156112b05760009050611310565b816002600160008581526020019081526020016000206004015481548110611301577f4e487b7100000000000000000000000000000000000000000000000000000000600052603260045260246000fd5b90600052602060002001541490505b919050565b600033905090565b60008060009054906101000a900473ffffffffffffffffffffffffffffffffffffffff169050816000806101000a81548173ffffffffffffffffffffffffffffffffffffffff021916908373ffffffffffffffffffffffffffffffffffffffff1602179055508173ffffffffffffffffffffffffffffffffffffffff168173ffffffffffffffffffffffffffffffffffffffff167f8be0079c531659141344cd1fd0a4f28419497f9722a3daafe3b4186f6b6457e060405160405180910390a35050565b8280546113ed90611cf4565b90600052602060002090601f01602090048101928261140f5760008555611456565b82601f1061142857805160ff1916838001178555611456565b82800160010185558215611456579182015b8281111561145557825182559160200191906001019061143a565b5b50905061146391906114b1565b5090565b6040518060a00160405280600080191681526020016060815260200160608152602001600015158152602001600073ffffffffffffffffffffffffffffffffffffffff1681525090565b5b808211156114ca5760008160009055506001016114b2565b5090565b60006114e16114dc84611b82565b611b5d565b9050828152602081018484840111156114f957600080fd5b611504848285611cb2565b509392505050565b60008135905061151b81611f50565b92915050565b60008135905061153081611f67565b92915050565b60008135905061154581611f7e565b92915050565b600082601f83011261155c57600080fd5b813561156c8482602086016114ce565b91505092915050565b600060a0828403121561158757600080fd5b61159160a0611b5d565b905060006115a184828501611536565b600083015250602082013567ffffffffffffffff8111156115c157600080fd5b6115cd8482850161154b565b602083015250604082013567ffffffffffffffff8111156115ed57600080fd5b6115f98482850161154b565b604083015250606061160d84828501611521565b60608301525060806116218482850161150c565b60808301525092915050565b60008135905061163c81611f95565b92915050565b60006020828403121561165457600080fd5b60006116628482850161150c565b91505092915050565b60006020828403121561167d57600080fd5b600061168b84828501611536565b91505092915050565b600080604083850312156116a757600080fd5b60006116b585828601611536565b925050602083013567ffffffffffffffff8111156116d257600080fd5b6116de8582860161154b565b9150509250929050565b6000602082840312156116fa57600080fd5b600082013567ffffffffffffffff81111561171457600080fd5b61172084828501611575565b91505092915050565b60006020828403121561173b57600080fd5b60006117498482850161162d565b91505092915050565b61175b81611c60565b82525050565b61176a81611c60565b82525050565b61177981611c72565b82525050565b61178881611c72565b82525050565b61179781611c7e565b82525050565b60006117a882611bc8565b6117b28185611bd3565b93506117c2818560208601611cc1565b6117cb81611e32565b840191505092915050565b600081546117e381611cf4565b6117ed8186611bd3565b94506001821660008114611808576001811461181a5761184d565b60ff198316865260208601935061184d565b61182385611bb3565b60005b8381101561184557815481890152600182019150602081019050611826565b808801955050505b50505092915050565b6000611863600383611be4565b915061186e82611e5d565b602082019050919050565b6000611886602683611be4565b915061189182611e86565b604082019050919050565b60006118a9600383611be4565b91506118b482611ed5565b602082019050919050565b60006118cc602083611be4565b91506118d782611efe565b602082019050919050565b60006118ef600383611be4565b91506118fa82611f27565b602082019050919050565b600060a08301600083015161191d600086018261178e565b5060208301518482036020860152611935828261179d565b9150506040830151848203604086015261194f828261179d565b91505060608301516119646060860182611770565b5060808301516119776080860182611752565b508091505092915050565b600060a08301600080840154905061199981611d40565b6119a6600087018261178e565b506001840185830360208701526119bd83826117d6565b9250506002840185830360408701526119d683826117d6565b925050600384015490506119e981611d26565b6119f66060870182611770565b50611a0081611d5a565b611a0d6080870182611752565b50819250505092915050565b611a2281611ca8565b82525050565b6000602082019050611a3d6000830184611761565b92915050565b6000602082019050611a58600083018461177f565b92915050565b60006020820190508181036000830152611a7781611856565b9050919050565b60006020820190508181036000830152611a9781611879565b9050919050565b60006020820190508181036000830152611ab78161189c565b9050919050565b60006020820190508181036000830152611ad7816118bf565b9050919050565b60006020820190508181036000830152611af7816118e2565b9050919050565b60006020820190508181036000830152611b188184611905565b905092915050565b60006020820190508181036000830152611b3a8184611982565b905092915050565b6000602082019050611b576000830184611a19565b92915050565b6000611b67611b78565b9050611b738282611d74565b919050565b6000604051905090565b600067ffffffffffffffff821115611b9d57611b9c611e03565b5b611ba682611e32565b9050602081019050919050565b60008190508160005260206000209050919050565b600081519050919050565b600082825260208201905092915050565b600082825260208201905092915050565b6000611c0082611ca8565b9150611c0b83611ca8565b925082821015611c1e57611c1d611da5565b5b828203905092915050565b600073ffffffffffffffffffffffffffffffffffffffff82169050919050565b600060ff82169050919050565b6000819050919050565b6000611c6b82611c88565b9050919050565b60008115159050919050565b6000819050919050565b600073ffffffffffffffffffffffffffffffffffffffff82169050919050565b6000819050919050565b82818337600083830152505050565b60005b83811015611cdf578082015181840152602081019050611cc4565b83811115611cee576000848401525b50505050565b60006002820490506001821680611d0c57607f821691505b60208210811415611d2057611d1f611dd4565b5b50919050565b6000611d39611d3483611e43565b611c49565b9050919050565b6000611d53611d4e83611e43565b611c56565b9050919050565b6000611d6d611d6883611e50565b611c29565b9050919050565b611d7d82611e32565b810181811067ffffffffffffffff82111715611d9c57611d9b611e03565b5b80604052505050565b7f4e487b7100000000000000000000000000000000000000000000000000000000600052601160045260246000fd5b7f4e487b7100000000000000000000000000000000000000000000000000000000600052602260045260246000fd5b7f4e487b7100000000000000000000000000000000000000000000000000000000600052604160045260246000fd5b6000601f19601f8301169050919050565b60008160001c9050919050565b60008160081c9050919050565b7f3430330000000000000000000000000000000000000000000000000000000000600082015250565b7f4f776e61626c653a206e6577206f776e657220697320746865207a65726f206160008201527f6464726573730000000000000000000000000000000000000000000000000000602082015250565b7f3430300000000000000000000000000000000000000000000000000000000000600082015250565b7f4f776e61626c653a2063616c6c6572206973206e6f7420746865206f776e6572600082015250565b7f3430340000000000000000000000000000000000000000000000000000000000600082015250565b611f5981611c60565b8114611f6457600080fd5b50565b611f7081611c72565b8114611f7b57600080fd5b50565b611f8781611c7e565b8114611f9257600080fd5b50565b611f9e81611ca8565b8114611fa957600080fd5b5056fea2646970667358221220ece38db1ab086d5513a9217fc3b0912001518cb5de6e699d6d1315e533ca5b3064736f6c63430008040033",
  "linkReferences": {},
  "deployedLinkReferences": {}
}